{
  "contractName": "DelegateExec",
  "abi": [
    {
      "anonymous": false,
      "inputs": [
        {
          "indexed": true,
          "internalType": "address",
          "name": "previousOwner",
          "type": "address"
        },
        {
          "indexed": true,
          "internalType": "address",
          "name": "newOwner",
          "type": "address"
        }
      ],
      "name": "OwnershipTransferred",
      "type": "event"
    },
    {
      "payable": true,
      "stateMutability": "payable",
      "type": "fallback"
    },
    {
      "constant": true,
      "inputs": [],
      "name": "implementation",
      "outputs": [
        {
          "internalType": "address payable",
          "name": "",
          "type": "address"
        }
      ],
      "payable": false,
      "stateMutability": "view",
      "type": "function"
    },
    {
      "constant": true,
      "inputs": [],
      "name": "isOwner",
      "outputs": [
        {
          "internalType": "bool",
          "name": "",
          "type": "bool"
        }
      ],
      "payable": false,
      "stateMutability": "view",
      "type": "function"
    },
    {
      "constant": true,
      "inputs": [],
      "name": "owner",
      "outputs": [
        {
          "internalType": "address",
          "name": "",
          "type": "address"
        }
      ],
      "payable": false,
      "stateMutability": "view",
      "type": "function"
    },
    {
      "constant": false,
      "inputs": [],
      "name": "renounceOwnership",
      "outputs": [],
      "payable": false,
      "stateMutability": "nonpayable",
      "type": "function"
    },
    {
      "constant": false,
      "inputs": [
        {
          "internalType": "address",
          "name": "newOwner",
          "type": "address"
        }
      ],
      "name": "transferOwnership",
      "outputs": [],
      "payable": false,
      "stateMutability": "nonpayable",
      "type": "function"
    },
    {
      "constant": false,
      "inputs": [
        {
          "internalType": "address payable",
          "name": "_implementation",
          "type": "address"
        }
      ],
      "name": "setImplementation",
      "outputs": [],
      "payable": false,
      "stateMutability": "nonpayable",
      "type": "function"
    }
  ],
  "bytecode": "0x608060405260006100176001600160e01b0361006616565b600080546001600160a01b0319166001600160a01b0383169081178255604051929350917f8be0079c531659141344cd1fd0a4f28419497f9722a3daafe3b4186f6b6457e0908290a35061006a565b3390565b610504806100796000396000f3fe6080604052600436106100555760003560e01c80635c60da1b146100e8578063715018a6146101195780638da5cb5b1461012e5780638f32d59b14610143578063d784d4261461016c578063f2fde38b1461019f575b61005d6101d2565b61009c576040805162461bcd60e51b815260206004820181905260248201526000805160206104b0833981519152604482015290519081900360640190fd5b60015460408051602036601f81018290048202830182019093528282526100e6936001600160a01b031692600091819084018382808284376000920191909152506101f692505050565b005b3480156100f457600080fd5b506100fd61023e565b604080516001600160a01b039092168252519081900360200190f35b34801561012557600080fd5b506100e661024d565b34801561013a57600080fd5b506100fd6102de565b34801561014f57600080fd5b506101586101d2565b604080519115158252519081900360200190f35b34801561017857600080fd5b506100e66004803603602081101561018f57600080fd5b50356001600160a01b03166102ed565b3480156101ab57600080fd5b506100e6600480360360208110156101c257600080fd5b50356001600160a01b0316610356565b600080546001600160a01b03166101e76103a9565b6001600160a01b031614905090565b610208826001600160a01b03166103ad565b61021157600080fd5b6000612710905060008083516020850186855a03f43d604051816000823e82801561023a578282f35b8282fd5b6001546001600160a01b031681565b6102556101d2565b610294576040805162461bcd60e51b815260206004820181905260248201526000805160206104b0833981519152604482015290519081900360640190fd5b600080546040516001600160a01b03909116907f8be0079c531659141344cd1fd0a4f28419497f9722a3daafe3b4186f6b6457e0908390a3600080546001600160a01b0319169055565b6000546001600160a01b031690565b6102f56101d2565b610334576040805162461bcd60e51b815260206004820181905260248201526000805160206104b0833981519152604482015290519081900360640190fd5b600180546001600160a01b0319166001600160a01b0392909216919091179055565b61035e6101d2565b61039d576040805162461bcd60e51b815260206004820181905260248201526000805160206104b0833981519152604482015290519081900360640190fd5b6103a6816103e9565b50565b3390565b6000813f7fc5d2460186f7233c927e7db2dcc703c0e500b653ca82273b7bfad8045d85a4708181148015906103e157508115155b949350505050565b6001600160a01b03811661042e5760405162461bcd60e51b815260040180806020018281038252602681526020018061048a6026913960400191505060405180910390fd5b600080546040516001600160a01b03808516939216917f8be0079c531659141344cd1fd0a4f28419497f9722a3daafe3b4186f6b6457e091a3600080546001600160a01b0319166001600160a01b039290921691909117905556fe4f776e61626c653a206e6577206f776e657220697320746865207a65726f20616464726573734f776e61626c653a2063616c6c6572206973206e6f7420746865206f776e6572a265627a7a723158209b26d93fa88d24b9baea473c66666703a7463599c59e22f0bf45b11c0e8afe5264736f6c634300050c0032",
  "source": "pragma solidity ^0.5.12;\n\n\nimport { Ownable } from \"../../node_modules/openzeppelin-solidity/contracts/ownership/Ownable.sol\";\nimport { Address } from \"../../node_modules/openzeppelin-solidity/contracts/utils/Address.sol\";\n\nimport { DelegateExecStorage } from \"./DelegateExecStorage.sol\";\n\n\ncontract DelegateExec is Ownable, DelegateExecStorage {\n  using Address for *;\n\n  uint256 internal constant FWD_GAS_LIMIT = 10000;\n\n  function setImplementation(address payable _implementation) public onlyOwner {\n    implementation = _implementation;\n  }\n\n  /**\n   * https://github.com/aragon/aragonOS/blob/next/contracts/common/DelegateProxy.sol\n   * @dev Performs a delegatecall and returns whatever the delegatecall returned (entire context execution will return!)\n   * @param _dst Destination address to perform the delegatecall\n   * @param _calldata Calldata for the delegatecall\n   */\n  function delegateExec(address _dst, bytes memory _calldata) internal {\n    require(_dst.isContract());\n    uint256 fwdGasLimit = FWD_GAS_LIMIT;\n\n    assembly {\n      let result := delegatecall(sub(gas, fwdGasLimit), _dst, add(_calldata, 0x20), mload(_calldata), 0, 0)\n      let size := returndatasize\n      let ptr := mload(0x40)\n      returndatacopy(ptr, 0, size)\n\n      // revert instead of invalid() bc if the underlying call failed with invalid() it already wasted gas.\n      // if the call returned error data, forward it\n      switch result case 0 { revert(ptr, size) }\n      default { return(ptr, size) }\n    }\n  }\n\n  function () external payable onlyOwner {\n    delegateExec(implementation, msg.data);\n  }\n}",
  "sourcePath": "/Users/pjh/workspace/plasma-evm-contracts/contracts/exec/DelegateExec.sol",
  "compiler": {
    "name": "solc",
    "version": "0.5.12+commit.7709ece9.Emscripten.clang"
  },
  "schemaVersion": "3.0.23",
  "updatedAt": "2020-03-05T06:33:29.648Z",
  "devdoc": {
    "methods": {
      "isOwner()": {
        "details": "Returns true if the caller is the current owner."
      },
      "owner()": {
        "details": "Returns the address of the current owner."
      },
      "renounceOwnership()": {
        "details": "Leaves the contract without owner. It will not be possible to call `onlyOwner` functions anymore. Can only be called by the current owner.     * NOTE: Renouncing ownership will leave the contract without an owner, thereby removing any functionality that is only available to the owner."
      },
      "transferOwnership(address)": {
        "details": "Transfers ownership of the contract to a new account (`newOwner`). Can only be called by the current owner."
      }
    }
  },
  "userdoc": {
    "methods": {}
  }
}