{
  "contractName": "DepositManager",
  "abi": [
    {
      "inputs": [
        {
          "internalType": "contract WTON",
          "name": "wton",
          "type": "address"
        },
        {
          "internalType": "contract RootChainRegistryI",
          "name": "registry",
          "type": "address"
        },
        {
          "internalType": "uint256",
          "name": "WITHDRAWAL_DELAY",
          "type": "uint256"
        }
      ],
      "payable": false,
      "stateMutability": "nonpayable",
      "type": "constructor"
    },
    {
      "anonymous": false,
      "inputs": [
        {
          "indexed": true,
          "internalType": "address",
          "name": "rootchain",
          "type": "address"
        },
        {
          "indexed": false,
          "internalType": "address",
          "name": "depositor",
          "type": "address"
        },
        {
          "indexed": false,
          "internalType": "uint256",
          "name": "amount",
          "type": "uint256"
        }
      ],
      "name": "Deposited",
      "type": "event"
    },
    {
      "anonymous": false,
      "inputs": [
        {
          "indexed": true,
          "internalType": "address",
          "name": "previousOwner",
          "type": "address"
        },
        {
          "indexed": true,
          "internalType": "address",
          "name": "newOwner",
          "type": "address"
        }
      ],
      "name": "OwnershipTransferred",
      "type": "event"
    },
    {
      "anonymous": false,
      "inputs": [
        {
          "indexed": true,
          "internalType": "address",
          "name": "rootchain",
          "type": "address"
        },
        {
          "indexed": false,
          "internalType": "address",
          "name": "depositor",
          "type": "address"
        },
        {
          "indexed": false,
          "internalType": "uint256",
          "name": "amount",
          "type": "uint256"
        }
      ],
      "name": "WithdrawalProcessed",
      "type": "event"
    },
    {
      "anonymous": false,
      "inputs": [
        {
          "indexed": true,
          "internalType": "address",
          "name": "rootchain",
          "type": "address"
        },
        {
          "indexed": false,
          "internalType": "address",
          "name": "depositor",
          "type": "address"
        },
        {
          "indexed": false,
          "internalType": "uint256",
          "name": "amount",
          "type": "uint256"
        }
      ],
      "name": "WithdrawalRequested",
      "type": "event"
    },
    {
      "constant": true,
      "inputs": [],
      "name": "INTERFACE_ID_ON_APPROVE",
      "outputs": [
        {
          "internalType": "bytes4",
          "name": "",
          "type": "bytes4"
        }
      ],
      "payable": false,
      "stateMutability": "view",
      "type": "function"
    },
    {
      "constant": true,
      "inputs": [],
      "name": "isOwner",
      "outputs": [
        {
          "internalType": "bool",
          "name": "",
          "type": "bool"
        }
      ],
      "payable": false,
      "stateMutability": "view",
      "type": "function"
    },
    {
      "constant": true,
      "inputs": [],
      "name": "owner",
      "outputs": [
        {
          "internalType": "address",
          "name": "",
          "type": "address"
        }
      ],
      "payable": false,
      "stateMutability": "view",
      "type": "function"
    },
    {
      "constant": false,
      "inputs": [],
      "name": "renounceOwnership",
      "outputs": [],
      "payable": false,
      "stateMutability": "nonpayable",
      "type": "function"
    },
    {
      "constant": true,
      "inputs": [
        {
          "internalType": "bytes4",
          "name": "interfaceId",
          "type": "bytes4"
        }
      ],
      "name": "supportsInterface",
      "outputs": [
        {
          "internalType": "bool",
          "name": "",
          "type": "bool"
        }
      ],
      "payable": false,
      "stateMutability": "view",
      "type": "function"
    },
    {
      "constant": false,
      "inputs": [
        {
          "internalType": "address",
          "name": "newOwner",
          "type": "address"
        }
      ],
      "name": "transferOwnership",
      "outputs": [],
      "payable": false,
      "stateMutability": "nonpayable",
      "type": "function"
    },
    {
      "constant": false,
      "inputs": [
        {
          "internalType": "contract SeigManagerI",
          "name": "seigManager",
          "type": "address"
        }
      ],
      "name": "setSeigManager",
      "outputs": [],
      "payable": false,
      "stateMutability": "nonpayable",
      "type": "function"
    },
    {
      "constant": false,
      "inputs": [
        {
          "internalType": "address",
          "name": "owner",
          "type": "address"
        },
        {
          "internalType": "address",
          "name": "spender",
          "type": "address"
        },
        {
          "internalType": "uint256",
          "name": "amount",
          "type": "uint256"
        },
        {
          "internalType": "bytes",
          "name": "data",
          "type": "bytes"
        }
      ],
      "name": "onApprove",
      "outputs": [
        {
          "internalType": "bool",
          "name": "",
          "type": "bool"
        }
      ],
      "payable": false,
      "stateMutability": "nonpayable",
      "type": "function"
    },
    {
      "constant": false,
      "inputs": [
        {
          "internalType": "address",
          "name": "rootchain",
          "type": "address"
        },
        {
          "internalType": "uint256",
          "name": "amount",
          "type": "uint256"
        }
      ],
      "name": "deposit",
      "outputs": [
        {
          "internalType": "bool",
          "name": "",
          "type": "bool"
        }
      ],
      "payable": false,
      "stateMutability": "nonpayable",
      "type": "function"
    },
    {
      "constant": false,
      "inputs": [
        {
          "internalType": "address",
          "name": "rootchain",
          "type": "address"
        },
        {
          "internalType": "uint256",
          "name": "amount",
          "type": "uint256"
        }
      ],
      "name": "requestWithdrawal",
      "outputs": [
        {
          "internalType": "bool",
          "name": "",
          "type": "bool"
        }
      ],
      "payable": false,
      "stateMutability": "nonpayable",
      "type": "function"
    },
    {
      "constant": false,
      "inputs": [
        {
          "internalType": "address",
          "name": "rootchain",
          "type": "address"
        },
        {
          "internalType": "bool",
          "name": "receiveTON",
          "type": "bool"
        }
      ],
      "name": "processRequest",
      "outputs": [
        {
          "internalType": "bool",
          "name": "",
          "type": "bool"
        }
      ],
      "payable": false,
      "stateMutability": "nonpayable",
      "type": "function"
    },
    {
      "constant": false,
      "inputs": [
        {
          "internalType": "address",
          "name": "rootchain",
          "type": "address"
        }
      ],
      "name": "requestWithdrawalAll",
      "outputs": [
        {
          "internalType": "bool",
          "name": "",
          "type": "bool"
        }
      ],
      "payable": false,
      "stateMutability": "nonpayable",
      "type": "function"
    },
    {
      "constant": false,
      "inputs": [
        {
          "internalType": "address",
          "name": "rootchain",
          "type": "address"
        },
        {
          "internalType": "uint256",
          "name": "n",
          "type": "uint256"
        },
        {
          "internalType": "bool",
          "name": "receiveTON",
          "type": "bool"
        }
      ],
      "name": "processRequests",
      "outputs": [
        {
          "internalType": "bool",
          "name": "",
          "type": "bool"
        }
      ],
      "payable": false,
      "stateMutability": "nonpayable",
      "type": "function"
    },
    {
      "constant": true,
      "inputs": [
        {
          "internalType": "address",
          "name": "rootchain",
          "type": "address"
        },
        {
          "internalType": "address",
          "name": "account",
          "type": "address"
        }
      ],
      "name": "numRequests",
      "outputs": [
        {
          "internalType": "uint256",
          "name": "",
          "type": "uint256"
        }
      ],
      "payable": false,
      "stateMutability": "view",
      "type": "function"
    },
    {
      "constant": true,
      "inputs": [
        {
          "internalType": "address",
          "name": "rootchain",
          "type": "address"
        },
        {
          "internalType": "address",
          "name": "account",
          "type": "address"
        }
      ],
      "name": "numPendingRequests",
      "outputs": [
        {
          "internalType": "uint256",
          "name": "",
          "type": "uint256"
        }
      ],
      "payable": false,
      "stateMutability": "view",
      "type": "function"
    },
    {
      "constant": true,
      "inputs": [],
      "name": "wton",
      "outputs": [
        {
          "internalType": "contract WTON",
          "name": "",
          "type": "address"
        }
      ],
      "payable": false,
      "stateMutability": "view",
      "type": "function"
    },
    {
      "constant": true,
      "inputs": [],
      "name": "registry",
      "outputs": [
        {
          "internalType": "contract RootChainRegistryI",
          "name": "",
          "type": "address"
        }
      ],
      "payable": false,
      "stateMutability": "view",
      "type": "function"
    },
    {
      "constant": true,
      "inputs": [],
      "name": "seigManager",
      "outputs": [
        {
          "internalType": "contract SeigManagerI",
          "name": "",
          "type": "address"
        }
      ],
      "payable": false,
      "stateMutability": "view",
      "type": "function"
    },
    {
      "constant": true,
      "inputs": [
        {
          "internalType": "address",
          "name": "rootchain",
          "type": "address"
        },
        {
          "internalType": "address",
          "name": "account",
          "type": "address"
        }
      ],
      "name": "accStaked",
      "outputs": [
        {
          "internalType": "uint256",
          "name": "wtonAmount",
          "type": "uint256"
        }
      ],
      "payable": false,
      "stateMutability": "view",
      "type": "function"
    },
    {
      "constant": true,
      "inputs": [
        {
          "internalType": "address",
          "name": "rootchain",
          "type": "address"
        }
      ],
      "name": "accStakedRootChain",
      "outputs": [
        {
          "internalType": "uint256",
          "name": "wtonAmount",
          "type": "uint256"
        }
      ],
      "payable": false,
      "stateMutability": "view",
      "type": "function"
    },
    {
      "constant": true,
      "inputs": [
        {
          "internalType": "address",
          "name": "account",
          "type": "address"
        }
      ],
      "name": "accStakedAccount",
      "outputs": [
        {
          "internalType": "uint256",
          "name": "wtonAmount",
          "type": "uint256"
        }
      ],
      "payable": false,
      "stateMutability": "view",
      "type": "function"
    },
    {
      "constant": true,
      "inputs": [
        {
          "internalType": "address",
          "name": "rootchain",
          "type": "address"
        },
        {
          "internalType": "address",
          "name": "account",
          "type": "address"
        }
      ],
      "name": "pendingUnstaked",
      "outputs": [
        {
          "internalType": "uint256",
          "name": "wtonAmount",
          "type": "uint256"
        }
      ],
      "payable": false,
      "stateMutability": "view",
      "type": "function"
    },
    {
      "constant": true,
      "inputs": [
        {
          "internalType": "address",
          "name": "rootchain",
          "type": "address"
        }
      ],
      "name": "pendingUnstakedRootChain",
      "outputs": [
        {
          "internalType": "uint256",
          "name": "wtonAmount",
          "type": "uint256"
        }
      ],
      "payable": false,
      "stateMutability": "view",
      "type": "function"
    },
    {
      "constant": true,
      "inputs": [
        {
          "internalType": "address",
          "name": "account",
          "type": "address"
        }
      ],
      "name": "pendingUnstakedAccount",
      "outputs": [
        {
          "internalType": "uint256",
          "name": "wtonAmount",
          "type": "uint256"
        }
      ],
      "payable": false,
      "stateMutability": "view",
      "type": "function"
    },
    {
      "constant": true,
      "inputs": [
        {
          "internalType": "address",
          "name": "rootchain",
          "type": "address"
        },
        {
          "internalType": "address",
          "name": "account",
          "type": "address"
        }
      ],
      "name": "accUnstaked",
      "outputs": [
        {
          "internalType": "uint256",
          "name": "wtonAmount",
          "type": "uint256"
        }
      ],
      "payable": false,
      "stateMutability": "view",
      "type": "function"
    },
    {
      "constant": true,
      "inputs": [
        {
          "internalType": "address",
          "name": "rootchain",
          "type": "address"
        }
      ],
      "name": "accUnstakedRootChain",
      "outputs": [
        {
          "internalType": "uint256",
          "name": "wtonAmount",
          "type": "uint256"
        }
      ],
      "payable": false,
      "stateMutability": "view",
      "type": "function"
    },
    {
      "constant": true,
      "inputs": [
        {
          "internalType": "address",
          "name": "account",
          "type": "address"
        }
      ],
      "name": "accUnstakedAccount",
      "outputs": [
        {
          "internalType": "uint256",
          "name": "wtonAmount",
          "type": "uint256"
        }
      ],
      "payable": false,
      "stateMutability": "view",
      "type": "function"
    },
    {
      "constant": true,
      "inputs": [
        {
          "internalType": "address",
          "name": "rootchain",
          "type": "address"
        },
        {
          "internalType": "address",
          "name": "account",
          "type": "address"
        }
      ],
      "name": "withdrawalRequestIndex",
      "outputs": [
        {
          "internalType": "uint256",
          "name": "index",
          "type": "uint256"
        }
      ],
      "payable": false,
      "stateMutability": "view",
      "type": "function"
    },
    {
      "constant": true,
      "inputs": [
        {
          "internalType": "address",
          "name": "rootchain",
          "type": "address"
        },
        {
          "internalType": "address",
          "name": "account",
          "type": "address"
        },
        {
          "internalType": "uint256",
          "name": "index",
          "type": "uint256"
        }
      ],
      "name": "withdrawalRequest",
      "outputs": [
        {
          "internalType": "uint128",
          "name": "withdrawableBlockNumber",
          "type": "uint128"
        },
        {
          "internalType": "uint128",
          "name": "amount",
          "type": "uint128"
        },
        {
          "internalType": "bool",
          "name": "processed",
          "type": "bool"
        }
      ],
      "payable": false,
      "stateMutability": "view",
      "type": "function"
    },
    {
      "constant": true,
      "inputs": [],
      "name": "WITHDRAWAL_DELAY",
      "outputs": [
        {
          "internalType": "uint256",
          "name": "",
          "type": "uint256"
        }
      ],
      "payable": false,
      "stateMutability": "view",
      "type": "function"
    }
  ],
  "bytecode": "0x60806040523480156200001157600080fd5b5060405162001f2838038062001f28833981810160405260608110156200003757600080fd5b508051602082015160409092015190919060006200005d6001600160e01b036200014216565b600080546001600160a01b0319166001600160a01b0383169081178255604051929350917f8be0079c531659141344cd1fd0a4f28419497f9722a3daafe3b4186f6b6457e0908290a350620000db7f01ffc9a7000000000000000000000000000000000000000000000000000000006001600160e01b036200014616565b62000109604051808062001f006028913960405190819003602801902090506001600160e01b036200014616565b600280546001600160a01b039485166001600160a01b031991821617909155600380549390941692169190911790915560105562000218565b3390565b7fffffffff000000000000000000000000000000000000000000000000000000008082161415620001d857604080517f08c379a000000000000000000000000000000000000000000000000000000000815260206004820152601c60248201527f4552433136353a20696e76616c696420696e7465726661636520696400000000604482015290519081900360640190fd5b7fffffffff00000000000000000000000000000000000000000000000000000000166000908152600160208190526040909120805460ff19169091179055565b611cd880620002286000396000f3fe608060405234801561001057600080fd5b50600436106101d95760003560e01c80638d62d94911610104578063a8f3fb98116100a2578063e8035ec911610071578063e8035ec91461060e578063f2fde38b14610634578063f762eb571461065a578063fb0713b114610688576101d9565b8063a8f3fb9814610560578063c20a44c614610586578063c647f26e146105b4578063da95ebf7146105e2576101d9565b80638fbef2d0116100de5780638fbef2d0146104845780639d91b87b146104e6578063a0b2a91314610514578063a35439891461053a576101d9565b80638d62d9491461046c5780638da5cb5b146104745780638f32d59b1461047c576101d9565b806347e7ef241161017c5780636fb7f5581161014b5780636fb7f55814610410578063715018a6146104345780637657f20a1461043e5780637b10399914610464576101d9565b806347e7ef241461036b5780635c0df46b146103975780636b2160b7146103c55780636cd28f9a146103eb576101d9565b80630ebb172a116101b85780630ebb172a146102775780632638fdf51461027f5780632d2fab94146102ad5780634273ca16146102db576101d9565b806255f5c1146101de57806301ffc9a71461021657806303dc651014610251575b600080fd5b610204600480360360208110156101f457600080fd5b50356001600160a01b03166106bc565b60408051918252519081900360200190f35b61023d6004803603602081101561022c57600080fd5b50356001600160e01b0319166106d7565b604080519115158252519081900360200190f35b6102046004803603602081101561026757600080fd5b50356001600160a01b03166106f6565b610204610711565b6102046004803603604081101561029557600080fd5b506001600160a01b0381358116916020013516610717565b610204600480360360408110156102c357600080fd5b506001600160a01b0381358116916020013516610744565b61023d600480360360808110156102f157600080fd5b6001600160a01b0382358116926020810135909116916040820135919081019060808101606082013564010000000081111561032c57600080fd5b82018360208201111561033e57600080fd5b8035906020019184600183028401116401000000008311171561036057600080fd5b50909250905061076f565b61023d6004803603604081101561038157600080fd5b506001600160a01b03813516906020013561081c565b610204600480360360408110156103ad57600080fd5b506001600160a01b0381358116916020013516610832565b61023d600480360360208110156103db57600080fd5b50356001600160a01b0316610888565b6103f36109a5565b604080516001600160e01b03199092168252519081900360200190f35b6104186109c0565b604080516001600160a01b039092168252519081900360200190f35b61043c6109cf565b005b61043c6004803603602081101561045457600080fd5b50356001600160a01b0316610a72565b610418610b35565b610418610b44565b610418610b53565b61023d610b62565b6104ba6004803603606081101561049a57600080fd5b506001600160a01b03813581169160208101359091169060400135610b86565b604080516001600160801b03948516815292909316602083015215158183015290519081900360600190f35b610204600480360360408110156104fc57600080fd5b506001600160a01b0381358116916020013516610c81565b6102046004803603602081101561052a57600080fd5b50356001600160a01b0316610cac565b6102046004803603602081101561055057600080fd5b50356001600160a01b0316610cc7565b6102046004803603602081101561057657600080fd5b50356001600160a01b0316610ce2565b61023d6004803603604081101561059c57600080fd5b506001600160a01b0381351690602001351515610cfd565b610204600480360360408110156105ca57600080fd5b506001600160a01b0381358116916020013516610d10565b61023d600480360360408110156105f857600080fd5b506001600160a01b038135169060200135610d3b565b6102046004803603602081101561062457600080fd5b50356001600160a01b0316610d47565b61043c6004803603602081101561064a57600080fd5b50356001600160a01b0316610d62565b6102046004803603604081101561067057600080fd5b506001600160a01b0381358116916020013516610dc7565b61023d6004803603606081101561069e57600080fd5b506001600160a01b0381351690602081013590604001351515610df2565b6001600160a01b031660009081526007602052604090205490565b6001600160e01b03191660009081526001602052604090205460ff1690565b6001600160a01b03166000908152600c602052604090205490565b60105490565b6001600160a01b038083166000908152600860209081526040808320938516835292905220545b92915050565b6001600160a01b03918216600090815260056020908152604080832093909416825291909152205490565b6002546000906001600160a01b031633146107bb5760405162461bcd60e51b8152600401808060200182810382526031815260200180611c496031913960400191505060405180910390fd5b60006107fc84848080601f016020809104026020016040519081016040528093929190818152602001838380828437600092019190915250610e2492505050565b9050610809818887610e3c565b61081257600080fd5b5095945050505050565b6000610829833384610e3c565b61073e57600080fd5b6001600160a01b038083166000818152600e6020908152604080832094861680845294825280832054938352600f8252808320948352939052918220548161087f5760009250505061073e565b90039392505050565b600354604080516302a1529960e01b81526001600160a01b0380851660048301529151600093859316916302a15299916024808301926020929190829003018186803b1580156108d757600080fd5b505afa1580156108eb573d6000803e3d6000fd5b505050506040513d602081101561090157600080fd5b505161090c57600080fd5b60048054604080516367265c3b60e11b81526001600160a01b038781169482019490945233602482015290516000939092169163ce4cb87691604480820192602092909190829003018186803b15801561096557600080fd5b505afa158015610979573d6000803e3d6000fd5b505050506040513d602081101561098f57600080fd5b5051905061099d8482611088565b949350505050565b604051806028611ba982396028019050604051809103902081565b6004546001600160a01b031690565b6109d7610b62565b610a28576040805162461bcd60e51b815260206004820181905260248201527f4f776e61626c653a2063616c6c6572206973206e6f7420746865206f776e6572604482015290519081900360640190fd5b600080546040516001600160a01b03909116907f8be0079c531659141344cd1fd0a4f28419497f9722a3daafe3b4186f6b6457e0908390a3600080546001600160a01b0319169055565b610a7a610b62565b610acb576040805162461bcd60e51b815260206004820181905260248201527f4f776e61626c653a2063616c6c6572206973206e6f7420746865206f776e6572604482015290519081900360640190fd5b6004546001600160a01b031615610b135760405162461bcd60e51b815260040180806020018281038252602a815260200180611bd1602a913960400191505060405180910390fd5b600480546001600160a01b0319166001600160a01b0392909216919091179055565b6003546001600160a01b031690565b6002546001600160a01b031690565b6000546001600160a01b031690565b600080546001600160a01b0316610b7761134a565b6001600160a01b031614905090565b6001600160a01b038084166000908152600e60209081526040808320938616835292905290812080548291829185908110610bbd57fe5b600091825260208083206002909202909101546001600160a01b03808a168452600e83526040808520918a1685529252912080546001600160801b0390921694509085908110610c0957fe5b60009182526020808320600292909202909101546001600160a01b038981168452600e83526040808520918a168552925291208054600160801b9092046001600160801b031693509085908110610c5c57fe5b600091825260209091206001600290920201015492969195505060ff90911692509050565b6001600160a01b039182166000908152600b6020908152604080832093909416825291909152205490565b6001600160a01b03166000908152600a602052604090205490565b6001600160a01b03166000908152600d602052604090205490565b6001600160a01b031660009081526009602052604090205490565b6000610d09838361134e565b9392505050565b6001600160a01b039182166000908152600f6020908152604080832093909416825291909152205490565b6000610d098383611088565b6001600160a01b031660009081526006602052604090205490565b610d6a610b62565b610dbb576040805162461bcd60e51b815260206004820181905260248201527f4f776e61626c653a2063616c6c6572206973206e6f7420746865206f776e6572604482015290519081900360640190fd5b610dc481611707565b50565b6001600160a01b039182166000908152600e6020908152604080832093909416825291909152205490565b6000805b83811015610e1957610e08858461134e565b610e1157600080fd5b600101610df6565b506001949350505050565b60008151602014610e3457600080fd5b506020015190565b600354604080516302a1529960e01b81526001600160a01b0380871660048301529151600093879316916302a15299916024808301926020929190829003018186803b158015610e8b57600080fd5b505afa158015610e9f573d6000803e3d6000fd5b505050506040513d6020811015610eb557600080fd5b5051610ec057600080fd5b6001600160a01b03808616600090815260056020908152604080832093881683529290522054610ef6908463ffffffff6117a716565b6001600160a01b038087166000818152600560209081526040808320948a168352938152838220949094559081526006909252902054610f3c908463ffffffff6117a716565b6001600160a01b03808716600090815260066020908152604080832094909455918716815260079091522054610f78908463ffffffff6117a716565b6001600160a01b03808616600090815260076020526040902091909155600254610fab911685308663ffffffff61180116565b604080516001600160a01b038681168252602082018690528251908816927f8752a472e571a816aea92eec8dae9baf628e840f4929fbcc2d155e6233ff68a7928290030190a26004805460408051630412c6d560e41b81526001600160a01b03898116948201949094528784166024820152604481018790529051929091169163412c6d50916064808201926020929091908290030181600087803b15801561105357600080fd5b505af1158015611067573d6000803e3d6000fd5b505050506040513d602081101561107d57600080fd5b5051610e1957600080fd5b600354604080516302a1529960e01b81526001600160a01b0380861660048301529151600093869316916302a15299916024808301926020929190829003018186803b1580156110d757600080fd5b505afa1580156110eb573d6000803e3d6000fd5b505050506040513d602081101561110157600080fd5b505161110c57600080fd5b6001600160a01b0384166000818152600e602090815260408083203380855290835281842082516060810184526010546001600160801b0343909101811682528a8116828701908152828601888152845460018181018755958a52888a2094516002909102909401805492518416600160801b029484166fffffffffffffffffffffffffffffffff1990931692909217909216929092178255519101805491151560ff199092169190911790559383526008825280832093835292905220546111db908463ffffffff6117a716565b6001600160a01b03851660008181526008602090815260408083203384528252808320949094559181526009909152205461121c908463ffffffff6117a716565b6001600160a01b038516600090815260096020908152604080832093909355338252600a90522054611254908463ffffffff6117a716565b336000818152600a602090815260409182902093909355805191825291810185905281516001600160a01b038716927f04c56a409d50971e45c5a2d96e5d557d2b0f1d66d40f14b141e4c958b0f39b32928290030190a26004805460408051637c287fd560e11b81526001600160a01b0388811694820194909452336024820152604481018790529051929091169163f850ffaa916064808201926020929091908290030181600087803b15801561130b57600080fd5b505af115801561131f573d6000803e3d6000fd5b505050506040513d602081101561133557600080fd5b505161134057600080fd5b5060019392505050565b3390565b6001600160a01b0382166000818152600f602090815260408083203380855290835281842054948452600e835281842090845290915281205490919081106113c75760405162461bcd60e51b8152600401808060200182810382526025815260200180611bfb6025913960400191505060405180910390fd5b6001600160a01b0384166000908152600e6020908152604080832033845290915281208054839081106113f657fe5b600091825260209091206002909102018054909150436001600160801b0390911611156114545760405162461bcd60e51b8152600401808060200182810382526029815260200180611c206029913960400191505060405180910390fd5b6001818101805460ff1916821790556001600160a01b0386166000818152600f602090815260408083203380855290835281842080549096019095558554938352600882528083209483529390529190912054600160801b9091046001600160801b0316906114c39082611861565b6001600160a01b038716600081815260086020908152604080832033845282528083209490945591815260099091522054611504908263ffffffff61186116565b6001600160a01b038716600090815260096020908152604080832093909355338252600a9052205461153c908263ffffffff61186116565b336000818152600a60209081526040808320949094556001600160a01b038a168252600b815283822092825291909152205461157e908263ffffffff6117a716565b6001600160a01b0387166000818152600b60209081526040808320338452825280832094909455918152600c90915220546115bf908263ffffffff6117a716565b6001600160a01b0387166000908152600c6020908152604080832093909355338252600d905220546115f7908263ffffffff6117a716565b336000908152600d6020526040902055841561169b576002546040805163e3b99e8560e01b81523360048201526024810184905290516001600160a01b039092169163e3b99e85916044808201926020929091908290030181600087803b15801561166157600080fd5b505af1158015611675573d6000803e3d6000fd5b505050506040513d602081101561168b57600080fd5b505161169657600080fd5b6116b8565b6002546116b8906001600160a01b0316338363ffffffff6118a316565b604080513381526020810183905281516001600160a01b038916927fcd1fce47d5ad89dd70b04c75bd6bdb8114d4d4ff7b4393f9fb5937e733ba9582928290030190a250600195945050505050565b6001600160a01b03811661174c5760405162461bcd60e51b8152600401808060200182810382526026815260200180611b836026913960400191505060405180910390fd5b600080546040516001600160a01b03808516939216917f8be0079c531659141344cd1fd0a4f28419497f9722a3daafe3b4186f6b6457e091a3600080546001600160a01b0319166001600160a01b0392909216919091179055565b600082820183811015610d09576040805162461bcd60e51b815260206004820152601b60248201527f536166654d6174683a206164646974696f6e206f766572666c6f770000000000604482015290519081900360640190fd5b604080516001600160a01b0385811660248301528416604482015260648082018490528251808303909101815260849091019091526020810180516001600160e01b03166323b872dd60e01b17905261185b9085906118fa565b50505050565b6000610d0983836040518060400160405280601e81526020017f536166654d6174683a207375627472616374696f6e206f766572666c6f770000815250611ab2565b604080516001600160a01b038416602482015260448082018490528251808303909101815260649091019091526020810180516001600160e01b031663a9059cbb60e01b1790526118f59084906118fa565b505050565b61190c826001600160a01b0316611b49565b61195d576040805162461bcd60e51b815260206004820152601f60248201527f5361666545524332303a2063616c6c20746f206e6f6e2d636f6e747261637400604482015290519081900360640190fd5b60006060836001600160a01b0316836040518082805190602001908083835b6020831061199b5780518252601f19909201916020918201910161197c565b6001836020036101000a0380198251168184511680821785525050505050509050019150506000604051808303816000865af19150503d80600081146119fd576040519150601f19603f3d011682016040523d82523d6000602084013e611a02565b606091505b509150915081611a59576040805162461bcd60e51b815260206004820181905260248201527f5361666545524332303a206c6f772d6c6576656c2063616c6c206661696c6564604482015290519081900360640190fd5b80511561185b57808060200190516020811015611a7557600080fd5b505161185b5760405162461bcd60e51b815260040180806020018281038252602a815260200180611c7a602a913960400191505060405180910390fd5b60008184841115611b415760405162461bcd60e51b81526004018080602001828103825283818151815260200191508051906020019080838360005b83811015611b06578181015183820152602001611aee565b50505050905090810190601f168015611b335780820380516001836020036101000a031916815260200191505b509250505060405180910390fd5b505050900390565b6000813f7fc5d2460186f7233c927e7db2dcc703c0e500b653ca82273b7bfad8045d85a47081811480159061099d57505015159291505056fe4f776e61626c653a206e6577206f776e657220697320746865207a65726f20616464726573736f6e417070726f766528616464726573732c616464726573732c75696e743235362c6279746573294465706f7369744d616e616765723a20536569674d616e6167657220697320616c7265616479207365744465706f7369744d616e616765723a206e6f207265717565737420746f2070726f636573734465706f7369744d616e616765723a207761697420666f72207769746864726177616c2064656c61794465706f7369744d616e616765723a206f6e6c79206163636570742057544f4e20617070726f76652063616c6c6261636b5361666545524332303a204552433230206f7065726174696f6e20646964206e6f742073756363656564a265627a7a723158206873ff63892c7bc5159bb8648da9889bfb1e100e1141b39824a778d7298d19d064736f6c634300050c00326f6e417070726f766528616464726573732c616464726573732c75696e743235362c627974657329",
  "source": "pragma solidity ^0.5.12;\n\nimport { Ownable } from \"../../../node_modules/openzeppelin-solidity/contracts/ownership/OWnable.sol\";\nimport { SafeMath } from \"../../../node_modules/openzeppelin-solidity/contracts/math/SafeMath.sol\";\nimport { IERC20 } from \"../../../node_modules/openzeppelin-solidity/contracts/token/ERC20/IERC20.sol\";\nimport { SafeERC20 } from \"../../../node_modules/openzeppelin-solidity/contracts/token/ERC20/SafeERC20.sol\";\nimport { ERC165 } from \"../../../node_modules/openzeppelin-solidity/contracts/introspection/ERC165.sol\";\n\nimport { RootChainI } from \"../../RootChainI.sol\";\n\nimport { DepositManagerI } from \"../interfaces/DepositManagerI.sol\";\nimport { RootChainRegistryI } from \"../interfaces/RootChainRegistryI.sol\";\nimport { SeigManagerI } from \"../interfaces/SeigManagerI.sol\";\nimport { WTON } from \"../tokens/WTON.sol\";\nimport { OnApprove } from \"../tokens/OnApprove.sol\";\n\n// TODO: add events\n// TODO: check deposit/withdraw WTON amount (1e27)\n\n/**\n * @dev DepositManager manages WTON deposit and withdrawal from operator and WTON holders.\n */\ncontract DepositManager is Ownable, ERC165, OnApprove {\n  using SafeMath for uint256;\n  using SafeERC20 for WTON;\n\n  ////////////////////\n  // Storage - contracts\n  ////////////////////\n\n  WTON internal _wton;\n  RootChainRegistryI internal _registry;\n  SeigManagerI internal _seigManager;\n\n  ////////////////////\n  // Storage - token amount\n  ////////////////////\n\n  // accumulated staked amount\n  // rootchian => msg.sender => wton amount\n  mapping (address => mapping (address => uint256)) internal _accStaked;\n  // rootchian => wton amount\n  mapping (address => uint256) internal _accStakedRootChain;\n  // msg.sender => wton amount\n  mapping (address => uint256) internal _accStakedAccount;\n\n  // pending unstaked amount\n  // rootchian => msg.sender => wton amount\n  mapping (address => mapping (address => uint256)) internal _pendingUnstaked;\n  // rootchian => wton amount\n  mapping (address => uint256) internal _pendingUnstakedRootChain;\n  // msg.sender => wton amount\n  mapping (address => uint256) internal _pendingUnstakedAccount;\n\n  // accumulated unstaked amount\n  // rootchian => msg.sender => wton amount\n  mapping (address => mapping (address => uint256)) internal _accUnstaked;\n  // rootchian => wton amount\n  mapping (address => uint256) internal _accUnstakedRootChain;\n  // msg.sender => wton amount\n  mapping (address => uint256) internal _accUnstakedAccount;\n\n  // rootchain => msg.sender => withdrawal requests\n  mapping (address => mapping (address => WithdrawalReqeust[])) internal _withdrawalRequests;\n\n  // rootchain => msg.sender => index\n  mapping (address => mapping (address => uint256)) internal _withdrawalRequestIndex;\n\n  ////////////////////\n  // Storage - configuration / ERC165 interfaces\n  ////////////////////\n\n  // withdrawal delay in block number\n  // @TODO: change delay unit to CYCLE?\n  uint256 internal _WITHDRAWAL_DELAY;\n\n  struct WithdrawalReqeust {\n    uint128 withdrawableBlockNumber;\n    uint128 amount;\n    bool processed;\n  }\n\n  ////////////////////\n  // Modifiers\n  ////////////////////\n\n  modifier onlyRootChain(address rootchain) {\n    require(_registry.rootchains(rootchain));\n    _;\n  }\n\n  modifier onlySeigManager() {\n    require(msg.sender == address(_seigManager));\n    _;\n  }\n\n  ////////////////////\n  // Events\n  ////////////////////\n\n  event Deposited(address indexed rootchain, address depositor, uint256 amount);\n  event WithdrawalRequested(address indexed rootchain, address depositor, uint256 amount);\n  event WithdrawalProcessed(address indexed rootchain, address depositor, uint256 amount);\n\n  ////////////////////\n  // Constructor\n  ////////////////////\n\n  constructor (\n    WTON wton,\n    RootChainRegistryI registry,\n    uint256 WITHDRAWAL_DELAY\n  ) public {\n    _wton = wton;\n    _registry = registry;\n    _WITHDRAWAL_DELAY = WITHDRAWAL_DELAY;\n  }\n\n  ////////////////////\n  // SeiManager function\n  ////////////////////\n\n  function setSeigManager(SeigManagerI seigManager) external onlyOwner {\n    require(address(_seigManager) == address(0), \"DepositManager: SeigManager is already set\");\n    _seigManager = seigManager;\n  }\n\n  ////////////////////\n  // ERC20 Approve callback\n  ////////////////////\n\n  function onApprove(\n    address owner,\n    address spender,\n    uint256 amount,\n    bytes calldata data\n  ) external returns (bool) {\n    require(msg.sender == address(_wton), \"DepositManager: only accept WTON approve callback\");\n\n    address rootchain = _decodeDepositManagerOnApproveData(data);\n    require(_deposit(rootchain, owner, amount));\n  }\n\n  function _decodeDepositManagerOnApproveData(\n    bytes memory data\n  ) internal pure returns (address rootchain) {\n    require(data.length == 0x20);\n\n    assembly {\n      rootchain := mload(add(data, 0x20))\n    }\n  }\n\n  ////////////////////\n  // Deposit function\n  ////////////////////\n\n  /**\n   * @dev deposit `amount` WTON in RAY\n   */\n\n  function deposit(address rootchain, uint256 amount) external returns (bool) {\n    require(_deposit(rootchain, msg.sender, amount));\n  }\n\n  function _deposit(address rootchain, address account, uint256 amount) internal onlyRootChain(rootchain) returns (bool) {\n    _accStaked[rootchain][account] = _accStaked[rootchain][account].add(amount);\n    _accStakedRootChain[rootchain] = _accStakedRootChain[rootchain].add(amount);\n    _accStakedAccount[account] = _accStakedAccount[account].add(amount);\n\n    _wton.safeTransferFrom(account, address(this), amount);\n\n    emit Deposited(rootchain, account, amount);\n\n    require(_seigManager.onDeposit(rootchain, account, amount));\n\n    return true;\n  }\n\n  ////////////////////\n  // Withdrawal functions\n  ////////////////////\n\n  function requestWithdrawal(address rootchain, uint256 amount) external returns (bool) {\n    return _requestWithdrawal(rootchain, amount);\n  }\n\n  function _requestWithdrawal(address rootchain, uint256 amount) internal onlyRootChain(rootchain) returns (bool) {\n    // TODO: check `amount` WTON can be withdrawable\n\n    _withdrawalRequests[rootchain][msg.sender].push(WithdrawalReqeust({\n      withdrawableBlockNumber: uint128(block.number + _WITHDRAWAL_DELAY),\n      amount: uint128(amount),\n      processed: false\n    }));\n\n    _pendingUnstaked[rootchain][msg.sender] = _pendingUnstaked[rootchain][msg.sender].add(amount);\n    _pendingUnstakedRootChain[rootchain] = _pendingUnstakedRootChain[rootchain].add(amount);\n    _pendingUnstakedAccount[msg.sender] = _pendingUnstakedAccount[msg.sender].add(amount);\n\n    emit WithdrawalRequested(rootchain, msg.sender, amount);\n\n    require(_seigManager.onWithdraw(rootchain, msg.sender, amount));\n\n    return true;\n  }\n\n  function processRequest(address rootchain, bool receiveTON) external returns (bool) {\n    return _processRequest(rootchain, receiveTON);\n  }\n\n  function _processRequest(address rootchain, bool receiveTON) internal returns (bool) {\n    uint256 index = _withdrawalRequestIndex[rootchain][msg.sender];\n    require(_withdrawalRequests[rootchain][msg.sender].length > index, \"DepositManager: no request to process\");\n\n    WithdrawalReqeust storage r = _withdrawalRequests[rootchain][msg.sender][index];\n\n    require(r.withdrawableBlockNumber <= block.number, \"DepositManager: wait for withdrawal delay\");\n    r.processed = true;\n\n    _withdrawalRequestIndex[rootchain][msg.sender] += 1;\n\n    uint256 amount = r.amount;\n\n    _pendingUnstaked[rootchain][msg.sender] = _pendingUnstaked[rootchain][msg.sender].sub(amount);\n    _pendingUnstakedRootChain[rootchain] = _pendingUnstakedRootChain[rootchain].sub(amount);\n    _pendingUnstakedAccount[msg.sender] = _pendingUnstakedAccount[msg.sender].sub(amount);\n\n    _accUnstaked[rootchain][msg.sender] = _accUnstaked[rootchain][msg.sender].add(amount);\n    _accUnstakedRootChain[rootchain] = _accUnstakedRootChain[rootchain].add(amount);\n    _accUnstakedAccount[msg.sender] = _accUnstakedAccount[msg.sender].add(amount);\n\n    if (receiveTON) {\n      require(_wton.swapToTONAndTransfer(msg.sender, amount));\n    } else {\n      _wton.safeTransfer(msg.sender, amount);\n    }\n\n    emit WithdrawalProcessed(rootchain, msg.sender, amount);\n    return true;\n  }\n\n  function requestWithdrawalAll(address rootchain) external onlyRootChain(rootchain) returns (bool) {\n    uint256 amount = _seigManager.stakeOf(rootchain, msg.sender);\n\n    return _requestWithdrawal(rootchain, amount);\n  }\n\n  function processRequests(address rootchain, uint256 n, bool receiveTON) external returns (bool) {\n    for (uint256 i = 0; i < n; i++) {\n      require(_processRequest(rootchain, receiveTON));\n    }\n    return true;\n  }\n\n  function numRequests(address rootchain, address account) external view returns (uint256) {\n    return _withdrawalRequests[rootchain][account].length;\n  }\n\n  function numPendingRequests(address rootchain, address account) external view returns (uint256) {\n    uint256 numRequests = _withdrawalRequests[rootchain][account].length;\n    uint256 index = _withdrawalRequestIndex[rootchain][account];\n\n    if (numRequests == 0) return 0;\n\n    return numRequests - index;\n  }\n\n  function _isOperator(address rootchain, address operator) internal view returns (bool) {\n    return operator == RootChainI(rootchain).operator();\n  }\n\n\n  ////////////////////\n  // Storage getters\n  ////////////////////\n\n  function wton() external view returns (WTON) { return _wton; }\n  function registry() external view returns (RootChainRegistryI) { return _registry; }\n  function seigManager() external view returns (SeigManagerI) { return _seigManager; }\n\n  function accStaked(address rootchain, address account) external view returns (uint256 wtonAmount) { return _accStaked[rootchain][account]; }\n  function accStakedRootChain(address rootchain) external view returns (uint256 wtonAmount) { return _accStakedRootChain[rootchain]; }\n  function accStakedAccount(address account) external view returns (uint256 wtonAmount) { return _accStakedAccount[account]; }\n\n  function pendingUnstaked(address rootchain, address account) external view returns (uint256 wtonAmount) { return _pendingUnstaked[rootchain][account]; }\n  function pendingUnstakedRootChain(address rootchain) external view returns (uint256 wtonAmount) { return _pendingUnstakedRootChain[rootchain]; }\n  function pendingUnstakedAccount(address account) external view returns (uint256 wtonAmount) { return _pendingUnstakedAccount[account]; }\n\n  function accUnstaked(address rootchain, address account) external view returns (uint256 wtonAmount) { return _accUnstaked[rootchain][account]; }\n  function accUnstakedRootChain(address rootchain) external view returns (uint256 wtonAmount) { return _accUnstakedRootChain[rootchain]; }\n  function accUnstakedAccount(address account) external view returns (uint256 wtonAmount) { return _accUnstakedAccount[account]; }\n\n  function withdrawalRequestIndex(address rootchain, address account) external view returns (uint256 index) { return _withdrawalRequestIndex[rootchain][account]; }\n  function withdrawalRequest(address rootchain, address account, uint256 index) external view returns (uint128 withdrawableBlockNumber, uint128 amount, bool processed ) {\n    withdrawableBlockNumber = _withdrawalRequests[rootchain][account][index].withdrawableBlockNumber;\n    amount = _withdrawalRequests[rootchain][account][index].amount;\n    processed = _withdrawalRequests[rootchain][account][index].processed;\n  }\n\n  function WITHDRAWAL_DELAY() external view returns (uint256) { return _WITHDRAWAL_DELAY; }\n}",
  "sourcePath": "/Users/pjh/workspace/plasma-evm-contracts/contracts/stake/managers/DepositManager.sol",
  "compiler": {
    "name": "solc",
    "version": "0.5.12+commit.7709ece9.Emscripten.clang"
  },
  "schemaVersion": "3.0.23",
  "updatedAt": "2020-04-03T08:24:39.649Z",
  "devdoc": {
    "details": "DepositManager manages WTON deposit and withdrawal from operator and WTON holders.",
    "methods": {
      "deposit(address,uint256)": {
        "details": "deposit `amount` WTON in RAY"
      },
      "isOwner()": {
        "details": "Returns true if the caller is the current owner."
      },
      "owner()": {
        "details": "Returns the address of the current owner."
      },
      "renounceOwnership()": {
        "details": "Leaves the contract without owner. It will not be possible to call `onlyOwner` functions anymore. Can only be called by the current owner.     * NOTE: Renouncing ownership will leave the contract without an owner, thereby removing any functionality that is only available to the owner."
      },
      "supportsInterface(bytes4)": {
        "details": "See {IERC165-supportsInterface}.     * Time complexity O(1), guaranteed to always use less than 30 000 gas."
      },
      "transferOwnership(address)": {
        "details": "Transfers ownership of the contract to a new account (`newOwner`). Can only be called by the current owner."
      }
    }
  },
  "userdoc": {
    "methods": {
      "constructor": "/////////////////",
      "onApprove(address,address,uint256,bytes)": {
        "notice": "/////////////////"
      },
      "requestWithdrawal(address,uint256)": {
        "notice": "/////////////////"
      },
      "setSeigManager(address)": {
        "notice": "/////////////////"
      },
      "wton()": {
        "notice": "/////////////////"
      }
    }
  }
}