{
  "contractName": "ERC20OnApprove",
  "abi": [
    {
      "anonymous": false,
      "inputs": [
        {
          "indexed": true,
          "internalType": "address",
          "name": "owner",
          "type": "address"
        },
        {
          "indexed": true,
          "internalType": "address",
          "name": "spender",
          "type": "address"
        },
        {
          "indexed": false,
          "internalType": "uint256",
          "name": "value",
          "type": "uint256"
        }
      ],
      "name": "Approval",
      "type": "event"
    },
    {
      "anonymous": false,
      "inputs": [
        {
          "indexed": true,
          "internalType": "address",
          "name": "from",
          "type": "address"
        },
        {
          "indexed": true,
          "internalType": "address",
          "name": "to",
          "type": "address"
        },
        {
          "indexed": false,
          "internalType": "uint256",
          "name": "value",
          "type": "uint256"
        }
      ],
      "name": "Transfer",
      "type": "event"
    },
    {
      "constant": true,
      "inputs": [],
      "name": "INTERFACE_ID_ON_APPROVE",
      "outputs": [
        {
          "internalType": "bytes4",
          "name": "",
          "type": "bytes4"
        }
      ],
      "payable": false,
      "stateMutability": "view",
      "type": "function"
    },
    {
      "constant": true,
      "inputs": [
        {
          "internalType": "address",
          "name": "owner",
          "type": "address"
        },
        {
          "internalType": "address",
          "name": "spender",
          "type": "address"
        }
      ],
      "name": "allowance",
      "outputs": [
        {
          "internalType": "uint256",
          "name": "",
          "type": "uint256"
        }
      ],
      "payable": false,
      "stateMutability": "view",
      "type": "function"
    },
    {
      "constant": false,
      "inputs": [
        {
          "internalType": "address",
          "name": "spender",
          "type": "address"
        },
        {
          "internalType": "uint256",
          "name": "amount",
          "type": "uint256"
        }
      ],
      "name": "approve",
      "outputs": [
        {
          "internalType": "bool",
          "name": "",
          "type": "bool"
        }
      ],
      "payable": false,
      "stateMutability": "nonpayable",
      "type": "function"
    },
    {
      "constant": true,
      "inputs": [
        {
          "internalType": "address",
          "name": "account",
          "type": "address"
        }
      ],
      "name": "balanceOf",
      "outputs": [
        {
          "internalType": "uint256",
          "name": "",
          "type": "uint256"
        }
      ],
      "payable": false,
      "stateMutability": "view",
      "type": "function"
    },
    {
      "constant": false,
      "inputs": [
        {
          "internalType": "address",
          "name": "spender",
          "type": "address"
        },
        {
          "internalType": "uint256",
          "name": "subtractedValue",
          "type": "uint256"
        }
      ],
      "name": "decreaseAllowance",
      "outputs": [
        {
          "internalType": "bool",
          "name": "",
          "type": "bool"
        }
      ],
      "payable": false,
      "stateMutability": "nonpayable",
      "type": "function"
    },
    {
      "constant": false,
      "inputs": [
        {
          "internalType": "address",
          "name": "spender",
          "type": "address"
        },
        {
          "internalType": "uint256",
          "name": "addedValue",
          "type": "uint256"
        }
      ],
      "name": "increaseAllowance",
      "outputs": [
        {
          "internalType": "bool",
          "name": "",
          "type": "bool"
        }
      ],
      "payable": false,
      "stateMutability": "nonpayable",
      "type": "function"
    },
    {
      "constant": true,
      "inputs": [],
      "name": "totalSupply",
      "outputs": [
        {
          "internalType": "uint256",
          "name": "",
          "type": "uint256"
        }
      ],
      "payable": false,
      "stateMutability": "view",
      "type": "function"
    },
    {
      "constant": false,
      "inputs": [
        {
          "internalType": "address",
          "name": "recipient",
          "type": "address"
        },
        {
          "internalType": "uint256",
          "name": "amount",
          "type": "uint256"
        }
      ],
      "name": "transfer",
      "outputs": [
        {
          "internalType": "bool",
          "name": "",
          "type": "bool"
        }
      ],
      "payable": false,
      "stateMutability": "nonpayable",
      "type": "function"
    },
    {
      "constant": false,
      "inputs": [
        {
          "internalType": "address",
          "name": "sender",
          "type": "address"
        },
        {
          "internalType": "address",
          "name": "recipient",
          "type": "address"
        },
        {
          "internalType": "uint256",
          "name": "amount",
          "type": "uint256"
        }
      ],
      "name": "transferFrom",
      "outputs": [
        {
          "internalType": "bool",
          "name": "",
          "type": "bool"
        }
      ],
      "payable": false,
      "stateMutability": "nonpayable",
      "type": "function"
    },
    {
      "constant": false,
      "inputs": [
        {
          "internalType": "address",
          "name": "spender",
          "type": "address"
        },
        {
          "internalType": "uint256",
          "name": "amount",
          "type": "uint256"
        },
        {
          "internalType": "bytes",
          "name": "data",
          "type": "bytes"
        }
      ],
      "name": "approveAndCall",
      "outputs": [
        {
          "internalType": "bool",
          "name": "",
          "type": "bool"
        }
      ],
      "payable": false,
      "stateMutability": "nonpayable",
      "type": "function"
    }
  ],
  "bytecode": "0x6080604052610dc0806100136000396000f3fe608060405234801561001057600080fd5b506004361061009e5760003560e01c806370a082311161006657806370a0823114610184578063a457c2d7146101aa578063a9059cbb146101d6578063cae9ca5114610202578063dd62ed3e146102bd5761009e565b8063095ea7b3146100a357806318160ddd146100e357806323b872dd146100fd57806339509351146101335780636cd28f9a1461015f575b600080fd5b6100cf600480360360408110156100b957600080fd5b506001600160a01b0381351690602001356102eb565b604080519115158252519081900360200190f35b6100eb610308565b60408051918252519081900360200190f35b6100cf6004803603606081101561011357600080fd5b506001600160a01b0381358116916020810135909116906040013561030e565b6100cf6004803603604081101561014957600080fd5b506001600160a01b03813516906020013561039c565b6101676103f0565b604080516001600160e01b03199092168252519081900360200190f35b6100eb6004803603602081101561019a57600080fd5b50356001600160a01b031661040b565b6100cf600480360360408110156101c057600080fd5b506001600160a01b038135169060200135610426565b6100cf600480360360408110156101ec57600080fd5b506001600160a01b038135169060200135610494565b6100cf6004803603606081101561021857600080fd5b6001600160a01b038235169160208101359181019060608101604082013564010000000081111561024857600080fd5b82018360208201111561025a57600080fd5b8035906020019184600183028401116401000000008311171561027c57600080fd5b91908080601f0160208091040260200160405190810160405280939291908181526020018383808284376000920191909152509295506104a8945050505050565b6100eb600480360360408110156102d357600080fd5b506001600160a01b03813581169160200135166104c9565b60006102ff6102f86104f4565b84846104f8565b50600192915050565b60025490565b600061031b8484846105e4565b610391846103276104f4565b61038c85604051806060016040528060288152602001610cf6602891396001600160a01b038a166000908152600160205260408120906103656104f4565b6001600160a01b03168152602081019190915260400160002054919063ffffffff61074016565b6104f8565b5060015b9392505050565b60006102ff6103a96104f4565b8461038c85600160006103ba6104f4565b6001600160a01b03908116825260208083019390935260409182016000908120918c16815292529020549063ffffffff6107d716565b604051806028610cce82396028019050604051809103902081565b6001600160a01b031660009081526020819052604090205490565b60006102ff6104336104f4565b8461038c85604051806060016040528060258152602001610d67602591396001600061045d6104f4565b6001600160a01b03908116825260208083019390935260409182016000908120918d1681529252902054919063ffffffff61074016565b60006102ff6104a16104f4565b84846105e4565b60006104b484846102eb565b6104bd57600080fd5b61039533858585610831565b6001600160a01b03918216600090815260016020908152604080832093909416825291909152205490565b3390565b6001600160a01b03831661053d5760405162461bcd60e51b8152600401808060200182810382526024815260200180610d436024913960400191505060405180910390fd5b6001600160a01b0382166105825760405162461bcd60e51b8152600401808060200182810382526022815260200180610c556022913960400191505060405180910390fd5b6001600160a01b03808416600081815260016020908152604080832094871680845294825291829020859055815185815291517f8c5be1e5ebec7d5bd14f71427d1e84f3dd0314c0f7b2291e5b200ac8c7c3b9259281900390910190a3505050565b6001600160a01b0383166106295760405162461bcd60e51b8152600401808060200182810382526025815260200180610d1e6025913960400191505060405180910390fd5b6001600160a01b03821661066e5760405162461bcd60e51b8152600401808060200182810382526023815260200180610c326023913960400191505060405180910390fd5b6106b181604051806060016040528060268152602001610ca8602691396001600160a01b038616600090815260208190526040902054919063ffffffff61074016565b6001600160a01b0380851660009081526020819052604080822093909355908416815220546106e6908263ffffffff6107d716565b6001600160a01b038084166000818152602081815260409182902094909455805185815290519193928716927fddf252ad1be2c89b69c2b068fc378daa952ba7f163c4a11628f55a4df523b3ef92918290030190a3505050565b600081848411156107cf5760405162461bcd60e51b81526004018080602001828103825283818151815260200191508051906020019080838360005b8381101561079457818101518382015260200161077c565b50505050905090810190601f1680156107c15780820380516001836020036101000a031916815260200191505b509250505060405180910390fd5b505050900390565b600082820183811015610395576040805162461bcd60e51b815260206004820152601b60248201527f536166654d6174683a206164646974696f6e206f766572666c6f770000000000604482015290519081900360640190fd5b610853836040518080610cce6028913960280190506040518091039020610a87565b61088e5760405162461bcd60e51b8152600401808060200182810382526031815260200180610c776031913960400191505060405180910390fd5b60006060846001600160a01b03166040518080610cce60289139602801905060405180910390208787878760405160240180856001600160a01b03166001600160a01b03168152602001846001600160a01b03166001600160a01b0316815260200183815260200180602001828103825283818151815260200191508051906020019080838360005b8381101561092f578181015183820152602001610917565b50505050905090810190601f16801561095c5780820380516001836020036101000a031916815260200191505b5060408051601f198184030181529181526020820180516001600160e01b03166001600160e01b0319909a16999099178952518151919890975087965094509250829150849050835b602083106109c45780518252601f1990920191602091820191016109a5565b6001836020036101000a0380198251168184511680821785525050505050509050019150506000604051808303816000865af19150503d8060008114610a26576040519150601f19603f3d011682016040523d82523d6000602084013e610a2b565b606091505b5091509150818190610a7e5760405162461bcd60e51b815260206004820181815283516024840152835190928392604490910191908501908083836000831561079457818101518382015260200161077c565b50505050505050565b6000610a9283610aa3565b801561039557506103958383610ad7565b6000610ab6826301ffc9a760e01b610ad7565b8015610ad15750610acf826001600160e01b0319610ad7565b155b92915050565b6000806000610ae68585610afd565b91509150818015610af45750805b95945050505050565b604080516001600160e01b0319831660248083019190915282518083039091018152604490910182526020810180516001600160e01b03166301ffc9a760e01b1781529151815160009384939284926060926001600160a01b038a169261753092879282918083835b60208310610b855780518252601f199092019160209182019101610b66565b6001836020036101000a0380198251168184511680821785525050505050509050019150506000604051808303818686fa925050503d8060008114610be6576040519150601f19603f3d011682016040523d82523d6000602084013e610beb565b606091505b5091509150602081511015610c095760008094509450505050610c2a565b81818060200190516020811015610c1f57600080fd5b505190955093505050505b925092905056fe45524332303a207472616e7366657220746f20746865207a65726f206164647265737345524332303a20617070726f766520746f20746865207a65726f206164647265737345524332304f6e417070726f76653a207370656e64657220646f65736e277420737570706f7274206f6e417070726f766545524332303a207472616e7366657220616d6f756e7420657863656564732062616c616e63656f6e417070726f766528616464726573732c616464726573732c75696e743235362c62797465732945524332303a207472616e7366657220616d6f756e74206578636565647320616c6c6f77616e636545524332303a207472616e736665722066726f6d20746865207a65726f206164647265737345524332303a20617070726f76652066726f6d20746865207a65726f206164647265737345524332303a2064656372656173656420616c6c6f77616e63652062656c6f77207a65726fa265627a7a723158208cb4a8d056b6386008942957e12fdaa661faa77b8f3ea1e8afdcda93523396d464736f6c634300050c0032",
  "source": "pragma solidity ^0.5.12;\n\nimport { ERC20 } from \"../../../node_modules/openzeppelin-solidity/contracts/token/ERC20/ERC20.sol\";\nimport { ERC165Checker } from \"../../../node_modules/openzeppelin-solidity/contracts/introspection/ERC165Checker.sol\";\n\nimport { OnApproveConstant } from \"./OnApproveConstant.sol\";\n\n\ncontract ERC20OnApprove is ERC20, OnApproveConstant {\n  function approveAndCall(address spender, uint256 amount, bytes memory data) public returns (bool) {\n    require(approve(spender, amount));\n    _callOnApprove(msg.sender, spender, amount, data);\n  }\n\n  function _callOnApprove(address owner, address spender, uint256 amount, bytes memory data) internal {\n    require(ERC165Checker._supportsInterface(spender, INTERFACE_ID_ON_APPROVE),\n      \"ERC20OnApprove: spender doesn't support onApprove\");\n\n    (bool ok, bytes memory res) = spender.call(\n      abi.encodeWithSelector(\n        INTERFACE_ID_ON_APPROVE,\n        owner,\n        spender,\n        amount,\n        data\n      )\n    );\n\n    require(ok, string(res));\n    // require(ok, \"ERC20OnApprove: failed to call onApprove\");\n  }\n\n}",
  "sourcePath": "/Users/pjh/workspace/plasma-evm-contracts/contracts/stake/tokens/ERC20OnApprove.sol",
  "compiler": {
    "name": "solc",
    "version": "0.5.12+commit.7709ece9.Emscripten.clang"
  },
  "schemaVersion": "3.0.23",
  "updatedAt": "2020-03-24T05:32:30.355Z",
  "devdoc": {
    "methods": {
      "allowance(address,address)": {
        "details": "See {IERC20-allowance}."
      },
      "approve(address,uint256)": {
        "details": "See {IERC20-approve}.     * Requirements:     * - `spender` cannot be the zero address."
      },
      "balanceOf(address)": {
        "details": "See {IERC20-balanceOf}."
      },
      "decreaseAllowance(address,uint256)": {
        "details": "Atomically decreases the allowance granted to `spender` by the caller.     * This is an alternative to {approve} that can be used as a mitigation for problems described in {IERC20-approve}.     * Emits an {Approval} event indicating the updated allowance.     * Requirements:     * - `spender` cannot be the zero address. - `spender` must have allowance for the caller of at least `subtractedValue`."
      },
      "increaseAllowance(address,uint256)": {
        "details": "Atomically increases the allowance granted to `spender` by the caller.     * This is an alternative to {approve} that can be used as a mitigation for problems described in {IERC20-approve}.     * Emits an {Approval} event indicating the updated allowance.     * Requirements:     * - `spender` cannot be the zero address."
      },
      "totalSupply()": {
        "details": "See {IERC20-totalSupply}."
      },
      "transfer(address,uint256)": {
        "details": "See {IERC20-transfer}.     * Requirements:     * - `recipient` cannot be the zero address. - the caller must have a balance of at least `amount`."
      },
      "transferFrom(address,address,uint256)": {
        "details": "See {IERC20-transferFrom}.     * Emits an {Approval} event indicating the updated allowance. This is not required by the EIP. See the note at the beginning of {ERC20};     * Requirements: - `sender` and `recipient` cannot be the zero address. - `sender` must have a balance of at least `amount`. - the caller must have allowance for `sender`'s tokens of at least `amount`."
      }
    }
  },
  "userdoc": {
    "methods": {}
  }
}