{
  "contractName": "ERC20MultiTransfer",
  "abi": [
    {
      "constant": false,
      "inputs": [
        {
          "internalType": "contract IERC20",
          "name": "token",
          "type": "address"
        },
        {
          "internalType": "address[]",
          "name": "targets",
          "type": "address[]"
        },
        {
          "internalType": "uint256",
          "name": "amount",
          "type": "uint256"
        }
      ],
      "name": "transferFixedAmount",
      "outputs": [],
      "payable": false,
      "stateMutability": "nonpayable",
      "type": "function"
    }
  ],
  "bytecode": "0x608060405234801561001057600080fd5b50610432806100206000396000f3fe608060405234801561001057600080fd5b506004361061002b5760003560e01c8063326916e314610030575b600080fd5b6100b06004803603606081101561004657600080fd5b6001600160a01b03823516919081019060408101602082013564010000000081111561007157600080fd5b82018360208201111561008357600080fd5b803590602001918460208302840111640100000000831117156100a557600080fd5b9193509150356100b2565b005b6100cf6001600160a01b038516333084860263ffffffff61012816565b60005b828110156101215760008484838181106100e857fe5b905060200201356001600160a01b031690506101188184886001600160a01b03166101889092919063ffffffff16565b506001016100d2565b5050505050565b604080516001600160a01b0385811660248301528416604482015260648082018490528251808303909101815260849091019091526020810180516001600160e01b03166323b872dd60e01b1790526101829085906101df565b50505050565b604080516001600160a01b038416602482015260448082018490528251808303909101815260649091019091526020810180516001600160e01b031663a9059cbb60e01b1790526101da9084906101df565b505050565b6101f1826001600160a01b0316610397565b610242576040805162461bcd60e51b815260206004820152601f60248201527f5361666545524332303a2063616c6c20746f206e6f6e2d636f6e747261637400604482015290519081900360640190fd5b60006060836001600160a01b0316836040518082805190602001908083835b602083106102805780518252601f199092019160209182019101610261565b6001836020036101000a0380198251168184511680821785525050505050509050019150506000604051808303816000865af19150503d80600081146102e2576040519150601f19603f3d011682016040523d82523d6000602084013e6102e7565b606091505b50915091508161033e576040805162461bcd60e51b815260206004820181905260248201527f5361666545524332303a206c6f772d6c6576656c2063616c6c206661696c6564604482015290519081900360640190fd5b8051156101825780806020019051602081101561035a57600080fd5b50516101825760405162461bcd60e51b815260040180806020018281038252602a8152602001806103d4602a913960400191505060405180910390fd5b6000813f7fc5d2460186f7233c927e7db2dcc703c0e500b653ca82273b7bfad8045d85a4708181148015906103cb57508115155b94935050505056fe5361666545524332303a204552433230206f7065726174696f6e20646964206e6f742073756363656564a265627a7a723158202d5c17580b62019b9e106bb4cbbaab8a5675408d24439e891487ff4579ae2af464736f6c634300050c0032",
  "source": "pragma solidity ^0.5.12;\n\nimport { Ownable } from \"../../../node_modules/openzeppelin-solidity/contracts/ownership/OWnable.sol\";\nimport { IERC20 } from \"../../../node_modules/openzeppelin-solidity/contracts/token/ERC20/IERC20.sol\";\nimport { SafeERC20 } from \"../../../node_modules/openzeppelin-solidity/contracts/token/ERC20/SafeERC20.sol\";\n\n\ncontract ERC20MultiTransfer {\n  using SafeERC20 for IERC20;\n\n  function transferFixedAmount(\n    IERC20 token,\n    address[] calldata targets,\n    uint256 amount\n  ) external {\n    token.safeTransferFrom(msg.sender, address(this), amount * targets.length);\n\n    for (uint256 i = 0; i < targets.length; i++) {\n      address target = targets[i];\n      token.safeTransfer(target, amount);\n    }\n  }\n}",
  "sourcePath": "/Users/pjh/workspace/plasma-evm-contracts/contracts/stake/tokens/ERC20MultiTransfer.sol",
  "compiler": {
    "name": "solc",
    "version": "0.5.12+commit.7709ece9.Emscripten.clang"
  },
  "schemaVersion": "3.0.23",
  "updatedAt": "2020-04-03T08:24:39.716Z",
  "devdoc": {
    "methods": {}
  },
  "userdoc": {
    "methods": {}
  }
}