{
  "contractName": "EtherToken",
  "abi": [
    {
      "inputs": [
        {
          "internalType": "bool",
          "name": "_development",
          "type": "bool"
        },
        {
          "internalType": "contract ERC20",
          "name": "_token",
          "type": "address"
        },
        {
          "internalType": "bool",
          "name": "_swapEnabled",
          "type": "bool"
        }
      ],
      "payable": false,
      "stateMutability": "nonpayable",
      "type": "constructor"
    },
    {
      "anonymous": false,
      "inputs": [
        {
          "indexed": true,
          "internalType": "address",
          "name": "owner",
          "type": "address"
        },
        {
          "indexed": true,
          "internalType": "address",
          "name": "spender",
          "type": "address"
        },
        {
          "indexed": false,
          "internalType": "uint256",
          "name": "value",
          "type": "uint256"
        }
      ],
      "name": "Approval",
      "type": "event"
    },
    {
      "anonymous": false,
      "inputs": [
        {
          "indexed": false,
          "internalType": "address",
          "name": "_from",
          "type": "address"
        },
        {
          "indexed": false,
          "internalType": "uint256",
          "name": "_value",
          "type": "uint256"
        }
      ],
      "name": "Depositted",
      "type": "event"
    },
    {
      "anonymous": false,
      "inputs": [
        {
          "indexed": false,
          "internalType": "bool",
          "name": "_isExit",
          "type": "bool"
        },
        {
          "indexed": false,
          "internalType": "address",
          "name": "_requestor",
          "type": "address"
        },
        {
          "indexed": false,
          "internalType": "bytes32",
          "name": "_trieKey",
          "type": "bytes32"
        },
        {
          "indexed": false,
          "internalType": "uint256",
          "name": "_value",
          "type": "uint256"
        }
      ],
      "name": "RequestCreated",
      "type": "event"
    },
    {
      "anonymous": false,
      "inputs": [
        {
          "indexed": true,
          "internalType": "address",
          "name": "from",
          "type": "address"
        },
        {
          "indexed": true,
          "internalType": "address",
          "name": "to",
          "type": "address"
        },
        {
          "indexed": false,
          "internalType": "uint256",
          "name": "value",
          "type": "uint256"
        }
      ],
      "name": "Transfer",
      "type": "event"
    },
    {
      "anonymous": false,
      "inputs": [
        {
          "indexed": false,
          "internalType": "address",
          "name": "_from",
          "type": "address"
        },
        {
          "indexed": false,
          "internalType": "uint256",
          "name": "_value",
          "type": "uint256"
        }
      ],
      "name": "Withdrawn",
      "type": "event"
    },
    {
      "payable": true,
      "stateMutability": "payable",
      "type": "fallback"
    },
    {
      "constant": true,
      "inputs": [
        {
          "internalType": "address",
          "name": "_owner",
          "type": "address"
        },
        {
          "internalType": "address",
          "name": "_spender",
          "type": "address"
        }
      ],
      "name": "allowance",
      "outputs": [
        {
          "internalType": "uint256",
          "name": "",
          "type": "uint256"
        }
      ],
      "payable": false,
      "stateMutability": "view",
      "type": "function"
    },
    {
      "constant": false,
      "inputs": [
        {
          "internalType": "bool",
          "name": "isExit",
          "type": "bool"
        },
        {
          "internalType": "uint256",
          "name": "requestId",
          "type": "uint256"
        },
        {
          "internalType": "address",
          "name": "requestor",
          "type": "address"
        },
        {
          "internalType": "bytes32",
          "name": "trieKey",
          "type": "bytes32"
        },
        {
          "internalType": "bytes",
          "name": "trieValue",
          "type": "bytes"
        }
      ],
      "name": "applyRequestInChildChain",
      "outputs": [
        {
          "internalType": "bool",
          "name": "success",
          "type": "bool"
        }
      ],
      "payable": false,
      "stateMutability": "nonpayable",
      "type": "function"
    },
    {
      "constant": false,
      "inputs": [
        {
          "internalType": "bool",
          "name": "isExit",
          "type": "bool"
        },
        {
          "internalType": "uint256",
          "name": "requestId",
          "type": "uint256"
        },
        {
          "internalType": "address",
          "name": "requestor",
          "type": "address"
        },
        {
          "internalType": "bytes32",
          "name": "trieKey",
          "type": "bytes32"
        },
        {
          "internalType": "bytes",
          "name": "trieValue",
          "type": "bytes"
        }
      ],
      "name": "applyRequestInRootChain",
      "outputs": [
        {
          "internalType": "bool",
          "name": "success",
          "type": "bool"
        }
      ],
      "payable": false,
      "stateMutability": "nonpayable",
      "type": "function"
    },
    {
      "constant": false,
      "inputs": [
        {
          "internalType": "address",
          "name": "_spender",
          "type": "address"
        },
        {
          "internalType": "uint256",
          "name": "_value",
          "type": "uint256"
        }
      ],
      "name": "approve",
      "outputs": [
        {
          "internalType": "bool",
          "name": "",
          "type": "bool"
        }
      ],
      "payable": false,
      "stateMutability": "nonpayable",
      "type": "function"
    },
    {
      "constant": true,
      "inputs": [
        {
          "internalType": "address",
          "name": "_owner",
          "type": "address"
        }
      ],
      "name": "balanceOf",
      "outputs": [
        {
          "internalType": "uint256",
          "name": "",
          "type": "uint256"
        }
      ],
      "payable": false,
      "stateMutability": "view",
      "type": "function"
    },
    {
      "constant": true,
      "inputs": [
        {
          "internalType": "bytes",
          "name": "trieValue",
          "type": "bytes"
        }
      ],
      "name": "decodeTrieValue",
      "outputs": [
        {
          "internalType": "uint256",
          "name": "v",
          "type": "uint256"
        }
      ],
      "payable": false,
      "stateMutability": "pure",
      "type": "function"
    },
    {
      "constant": false,
      "inputs": [
        {
          "internalType": "address",
          "name": "_spender",
          "type": "address"
        },
        {
          "internalType": "uint256",
          "name": "_subtractedValue",
          "type": "uint256"
        }
      ],
      "name": "decreaseApproval",
      "outputs": [
        {
          "internalType": "bool",
          "name": "",
          "type": "bool"
        }
      ],
      "payable": false,
      "stateMutability": "nonpayable",
      "type": "function"
    },
    {
      "constant": false,
      "inputs": [
        {
          "internalType": "uint256",
          "name": "_amount",
          "type": "uint256"
        }
      ],
      "name": "deposit",
      "outputs": [
        {
          "internalType": "bool",
          "name": "",
          "type": "bool"
        }
      ],
      "payable": false,
      "stateMutability": "nonpayable",
      "type": "function"
    },
    {
      "constant": true,
      "inputs": [],
      "name": "development",
      "outputs": [
        {
          "internalType": "bool",
          "name": "",
          "type": "bool"
        }
      ],
      "payable": false,
      "stateMutability": "view",
      "type": "function"
    },
    {
      "constant": true,
      "inputs": [
        {
          "internalType": "address",
          "name": "_who",
          "type": "address"
        }
      ],
      "name": "getBalanceTrieKey",
      "outputs": [
        {
          "internalType": "bytes32",
          "name": "",
          "type": "bytes32"
        }
      ],
      "payable": false,
      "stateMutability": "pure",
      "type": "function"
    },
    {
      "constant": false,
      "inputs": [
        {
          "internalType": "address",
          "name": "_spender",
          "type": "address"
        },
        {
          "internalType": "uint256",
          "name": "_addedValue",
          "type": "uint256"
        }
      ],
      "name": "increaseApproval",
      "outputs": [
        {
          "internalType": "bool",
          "name": "",
          "type": "bool"
        }
      ],
      "payable": false,
      "stateMutability": "nonpayable",
      "type": "function"
    },
    {
      "constant": false,
      "inputs": [
        {
          "internalType": "address",
          "name": "_rootchain",
          "type": "address"
        }
      ],
      "name": "init",
      "outputs": [
        {
          "internalType": "bool",
          "name": "",
          "type": "bool"
        }
      ],
      "payable": false,
      "stateMutability": "nonpayable",
      "type": "function"
    },
    {
      "constant": true,
      "inputs": [],
      "name": "initialized",
      "outputs": [
        {
          "internalType": "bool",
          "name": "",
          "type": "bool"
        }
      ],
      "payable": false,
      "stateMutability": "view",
      "type": "function"
    },
    {
      "constant": true,
      "inputs": [],
      "name": "rootchain",
      "outputs": [
        {
          "internalType": "address",
          "name": "",
          "type": "address"
        }
      ],
      "payable": false,
      "stateMutability": "view",
      "type": "function"
    },
    {
      "constant": true,
      "inputs": [],
      "name": "swapEnabled",
      "outputs": [
        {
          "internalType": "bool",
          "name": "",
          "type": "bool"
        }
      ],
      "payable": false,
      "stateMutability": "view",
      "type": "function"
    },
    {
      "constant": true,
      "inputs": [],
      "name": "token",
      "outputs": [
        {
          "internalType": "contract ERC20",
          "name": "",
          "type": "address"
        }
      ],
      "payable": false,
      "stateMutability": "view",
      "type": "function"
    },
    {
      "constant": true,
      "inputs": [],
      "name": "totalSupply",
      "outputs": [
        {
          "internalType": "uint256",
          "name": "",
          "type": "uint256"
        }
      ],
      "payable": false,
      "stateMutability": "view",
      "type": "function"
    },
    {
      "constant": false,
      "inputs": [
        {
          "internalType": "address",
          "name": "_to",
          "type": "address"
        },
        {
          "internalType": "uint256",
          "name": "_value",
          "type": "uint256"
        }
      ],
      "name": "transfer",
      "outputs": [
        {
          "internalType": "bool",
          "name": "",
          "type": "bool"
        }
      ],
      "payable": false,
      "stateMutability": "nonpayable",
      "type": "function"
    },
    {
      "constant": false,
      "inputs": [
        {
          "internalType": "address",
          "name": "_from",
          "type": "address"
        },
        {
          "internalType": "address",
          "name": "_to",
          "type": "address"
        },
        {
          "internalType": "uint256",
          "name": "_value",
          "type": "uint256"
        }
      ],
      "name": "transferFrom",
      "outputs": [
        {
          "internalType": "bool",
          "name": "",
          "type": "bool"
        }
      ],
      "payable": false,
      "stateMutability": "nonpayable",
      "type": "function"
    },
    {
      "constant": false,
      "inputs": [
        {
          "internalType": "uint256",
          "name": "_amount",
          "type": "uint256"
        }
      ],
      "name": "withdraw",
      "outputs": [
        {
          "internalType": "bool",
          "name": "",
          "type": "bool"
        }
      ],
      "payable": false,
      "stateMutability": "nonpayable",
      "type": "function"
    },
    {
      "constant": false,
      "inputs": [],
      "name": "swapFromEth",
      "outputs": [],
      "payable": true,
      "stateMutability": "payable",
      "type": "function"
    },
    {
      "constant": false,
      "inputs": [
        {
          "internalType": "uint256",
          "name": "_amount",
          "type": "uint256"
        }
      ],
      "name": "swapToEth",
      "outputs": [],
      "payable": false,
      "stateMutability": "nonpayable",
      "type": "function"
    }
  ],
  "bytecode": "0x608060405234801561001057600080fd5b506040516113b43803806113b48339818101604052606081101561003357600080fd5b50805160208201516040909201516003805461ff00191661010084151502179055600480546001600160a01b0319166001600160a01b03851690811790915591929115838061009957508080156100875750815b80610099575080158015610099575081155b6100a257600080fd5b5060048054911515740100000000000000000000000000000000000000000260ff60a01b1990921691909117905550506112d3806100e16000396000f3fe6080604052600436106101355760003560e01c80637b929c27116100ab578063b6b55f251161006f578063b6b55f25146104d4578063b9e59d09146104fe578063bcc7874d146105b1578063d73dd623146105e2578063dd62ed3e1461061b578063fc0c546a1461065657610135565b80637b929c2714610389578063a9059cbb1461039e578063a9f79308146103d7578063b06c672914610477578063b18fcfdf146104a157610135565b806323b872dd116100fd57806323b872dd1461029b5780632e1a7d4d146102de57806359310da71461013557806366188463146103085780636ddd17131461034157806370a082311461035657610135565b8063095ea7b31461013f578063141ecf461461018c578063158ef93e1461022c57806318160ddd1461024157806319ab453c14610268575b61013d61066b565b005b34801561014b57600080fd5b506101786004803603604081101561016257600080fd5b506001600160a01b03813516906020013561068d565b604080519115158252519081900360200190f35b34801561019857600080fd5b50610178600480360360a08110156101af57600080fd5b81351515916020810135916001600160a01b036040830135169160608101359181019060a0810160808201356401000000008111156101ed57600080fd5b8201836020820111156101ff57600080fd5b8035906020019184600183028401116401000000008311171561022157600080fd5b5090925090506106f3565b34801561023857600080fd5b506101786107e8565b34801561024d57600080fd5b506102566107f1565b60408051918252519081900360200190f35b34801561027457600080fd5b506101786004803603602081101561028b57600080fd5b50356001600160a01b03166107f7565b3480156102a757600080fd5b50610178600480360360608110156102be57600080fd5b506001600160a01b0381358116916020810135909116906040013561083d565b3480156102ea57600080fd5b506101786004803603602081101561030157600080fd5b503561099e565b34801561031457600080fd5b506101786004803603604081101561032b57600080fd5b506001600160a01b038135169060200135610ab9565b34801561034d57600080fd5b50610178610ba8565b34801561036257600080fd5b506102566004803603602081101561037957600080fd5b50356001600160a01b0316610bb8565b34801561039557600080fd5b50610178610bd3565b3480156103aa57600080fd5b50610178600480360360408110156103c157600080fd5b506001600160a01b038135169060200135610be1565b3480156103e357600080fd5b50610178600480360360a08110156103fa57600080fd5b81351515916020810135916001600160a01b036040830135169160608101359181019060a08101608082013564010000000081111561043857600080fd5b82018360208201111561044a57600080fd5b8035906020019184600183028401116401000000008311171561046c57600080fd5b509092509050610cac565b34801561048357600080fd5b5061013d6004803603602081101561049a57600080fd5b5035610de2565b3480156104ad57600080fd5b50610256600480360360208110156104c457600080fd5b50356001600160a01b0316610e19565b3480156104e057600080fd5b50610178600480360360208110156104f757600080fd5b5035610e5b565b34801561050a57600080fd5b506102566004803603602081101561052157600080fd5b81019060208101813564010000000081111561053c57600080fd5b82018360208201111561054e57600080fd5b8035906020019184600183028401116401000000008311171561057057600080fd5b91908080601f016020809104026020016040519081016040528093929190818152602001838380828437600092019190915250929550610f3f945050505050565b3480156105bd57600080fd5b506105c6610f89565b604080516001600160a01b039092168252519081900360200190f35b3480156105ee57600080fd5b506101786004803603604081101561060557600080fd5b506001600160a01b038135169060200135610f9e565b34801561062757600080fd5b506102566004803603604081101561063e57600080fd5b506001600160a01b0381358116916020013516611037565b34801561066257600080fd5b506105c6611062565b600454600160a01b900460ff1661068157600080fd5b61068b3334611071565b565b3360008181526002602090815260408083206001600160a01b038716808552908352818420869055815186815291519394909390927f8c5be1e5ebec7d5bd14f71427d1e84f3dd0314c0f7b2291e5b200ac8c7c3b925928290030190a350600192915050565b600354600090610100900460ff168061070a575033155b61071357600080fd5b61071c85610e19565b841461072757600080fd5b600061076884848080601f016020809104026020016040519081016040528093929190818152602001838380828437600092019190915250610f3f92505050565b9050871561077f5761077a86826110f4565b610789565b6107898682611071565b6040805189151581526001600160a01b03881660208201528082018790526060810183905290517f4b0c23cd90bac23cdaa0958fbd0306f53e20cd5e65676d21b9ceb109784e15b89181900360800190a1506001979650505050505050565b60035460ff1681565b60015490565b60035460009060ff161561080a57600080fd5b6003805460ff196001600160a01b03909416620100000262010000600160b01b0319909116179290921660011790915590565b6001600160a01b03831660009081526020819052604081205482111561086257600080fd5b6001600160a01b038416600090815260026020908152604080832033845290915290205482111561089257600080fd5b6001600160a01b0383166108a557600080fd5b6001600160a01b0384166000908152602081905260409020546108ce908363ffffffff61117f16565b6001600160a01b038086166000908152602081905260408082209390935590851681522054610903908363ffffffff61119116565b6001600160a01b03808516600090815260208181526040808320949094559187168152600282528281203382529091522054610945908363ffffffff61117f16565b6001600160a01b038086166000818152600260209081526040808320338452825291829020949094558051868152905192871693919260008051602061127f833981519152929181900390910190a35060019392505050565b60035460009060ff166109e25760405162461bcd60e51b815260040180806020018281038252602c815260200180611253602c913960400191505060405180910390fd5b6109ec33836110f4565b604080513381526020810184905281517f7084f5476618d8e60b11ef0d7d3f06914655adb8793e28ff7f018d4c76d505d5929181900390910190a1600480546040805163a9059cbb60e01b8152339381019390935260248301859052516001600160a01b039091169163a9059cbb9160448083019260209291908290030181600087803b158015610a7c57600080fd5b505af1158015610a90573d6000803e3d6000fd5b505050506040513d6020811015610aa657600080fd5b5051610ab157600080fd5b506001919050565b3360009081526002602090815260408083206001600160a01b0386168452909152812054808310610b0d573360009081526002602090815260408083206001600160a01b0388168452909152812055610b42565b610b1d818463ffffffff61117f16565b3360009081526002602090815260408083206001600160a01b03891684529091529020555b3360008181526002602090815260408083206001600160a01b0389168085529083529281902054815190815290519293927f8c5be1e5ebec7d5bd14f71427d1e84f3dd0314c0f7b2291e5b200ac8c7c3b925929181900390910190a35060019392505050565b600454600160a01b900460ff1681565b6001600160a01b031660009081526020819052604090205490565b600354610100900460ff1681565b33600090815260208190526040812054821115610bfd57600080fd5b6001600160a01b038316610c1057600080fd5b33600090815260208190526040902054610c30908363ffffffff61117f16565b33600090815260208190526040808220929092556001600160a01b03851681522054610c62908363ffffffff61119116565b6001600160a01b0384166000818152602081815260409182902093909355805185815290519192339260008051602061127f8339815191529281900390910190a350600192915050565b60035460009060ff16610cf05760405162461bcd60e51b815260040180806020018281038252602c815260200180611253602c913960400191505060405180910390fd5b6003546201000090046001600160a01b03163314610d3f5760405162461bcd60e51b81526004018080602001828103825260348152602001806111a56034913960400191505060405180910390fd5b610d4885610e19565b8414610d855760405162461bcd60e51b81526004018080602001828103825260458152602001806111d96045913960600191505060405180910390fd5b6000610dc684848080601f016020809104026020016040519081016040528093929190818152602001838380828437600092019190915250610f3f92505050565b90508715610dd85761077a8682611071565b61078986826110f4565b600454600160a01b900460ff16610df857600080fd5b610e0333308361083d565b610e0c57600080fd5b610e1633826110f4565b50565b60408051600060208083019190915260609390931b6bffffffffffffffffffffffff191681830152815180820360340181526054909101909152805191012090565b60035460009060ff16610e9f5760405162461bcd60e51b815260040180806020018281038252602c815260200180611253602c913960400191505060405180910390fd5b610ea93383611071565b604080513381526020810184905281517f46fc0825df492a7a7f1fb1b690f6912ecb69575484fbb24be0f398ae70d97db4929181900390910190a160048054604080516323b872dd60e01b8152339381019390935230602484015260448301859052516001600160a01b03909116916323b872dd9160648083019260209291908290030181600087803b158015610a7c57600080fd5b60008151602014610f815760405162461bcd60e51b815260040180806020018281038252603581526020018061121e6035913960400191505060405180910390fd5b506020015190565b6003546201000090046001600160a01b031681565b3360009081526002602090815260408083206001600160a01b0386168452909152812054610fd2908363ffffffff61119116565b3360008181526002602090815260408083206001600160a01b0389168085529083529281902085905580519485525191937f8c5be1e5ebec7d5bd14f71427d1e84f3dd0314c0f7b2291e5b200ac8c7c3b925929081900390910190a350600192915050565b6001600160a01b03918216600090815260026020908152604080832093909416825291909152205490565b6004546001600160a01b031681565b600154611084908263ffffffff61119116565b6001556001600160a01b0382166000908152602081905260409020546110b0908263ffffffff61119116565b6001600160a01b03831660008181526020818152604080832094909455835185815293519293919260008051602061127f8339815191529281900390910190a35050565b6001600160a01b03821660009081526020819052604090205461111d908263ffffffff61117f16565b6001600160a01b038316600090815260208190526040902055600154611149908263ffffffff61117f16565b6001556040805182815290516000916001600160a01b0385169160008051602061127f8339815191529181900360200190a35050565b60008282111561118b57fe5b50900390565b8181018281101561119e57fe5b9291505056fe5265717565737461626c654552433230577261707065723a206d73672e73656e646572206973206e6f7420726f6f74636861696e5265717565737461626c654552433230577261707065723a2062616c616e63652074726965206b6579206973206d69736d61746368656420666f7220726571756573746f725265717565737461626c654552433230577261707065723a2074726965206b6579206c656e677468206d75737420626520307832305265717565737461626c654552433230577261707065723a206e6f7420696e697469616c697a656420796574ddf252ad1be2c89b69c2b068fc378daa952ba7f163c4a11628f55a4df523b3efa265627a7a72315820ffb29a80b8549d6e48303f912ba375a55733f1ababf34308edd0f9bdb28d425d64736f6c634300050c0032",
  "source": "pragma solidity ^0.5.12;\n\nimport \"../requestable-erc20-wrapper-token/contracts/RequestableERC20Wrapper.sol\";\n\n\n/**\n * @title     EtherToken\n * @notice    EtherToken is a requestable token that can exchange ETH at a 1:1 ratio.\n *            This contract is deployed both in root chain and in child chain. But in root chain,\n *            It doesn't support ETH swap, it just takes another ERC20 as a exchangable token.\n *            However, EtherToken in child chain takes (P)ETH to\n */\ncontract EtherToken is RequestableERC20Wrapper {\n  bool public swapEnabled;\n\n  // EtherToken in root chain disables ether swap, but EtherToken in child chain allows it.\n  constructor(\n    bool _development,\n    ERC20 _token,\n    bool _swapEnabled\n  ) public RequestableERC20Wrapper(_development, _token) {\n    bool noToken = address(_token) == address(0);\n\n    // in production, Exchangable asset must be either ERC20 or ETH, not both.\n    require(_development || (noToken && _swapEnabled || !noToken && !_swapEnabled));\n    swapEnabled = _swapEnabled;\n  }\n\n  function() external payable {\n    swapFromEth();\n  }\n\n  // swap ETH to token\n  function swapFromEth() public payable {\n    require(swapEnabled);\n\n    mint(msg.sender, msg.value);\n  }\n\n  // swap token to ETH\n  function swapToEth(uint _amount) public {\n    require(swapEnabled);\n\n    require(transferFrom(msg.sender, address(this), _amount));\n    burn(msg.sender, _amount);\n  }\n}",
  "sourcePath": "/Users/pjh/workspace/plasma-evm-contracts/contracts/EtherToken.sol",
  "compiler": {
    "name": "solc",
    "version": "0.5.12+commit.7709ece9.Emscripten.clang"
  },
  "schemaVersion": "3.0.23",
  "updatedAt": "2020-03-24T05:32:29.883Z",
  "devdoc": {
    "methods": {
      "allowance(address,address)": {
        "details": "Function to check the amount of tokens that an owner allowed to a spender.",
        "params": {
          "_owner": "address The address which owns the funds.",
          "_spender": "address The address which will spend the funds."
        },
        "return": "A uint256 specifying the amount of tokens still available for the spender."
      },
      "approve(address,uint256)": {
        "details": "Approve the passed address to spend the specified amount of tokens on behalf of msg.sender. Beware that changing an allowance with this method brings the risk that someone may use both the old and the new allowance by unfortunate transaction ordering. One possible solution to mitigate this race condition is to first reduce the spender's allowance to 0 and set the desired value afterwards: https://github.com/ethereum/EIPs/issues/20#issuecomment-263524729",
        "params": {
          "_spender": "The address which will spend the funds.",
          "_value": "The amount of tokens to be spent."
        }
      },
      "balanceOf(address)": {
        "details": "Gets the balance of the specified address.",
        "params": {
          "_owner": "The address to query the the balance of."
        },
        "return": "An uint256 representing the amount owned by the passed address."
      },
      "decreaseApproval(address,uint256)": {
        "details": "Decrease the amount of tokens that an owner allowed to a spender. approve should be called when allowed[_spender] == 0. To decrement allowed value is better to use this function to avoid 2 calls (and wait until the first transaction is mined) From MonolithDAO Token.sol",
        "params": {
          "_spender": "The address which will spend the funds.",
          "_subtractedValue": "The amount of tokens to decrease the allowance by."
        }
      },
      "increaseApproval(address,uint256)": {
        "details": "Increase the amount of tokens that an owner allowed to a spender. approve should be called when allowed[_spender] == 0. To increment allowed value is better to use this function to avoid 2 calls (and wait until the first transaction is mined) From MonolithDAO Token.sol",
        "params": {
          "_addedValue": "The amount of tokens to increase the allowance by.",
          "_spender": "The address which will spend the funds."
        }
      },
      "totalSupply()": {
        "details": "Total number of tokens in existence"
      },
      "transfer(address,uint256)": {
        "details": "Transfer token for a specified address",
        "params": {
          "_to": "The address to transfer to.",
          "_value": "The amount to be transferred."
        }
      },
      "transferFrom(address,address,uint256)": {
        "details": "Transfer tokens from one address to another",
        "params": {
          "_from": "address The address which you want to send tokens from",
          "_to": "address The address which you want to transfer to",
          "_value": "uint256 the amount of tokens to be transferred"
        }
      }
    },
    "title": "EtherToken"
  },
  "userdoc": {
    "methods": {},
    "notice": "EtherToken is a requestable token that can exchange ETH at a 1:1 ratio.           This contract is deployed both in root chain and in child chain. But in root chain,           It doesn't support ETH swap, it just takes another ERC20 as a exchangable token.           However, EtherToken in child chain takes (P)ETH to"
  }
}