{
  "contractName": "Exec",
  "abi": [
    {
      "anonymous": false,
      "inputs": [
        {
          "indexed": true,
          "internalType": "address",
          "name": "previousOwner",
          "type": "address"
        },
        {
          "indexed": true,
          "internalType": "address",
          "name": "newOwner",
          "type": "address"
        }
      ],
      "name": "OwnershipTransferred",
      "type": "event"
    },
    {
      "constant": true,
      "inputs": [],
      "name": "isOwner",
      "outputs": [
        {
          "internalType": "bool",
          "name": "",
          "type": "bool"
        }
      ],
      "payable": false,
      "stateMutability": "view",
      "type": "function"
    },
    {
      "constant": true,
      "inputs": [],
      "name": "owner",
      "outputs": [
        {
          "internalType": "address",
          "name": "",
          "type": "address"
        }
      ],
      "payable": false,
      "stateMutability": "view",
      "type": "function"
    },
    {
      "constant": false,
      "inputs": [],
      "name": "renounceOwnership",
      "outputs": [],
      "payable": false,
      "stateMutability": "nonpayable",
      "type": "function"
    },
    {
      "constant": false,
      "inputs": [
        {
          "internalType": "address",
          "name": "newOwner",
          "type": "address"
        }
      ],
      "name": "transferOwnership",
      "outputs": [],
      "payable": false,
      "stateMutability": "nonpayable",
      "type": "function"
    },
    {
      "constant": false,
      "inputs": [
        {
          "internalType": "address[]",
          "name": "targets",
          "type": "address[]"
        },
        {
          "internalType": "uint256[]",
          "name": "values",
          "type": "uint256[]"
        },
        {
          "internalType": "bytes[]",
          "name": "datas",
          "type": "bytes[]"
        }
      ],
      "name": "multiExec",
      "outputs": [],
      "payable": true,
      "stateMutability": "payable",
      "type": "function"
    },
    {
      "constant": false,
      "inputs": [
        {
          "internalType": "address payable",
          "name": "target",
          "type": "address"
        },
        {
          "internalType": "uint256",
          "name": "value",
          "type": "uint256"
        },
        {
          "internalType": "bytes",
          "name": "data",
          "type": "bytes"
        }
      ],
      "name": "exec",
      "outputs": [],
      "payable": true,
      "stateMutability": "payable",
      "type": "function"
    }
  ],
  "bytecode": "0x608060405260006100176001600160e01b0361006616565b600080546001600160a01b0319166001600160a01b0383169081178255604051929350917f8be0079c531659141344cd1fd0a4f28419497f9722a3daafe3b4186f6b6457e0908290a35061006a565b3390565b610910806100796000396000f3fe6080604052600436106100555760003560e01c80630565bb671461005a5780637072ddcc1461006f578063715018a6146100825780638da5cb5b146100975780638f32d59b146100c2578063f2fde38b146100e4575b600080fd5b61006d610068366004610548565b610104565b005b61006d61007d3660046105ad565b6101b9565b34801561008e57600080fd5b5061006d610310565b3480156100a357600080fd5b506100ac61037e565b6040516100b9919061079b565b60405180910390f35b3480156100ce57600080fd5b506100d761038d565b6040516100b991906107a9565b3480156100f057600080fd5b5061006d6100ff366004610522565b6103b1565b61010c61038d565b6101315760405162461bcd60e51b8152600401610128906107d7565b60405180910390fd5b60006060846001600160a01b0316848460405161014e9190610788565b60006040518083038185875af1925050503d806000811461018b576040519150601f19603f3d011682016040523d82523d6000602084013e610190565b606091505b5091509150816101b25760405162461bcd60e51b8152600401610128906107c7565b5050505050565b6101c161038d565b6101dd5760405162461bcd60e51b8152600401610128906107d7565b8481146101fc5760405162461bcd60e51b8152600401610128906107e7565b84831461021b5760405162461bcd60e51b8152600401610128906107e7565b60005b85811015610307576102ff61025b88888481811061023857fe5b905060200201602061024d9190810190610522565b6001600160a01b03166103e1565b86868481811061026757fe5b9050602002013585858581811061027a57fe5b602002820190508035601e193684900301811261029657600080fd5b9091016020810191503567ffffffffffffffff8111156102b557600080fd5b368190038213156102c557600080fd5b8080601f01602080910402602001604051908101604052809392919081815260200183838082843760009201919091525061010492505050565b60010161021e565b50505050505050565b61031861038d565b6103345760405162461bcd60e51b8152600401610128906107d7565b600080546040516001600160a01b03909116907f8be0079c531659141344cd1fd0a4f28419497f9722a3daafe3b4186f6b6457e0908390a3600080546001600160a01b0319169055565b6000546001600160a01b031690565b600080546001600160a01b03166103a26103e4565b6001600160a01b031614905090565b6103b961038d565b6103d55760405162461bcd60e51b8152600401610128906107d7565b6103de816103e8565b50565b90565b3390565b6001600160a01b03811661040e5760405162461bcd60e51b8152600401610128906107b7565b600080546040516001600160a01b03808516939216917f8be0079c531659141344cd1fd0a4f28419497f9722a3daafe3b4186f6b6457e091a3600080546001600160a01b0319166001600160a01b0392909216919091179055565b8035610474816108b0565b92915050565b60008083601f84011261048c57600080fd5b50813567ffffffffffffffff8111156104a457600080fd5b6020830191508360208202830111156104bc57600080fd5b9250929050565b600082601f8301126104d457600080fd5b81356104e76104e28261081e565b6107f7565b9150808252602083016020830185838301111561050357600080fd5b61050e838284610874565b50505092915050565b8035610474816108c4565b60006020828403121561053457600080fd5b60006105408484610469565b949350505050565b60008060006060848603121561055d57600080fd5b60006105698686610469565b935050602061057a86828701610517565b925050604084013567ffffffffffffffff81111561059757600080fd5b6105a3868287016104c3565b9150509250925092565b600080600080600080606087890312156105c657600080fd5b863567ffffffffffffffff8111156105dd57600080fd5b6105e989828a0161047a565b9650965050602087013567ffffffffffffffff81111561060857600080fd5b61061489828a0161047a565b9450945050604087013567ffffffffffffffff81111561063357600080fd5b61063f89828a0161047a565b92509250509295509295509295565b61065781610858565b82525050565b61065781610863565b600061067182610846565b61067b818561084a565b935061068b818560208601610880565b9290920192915050565b60006106a260268361084f565b7f4f776e61626c653a206e6577206f776e657220697320746865207a65726f206181526564647265737360d01b602082015260400192915050565b60006106ea601c8361084f565b7f5661756c74426173653a206661696c656420746f206578656375746500000000815260200192915050565b600061072360208361084f565b7f4f776e61626c653a2063616c6c6572206973206e6f7420746865206f776e6572815260200192915050565b600061075c60208361084f565b7f5661756c74426173653a206172726179206c656e677468206d69736d61746368815260200192915050565b60006107948284610666565b9392505050565b60208101610474828461064e565b60208101610474828461065d565b6020808252810161047481610695565b60208082528101610474816106dd565b6020808252810161047481610716565b602080825281016104748161074f565b60405181810167ffffffffffffffff8111828210171561081657600080fd5b604052919050565b600067ffffffffffffffff82111561083557600080fd5b506020601f91909101601f19160190565b5190565b919050565b90815260200190565b600061047482610868565b151590565b6001600160a01b031690565b82818337506000910152565b60005b8381101561089b578181015183820152602001610883565b838111156108aa576000848401525b50505050565b6108b981610858565b81146103de57600080fd5b6108b9816103e156fea365627a7a723158202ce1901f689fe8d77029ec651e910255b64e4e4b90b67fbfc61396b6abec11576c6578706572696d656e74616cf564736f6c634300050c0040",
  "source": "pragma solidity ^0.5.12;\npragma experimental ABIEncoderV2;\n\nimport { Ownable } from \"../../node_modules/openzeppelin-solidity/contracts/ownership/Ownable.sol\";\nimport { Address } from \"../../node_modules/openzeppelin-solidity/contracts/utils/Address.sol\";\n\ncontract Exec is Ownable {\n  using Address for *;\n\n  function multiExec(address[] calldata targets, uint256[] calldata values, bytes[] calldata datas) external payable onlyOwner {\n    require(targets.length == datas.length, \"VaultBase: array length mismatch\");\n    require(targets.length == values.length, \"VaultBase: array length mismatch\");\n\n    for (uint256 i = 0; i < targets.length; i++) {\n      exec(targets[i].toPayable(), values[i], datas[i]);\n    }\n  }\n\n  function exec(address payable target, uint256 value, bytes memory data) public payable onlyOwner {\n    (bool ok, bytes memory _) = target.call.value(value)(data);\n    require(ok, \"VaultBase: failed to execute\");\n  }\n}",
  "sourcePath": "/Users/pjh/workspace/plasma-evm-contracts/contracts/exec/Exec.sol",
  "compiler": {
    "name": "solc",
    "version": "0.5.12+commit.7709ece9.Emscripten.clang"
  },
  "schemaVersion": "3.0.23",
  "updatedAt": "2020-03-05T06:33:29.650Z",
  "devdoc": {
    "methods": {
      "isOwner()": {
        "details": "Returns true if the caller is the current owner."
      },
      "owner()": {
        "details": "Returns the address of the current owner."
      },
      "renounceOwnership()": {
        "details": "Leaves the contract without owner. It will not be possible to call `onlyOwner` functions anymore. Can only be called by the current owner.     * NOTE: Renouncing ownership will leave the contract without an owner, thereby removing any functionality that is only available to the owner."
      },
      "transferOwnership(address)": {
        "details": "Transfers ownership of the contract to a new account (`newOwner`). Can only be called by the current owner."
      }
    }
  },
  "userdoc": {
    "methods": {}
  }
}