{
  "contractName": "MTONMigrator",
  "abi": [
    {
      "inputs": [
        {
          "internalType": "contract IERC20",
          "name": "_mton",
          "type": "address"
        }
      ],
      "payable": false,
      "stateMutability": "nonpayable",
      "type": "constructor"
    },
    {
      "anonymous": false,
      "inputs": [
        {
          "indexed": true,
          "internalType": "address",
          "name": "previousOwner",
          "type": "address"
        },
        {
          "indexed": true,
          "internalType": "address",
          "name": "newOwner",
          "type": "address"
        }
      ],
      "name": "OwnershipTransferred",
      "type": "event"
    },
    {
      "anonymous": false,
      "inputs": [
        {
          "indexed": true,
          "internalType": "address",
          "name": "account",
          "type": "address"
        },
        {
          "indexed": false,
          "internalType": "uint256",
          "name": "amount",
          "type": "uint256"
        }
      ],
      "name": "SetBalance",
      "type": "event"
    },
    {
      "anonymous": false,
      "inputs": [
        {
          "indexed": true,
          "internalType": "address",
          "name": "account",
          "type": "address"
        },
        {
          "indexed": false,
          "internalType": "uint256",
          "name": "amount",
          "type": "uint256"
        }
      ],
      "name": "TokenClaimed",
      "type": "event"
    },
    {
      "constant": true,
      "inputs": [
        {
          "internalType": "address",
          "name": "",
          "type": "address"
        }
      ],
      "name": "balances",
      "outputs": [
        {
          "internalType": "uint256",
          "name": "",
          "type": "uint256"
        }
      ],
      "payable": false,
      "stateMutability": "view",
      "type": "function"
    },
    {
      "constant": true,
      "inputs": [
        {
          "internalType": "address",
          "name": "",
          "type": "address"
        }
      ],
      "name": "claimed",
      "outputs": [
        {
          "internalType": "uint256",
          "name": "",
          "type": "uint256"
        }
      ],
      "payable": false,
      "stateMutability": "view",
      "type": "function"
    },
    {
      "constant": true,
      "inputs": [],
      "name": "isOwner",
      "outputs": [
        {
          "internalType": "bool",
          "name": "",
          "type": "bool"
        }
      ],
      "payable": false,
      "stateMutability": "view",
      "type": "function"
    },
    {
      "constant": true,
      "inputs": [],
      "name": "mton",
      "outputs": [
        {
          "internalType": "contract IERC20",
          "name": "",
          "type": "address"
        }
      ],
      "payable": false,
      "stateMutability": "view",
      "type": "function"
    },
    {
      "constant": true,
      "inputs": [],
      "name": "owner",
      "outputs": [
        {
          "internalType": "address",
          "name": "",
          "type": "address"
        }
      ],
      "payable": false,
      "stateMutability": "view",
      "type": "function"
    },
    {
      "constant": false,
      "inputs": [],
      "name": "renounceOwnership",
      "outputs": [],
      "payable": false,
      "stateMutability": "nonpayable",
      "type": "function"
    },
    {
      "constant": false,
      "inputs": [
        {
          "internalType": "address",
          "name": "newOwner",
          "type": "address"
        }
      ],
      "name": "transferOwnership",
      "outputs": [],
      "payable": false,
      "stateMutability": "nonpayable",
      "type": "function"
    },
    {
      "constant": false,
      "inputs": [
        {
          "internalType": "address[]",
          "name": "_accounts",
          "type": "address[]"
        },
        {
          "internalType": "uint256[]",
          "name": "_amounts",
          "type": "uint256[]"
        }
      ],
      "name": "setBalanceMulti",
      "outputs": [],
      "payable": false,
      "stateMutability": "nonpayable",
      "type": "function"
    },
    {
      "constant": false,
      "inputs": [
        {
          "internalType": "address",
          "name": "_account",
          "type": "address"
        },
        {
          "internalType": "uint256",
          "name": "_amount",
          "type": "uint256"
        }
      ],
      "name": "setBalance",
      "outputs": [],
      "payable": false,
      "stateMutability": "nonpayable",
      "type": "function"
    },
    {
      "constant": false,
      "inputs": [
        {
          "internalType": "address[]",
          "name": "_accounts",
          "type": "address[]"
        }
      ],
      "name": "resetBalanceMulti",
      "outputs": [],
      "payable": false,
      "stateMutability": "nonpayable",
      "type": "function"
    },
    {
      "constant": false,
      "inputs": [
        {
          "internalType": "address",
          "name": "_account",
          "type": "address"
        }
      ],
      "name": "resetBalance",
      "outputs": [],
      "payable": false,
      "stateMutability": "nonpayable",
      "type": "function"
    },
    {
      "constant": true,
      "inputs": [
        {
          "internalType": "address",
          "name": "_account",
          "type": "address"
        }
      ],
      "name": "claimable",
      "outputs": [
        {
          "internalType": "uint256",
          "name": "",
          "type": "uint256"
        }
      ],
      "payable": false,
      "stateMutability": "view",
      "type": "function"
    },
    {
      "constant": false,
      "inputs": [],
      "name": "claimAll",
      "outputs": [],
      "payable": false,
      "stateMutability": "nonpayable",
      "type": "function"
    },
    {
      "constant": false,
      "inputs": [
        {
          "internalType": "uint256",
          "name": "_amount",
          "type": "uint256"
        }
      ],
      "name": "claim",
      "outputs": [],
      "payable": false,
      "stateMutability": "nonpayable",
      "type": "function"
    }
  ],
  "bytecode": "0x608060405234801561001057600080fd5b50604051610eff380380610eff8339818101604052602081101561003357600080fd5b505160006100486001600160e01b036100b716565b600080546001600160a01b0319166001600160a01b0383169081178255604051929350917f8be0079c531659141344cd1fd0a4f28419497f9722a3daafe3b4186f6b6457e0908290a350600180546001600160a01b0319166001600160a01b03929092169190911790556100bb565b3390565b610e35806100ca6000396000f3fe608060405234801561001057600080fd5b50600436106100ea5760003560e01c80638f32d59b1161008c578063d1058e5911610066578063d1058e5914610278578063e30443bc14610280578063f2fde38b146102ac578063fb53aa1b146102d2576100ea565b80638f32d59b14610210578063bd0518441461022c578063c884ef8314610252576100ea565b806361b0c0f3116100c857806361b0c0f31461016c578063715018a6146101dc57806373f9ab18146101e45780638da5cb5b14610208576100ea565b806327e235e3146100ef578063379607f514610127578063402914f514610146575b600080fd5b6101156004803603602081101561010557600080fd5b50356001600160a01b0316610394565b60408051918252519081900360200190f35b6101446004803603602081101561013d57600080fd5b50356103a6565b005b6101156004803603602081101561015c57600080fd5b50356001600160a01b031661047c565b6101446004803603602081101561018257600080fd5b81019060208101813564010000000081111561019d57600080fd5b8201836020820111156101af57600080fd5b803590602001918460208302840111640100000000831117156101d157600080fd5b5090925090506104b5565b610144610538565b6101ec6105c9565b604080516001600160a01b039092168252519081900360200190f35b6101ec6105d8565b6102186105e7565b604080519115158252519081900360200190f35b6101446004803603602081101561024257600080fd5b50356001600160a01b031661060b565b6101156004803603602081101561026857600080fd5b50356001600160a01b031661065e565b610144610670565b6101446004803603604081101561029657600080fd5b506001600160a01b038135169060200135610683565b610144600480360360208110156102c257600080fd5b50356001600160a01b03166106d8565b610144600480360360408110156102e857600080fd5b81019060208101813564010000000081111561030357600080fd5b82018360208201111561031557600080fd5b8035906020019184602083028401116401000000008311171561033757600080fd5b91939092909160208101903564010000000081111561035557600080fd5b82018360208201111561036757600080fd5b8035906020019184602083028401116401000000008311171561038957600080fd5b509092509050610728565b60026020526000908152604090205481565b336000908152600360205260408120546103c6908363ffffffff6107fe16565b336000908152600260205260409020549091508111156104175760405162461bcd60e51b8152600401808060200182810382526025815260200180610d706025913960400191505060405180910390fd5b336000818152600360205260409020829055600154610442916001600160a01b03909116908461085f565b60408051838152905133917fe42df0d9493dfd0d7f69902c895b94c190a53e8c27876a86f45e7c997d9d8f7c919081900360200190a25050565b6001600160a01b03811660009081526003602090815260408083205460029092528220546104af9163ffffffff6108b116565b92915050565b6104bd6105e7565b6104fc576040805162461bcd60e51b81526020600482018190526024820152600080516020610db7833981519152604482015290519081900360640190fd5b60005b818110156105335761052b83838381811061051657fe5b905060200201356001600160a01b03166108f3565b6001016104ff565b505050565b6105406105e7565b61057f576040805162461bcd60e51b81526020600482018190526024820152600080516020610db7833981519152604482015290519081900360640190fd5b600080546040516001600160a01b03909116907f8be0079c531659141344cd1fd0a4f28419497f9722a3daafe3b4186f6b6457e0908390a3600080546001600160a01b0319169055565b6001546001600160a01b031681565b6000546001600160a01b031690565b600080546001600160a01b03166105fc610944565b6001600160a01b031614905090565b6106136105e7565b610652576040805162461bcd60e51b81526020600482018190526024820152600080516020610db7833981519152604482015290519081900360640190fd5b61065b816108f3565b50565b60036020526000908152604090205481565b61068161067c3361047c565b6103a6565b565b61068b6105e7565b6106ca576040805162461bcd60e51b81526020600482018190526024820152600080516020610db7833981519152604482015290519081900360640190fd5b6106d48282610948565b5050565b6106e06105e7565b61071f576040805162461bcd60e51b81526020600482018190526024820152600080516020610db7833981519152604482015290519081900360640190fd5b61065b816109f1565b6107306105e7565b61076f576040805162461bcd60e51b81526020600482018190526024820152600080516020610db7833981519152604482015290519081900360640190fd5b8281146107ad5760405162461bcd60e51b8152600401808060200182810382526027815260200180610d236027913960400191505060405180910390fd5b60005b838110156107f7576107ef8585838181106107c757fe5b905060200201356001600160a01b03168484848181106107e357fe5b90506020020135610948565b6001016107b0565b5050505050565b600082820183811015610858576040805162461bcd60e51b815260206004820152601b60248201527f536166654d6174683a206164646974696f6e206f766572666c6f770000000000604482015290519081900360640190fd5b9392505050565b604080516001600160a01b038416602482015260448082018490528251808303909101815260649091019091526020810180516001600160e01b031663a9059cbb60e01b179052610533908490610a91565b600061085883836040518060400160405280601e81526020017f536166654d6174683a207375627472616374696f6e206f766572666c6f770000815250610c4f565b6001600160a01b03811660008181526002602090815260408083208390558051928352517fa6bce0b6b1585f7d4e0136490289cd8870b541b75ea72e00c2bfce42b8db68319281900390910190a250565b3390565b6001600160a01b0382166000908152600260205260409020541561099d5760405162461bcd60e51b8152600401808060200182810382526022815260200180610d956022913960400191505060405180910390fd5b6001600160a01b038216600081815260026020908152604091829020849055815184815291517fa6bce0b6b1585f7d4e0136490289cd8870b541b75ea72e00c2bfce42b8db68319281900390910190a25050565b6001600160a01b038116610a365760405162461bcd60e51b8152600401808060200182810382526026815260200180610d4a6026913960400191505060405180910390fd5b600080546040516001600160a01b03808516939216917f8be0079c531659141344cd1fd0a4f28419497f9722a3daafe3b4186f6b6457e091a3600080546001600160a01b0319166001600160a01b0392909216919091179055565b610aa3826001600160a01b0316610ce6565b610af4576040805162461bcd60e51b815260206004820152601f60248201527f5361666545524332303a2063616c6c20746f206e6f6e2d636f6e747261637400604482015290519081900360640190fd5b60006060836001600160a01b0316836040518082805190602001908083835b60208310610b325780518252601f199092019160209182019101610b13565b6001836020036101000a0380198251168184511680821785525050505050509050019150506000604051808303816000865af19150503d8060008114610b94576040519150601f19603f3d011682016040523d82523d6000602084013e610b99565b606091505b509150915081610bf0576040805162461bcd60e51b815260206004820181905260248201527f5361666545524332303a206c6f772d6c6576656c2063616c6c206661696c6564604482015290519081900360640190fd5b805115610c4957808060200190516020811015610c0c57600080fd5b5051610c495760405162461bcd60e51b815260040180806020018281038252602a815260200180610dd7602a913960400191505060405180910390fd5b50505050565b60008184841115610cde5760405162461bcd60e51b81526004018080602001828103825283818151815260200191508051906020019080838360005b83811015610ca3578181015183820152602001610c8b565b50505050905090810190601f168015610cd05780820380516001836020036101000a031916815260200191505b509250505060405180910390fd5b505050900390565b6000813f7fc5d2460186f7233c927e7db2dcc703c0e500b653ca82273b7bfad8045d85a470818114801590610d1a57508115155b94935050505056fe4d544f4e4d69677261746f723a20706172616d65746572206c656e677468206d69736d617463684f776e61626c653a206e6577206f776e657220697320746865207a65726f20616464726573734d544f4e4d69677261746f723a20616d6f756e7420657863656564732062616c616e6365734d544f4e4d69677261746f723a2062616c616e63657320616c7265616479207365744f776e61626c653a2063616c6c6572206973206e6f7420746865206f776e65725361666545524332303a204552433230206f7065726174696f6e20646964206e6f742073756363656564a265627a7a72315820f185903c85617a819a03cd0cba60e2c7fc378e7971fa55bb87b91ea6637f728964736f6c634300050c0032",
  "source": "pragma solidity ^0.5.12;\n\nimport { Ownable } from \"../../../node_modules/openzeppelin-solidity/contracts/ownership/Ownable.sol\";\nimport { SafeMath } from \"../../../node_modules/openzeppelin-solidity/contracts/math/SafeMath.sol\";\nimport { IERC20 } from \"../../../node_modules/openzeppelin-solidity/contracts/token/ERC20/IERC20.sol\";\nimport { SafeERC20 } from \"../../../node_modules/openzeppelin-solidity/contracts/token/ERC20/SafeERC20.sol\";\n\n\n/**\n * @dev MTONMigrator supports migration MTON from faraday network to ethereum mainnet.\n */\ncontract MTONMigrator is Ownable {\n  using SafeMath for uint256;\n  using SafeERC20 for IERC20;\n\n  IERC20 public mton;\n\n  mapping (address => uint256) public balances;\n  mapping (address => uint256) public claimed;\n\n  event SetBalance(address indexed account, uint256 amount);\n  event TokenClaimed(address indexed account, uint256 amount);\n\n  constructor(IERC20 _mton) public {\n    mton = _mton;\n  }\n\n  /**\n   * Set balances\n   */\n  function setBalanceMulti(address[] calldata _accounts, uint256[] calldata _amounts) external onlyOwner {\n    require(_accounts.length == _amounts.length, \"MTONMigrator: parameter length mismatch\");\n\n    for (uint256 i = 0; i < _accounts.length; i++) {\n      _setBalance(_accounts[i], _amounts[i]);\n    }\n  }\n\n  function setBalance(address _account, uint256 _amount) public onlyOwner {\n    _setBalance(_account, _amount);\n  }\n\n  function _setBalance(address _account, uint256 _amount) internal {\n    require(balances[_account] == 0, \"MTONMigrator: balances already set\");\n    balances[_account] = _amount;\n    emit SetBalance(_account, _amount);\n  }\n\n  /**\n   * Reset balances\n   */\n  function resetBalanceMulti(address[] calldata _accounts) external onlyOwner {\n    for (uint256 i = 0; i < _accounts.length; i++) {\n      _resetBalance(_accounts[i]);\n    }\n  }\n\n  function resetBalance(address _account) public onlyOwner {\n    _resetBalance(_account);\n  }\n\n  function _resetBalance(address _account) internal {\n    // require(balances[_account] > 0, \"MTONMigrator: balances not set\");\n    balances[_account] = 0;\n    emit SetBalance(_account, 0);\n  }\n\n  function claimable(address _account) public view returns (uint256) {\n    return balances[_account].sub(claimed[_account]);\n  }\n\n  /**\n   * Claim tokens\n   */\n  function claimAll() external {\n    claim(claimable(msg.sender));\n  }\n\n  function claim(uint256 _amount) public {\n    uint256 v = claimed[msg.sender].add(_amount);\n\n    require(balances[msg.sender] >= v, \"MTONMigrator: amount exceeds balances\");\n\n    claimed[msg.sender] = v;\n\n    mton.safeTransfer(msg.sender, _amount);\n\n    emit TokenClaimed(msg.sender, _amount);\n  }\n}",
  "sourcePath": "/Users/pjh/workspace/plasma-evm-contracts/contracts/stake/tokens/MTONMigrator.sol",
  "compiler": {
    "name": "solc",
    "version": "0.5.12+commit.7709ece9.Emscripten.clang"
  },
  "schemaVersion": "3.0.23",
  "updatedAt": "2020-04-06T04:47:02.738Z",
  "devdoc": {
    "details": "MTONMigrator supports migration MTON from faraday network to ethereum mainnet.",
    "methods": {
      "isOwner()": {
        "details": "Returns true if the caller is the current owner."
      },
      "owner()": {
        "details": "Returns the address of the current owner."
      },
      "renounceOwnership()": {
        "details": "Leaves the contract without owner. It will not be possible to call `onlyOwner` functions anymore. Can only be called by the current owner.     * NOTE: Renouncing ownership will leave the contract without an owner, thereby removing any functionality that is only available to the owner."
      },
      "transferOwnership(address)": {
        "details": "Transfers ownership of the contract to a new account (`newOwner`). Can only be called by the current owner."
      }
    }
  },
  "userdoc": {
    "methods": {
      "claimAll()": {
        "notice": "Claim tokens"
      },
      "resetBalanceMulti(address[])": {
        "notice": "Reset balances"
      },
      "setBalanceMulti(address[],uint256[])": {
        "notice": "Set balances"
      }
    }
  }
}