{
  "contractName": "OnApproveConstant",
  "abi": [
    {
      "constant": true,
      "inputs": [],
      "name": "INTERFACE_ID_ON_APPROVE",
      "outputs": [
        {
          "internalType": "bytes4",
          "name": "",
          "type": "bytes4"
        }
      ],
      "payable": false,
      "stateMutability": "view",
      "type": "function"
    }
  ],
  "bytecode": "0x6080604052348015600f57600080fd5b5060c78061001e6000396000f3fe6080604052348015600f57600080fd5b506004361060285760003560e01c80636cd28f9a14602d575b600080fd5b60336050565b604080516001600160e01b03199092168252519081900360200190f35b604051806028606b8239602801905060405180910390208156fe6f6e417070726f766528616464726573732c616464726573732c75696e743235362c627974657329a265627a7a7231582000efe5a4157e0569623060cccdadc3c133584b004401d998e5144b4632e89a2364736f6c634300050c0032",
  "source": "pragma solidity ^0.5.12;\n\n\ncontract OnApproveConstant {\n  bytes4 public constant INTERFACE_ID_ON_APPROVE = bytes4(keccak256(\"onApprove(address,address,uint256,bytes)\"));\n}",
  "sourcePath": "/Users/pjh/workspace/plasma-evm-contracts/contracts/stake/tokens/OnApproveConstant.sol",
  "compiler": {
    "name": "solc",
    "version": "0.5.12+commit.7709ece9.Emscripten.clang"
  },
  "schemaVersion": "3.0.23",
  "updatedAt": "2020-03-24T05:32:30.358Z",
  "devdoc": {
    "methods": {}
  },
  "userdoc": {
    "methods": {}
  }
}