{
  "contractName": "PowerTON",
  "abi": [
    {
      "inputs": [
        {
          "internalType": "address",
          "name": "seigManager",
          "type": "address"
        },
        {
          "internalType": "address",
          "name": "wton",
          "type": "address"
        },
        {
          "internalType": "uint256",
          "name": "roundDuration",
          "type": "uint256"
        }
      ],
      "payable": false,
      "stateMutability": "nonpayable",
      "type": "constructor"
    },
    {
      "anonymous": false,
      "inputs": [
        {
          "indexed": true,
          "internalType": "address",
          "name": "previousOwner",
          "type": "address"
        },
        {
          "indexed": true,
          "internalType": "address",
          "name": "newOwner",
          "type": "address"
        }
      ],
      "name": "OwnershipTransferred",
      "type": "event"
    },
    {
      "anonymous": false,
      "inputs": [
        {
          "indexed": false,
          "internalType": "address",
          "name": "account",
          "type": "address"
        }
      ],
      "name": "Paused",
      "type": "event"
    },
    {
      "anonymous": false,
      "inputs": [
        {
          "indexed": true,
          "internalType": "address",
          "name": "account",
          "type": "address"
        }
      ],
      "name": "PauserAdded",
      "type": "event"
    },
    {
      "anonymous": false,
      "inputs": [
        {
          "indexed": true,
          "internalType": "address",
          "name": "account",
          "type": "address"
        }
      ],
      "name": "PauserRemoved",
      "type": "event"
    },
    {
      "anonymous": false,
      "inputs": [
        {
          "indexed": true,
          "internalType": "address",
          "name": "account",
          "type": "address"
        },
        {
          "indexed": false,
          "internalType": "uint256",
          "name": "amount",
          "type": "uint256"
        }
      ],
      "name": "PowerDecreased",
      "type": "event"
    },
    {
      "anonymous": false,
      "inputs": [
        {
          "indexed": true,
          "internalType": "address",
          "name": "account",
          "type": "address"
        },
        {
          "indexed": false,
          "internalType": "uint256",
          "name": "amount",
          "type": "uint256"
        }
      ],
      "name": "PowerIncreased",
      "type": "event"
    },
    {
      "anonymous": false,
      "inputs": [
        {
          "indexed": false,
          "internalType": "uint256",
          "name": "round",
          "type": "uint256"
        },
        {
          "indexed": false,
          "internalType": "address",
          "name": "winner",
          "type": "address"
        },
        {
          "indexed": false,
          "internalType": "uint256",
          "name": "reward",
          "type": "uint256"
        }
      ],
      "name": "RoundEnd",
      "type": "event"
    },
    {
      "anonymous": false,
      "inputs": [
        {
          "indexed": false,
          "internalType": "uint256",
          "name": "round",
          "type": "uint256"
        },
        {
          "indexed": false,
          "internalType": "uint256",
          "name": "startTime",
          "type": "uint256"
        },
        {
          "indexed": false,
          "internalType": "uint256",
          "name": "endTime",
          "type": "uint256"
        }
      ],
      "name": "RoundStart",
      "type": "event"
    },
    {
      "anonymous": false,
      "inputs": [
        {
          "indexed": false,
          "internalType": "address",
          "name": "account",
          "type": "address"
        }
      ],
      "name": "Unpaused",
      "type": "event"
    },
    {
      "constant": true,
      "inputs": [],
      "name": "REWARD_DENOMINATOR",
      "outputs": [
        {
          "internalType": "uint256",
          "name": "",
          "type": "uint256"
        }
      ],
      "payable": false,
      "stateMutability": "view",
      "type": "function"
    },
    {
      "constant": true,
      "inputs": [],
      "name": "REWARD_NUMERATOR",
      "outputs": [
        {
          "internalType": "uint256",
          "name": "",
          "type": "uint256"
        }
      ],
      "payable": false,
      "stateMutability": "view",
      "type": "function"
    },
    {
      "constant": false,
      "inputs": [
        {
          "internalType": "address",
          "name": "account",
          "type": "address"
        }
      ],
      "name": "addPauser",
      "outputs": [],
      "payable": false,
      "stateMutability": "nonpayable",
      "type": "function"
    },
    {
      "constant": true,
      "inputs": [],
      "name": "isOwner",
      "outputs": [
        {
          "internalType": "bool",
          "name": "",
          "type": "bool"
        }
      ],
      "payable": false,
      "stateMutability": "view",
      "type": "function"
    },
    {
      "constant": true,
      "inputs": [
        {
          "internalType": "address",
          "name": "account",
          "type": "address"
        }
      ],
      "name": "isPauser",
      "outputs": [
        {
          "internalType": "bool",
          "name": "",
          "type": "bool"
        }
      ],
      "payable": false,
      "stateMutability": "view",
      "type": "function"
    },
    {
      "constant": true,
      "inputs": [],
      "name": "owner",
      "outputs": [
        {
          "internalType": "address",
          "name": "",
          "type": "address"
        }
      ],
      "payable": false,
      "stateMutability": "view",
      "type": "function"
    },
    {
      "constant": false,
      "inputs": [],
      "name": "pause",
      "outputs": [],
      "payable": false,
      "stateMutability": "nonpayable",
      "type": "function"
    },
    {
      "constant": true,
      "inputs": [],
      "name": "paused",
      "outputs": [
        {
          "internalType": "bool",
          "name": "",
          "type": "bool"
        }
      ],
      "payable": false,
      "stateMutability": "view",
      "type": "function"
    },
    {
      "constant": false,
      "inputs": [
        {
          "internalType": "address",
          "name": "target",
          "type": "address"
        }
      ],
      "name": "renounceMinter",
      "outputs": [],
      "payable": false,
      "stateMutability": "nonpayable",
      "type": "function"
    },
    {
      "constant": false,
      "inputs": [
        {
          "internalType": "address",
          "name": "target",
          "type": "address"
        }
      ],
      "name": "renounceOwnership",
      "outputs": [],
      "payable": false,
      "stateMutability": "nonpayable",
      "type": "function"
    },
    {
      "constant": false,
      "inputs": [],
      "name": "renounceOwnership",
      "outputs": [],
      "payable": false,
      "stateMutability": "nonpayable",
      "type": "function"
    },
    {
      "constant": false,
      "inputs": [
        {
          "internalType": "address",
          "name": "target",
          "type": "address"
        }
      ],
      "name": "renouncePauser",
      "outputs": [],
      "payable": false,
      "stateMutability": "nonpayable",
      "type": "function"
    },
    {
      "constant": false,
      "inputs": [],
      "name": "renouncePauser",
      "outputs": [],
      "payable": false,
      "stateMutability": "nonpayable",
      "type": "function"
    },
    {
      "constant": true,
      "inputs": [
        {
          "internalType": "uint256",
          "name": "",
          "type": "uint256"
        }
      ],
      "name": "rounds",
      "outputs": [
        {
          "internalType": "uint64",
          "name": "startTime",
          "type": "uint64"
        },
        {
          "internalType": "uint64",
          "name": "endTime",
          "type": "uint64"
        },
        {
          "internalType": "uint256",
          "name": "reward",
          "type": "uint256"
        },
        {
          "internalType": "address",
          "name": "winner",
          "type": "address"
        }
      ],
      "payable": false,
      "stateMutability": "view",
      "type": "function"
    },
    {
      "constant": false,
      "inputs": [
        {
          "internalType": "address",
          "name": "target",
          "type": "address"
        },
        {
          "internalType": "address",
          "name": "newOwner",
          "type": "address"
        }
      ],
      "name": "transferOwnership",
      "outputs": [],
      "payable": false,
      "stateMutability": "nonpayable",
      "type": "function"
    },
    {
      "constant": false,
      "inputs": [
        {
          "internalType": "address",
          "name": "newOwner",
          "type": "address"
        }
      ],
      "name": "transferOwnership",
      "outputs": [],
      "payable": false,
      "stateMutability": "nonpayable",
      "type": "function"
    },
    {
      "constant": false,
      "inputs": [],
      "name": "unpause",
      "outputs": [],
      "payable": false,
      "stateMutability": "nonpayable",
      "type": "function"
    },
    {
      "constant": false,
      "inputs": [
        {
          "internalType": "address",
          "name": "seigManager",
          "type": "address"
        }
      ],
      "name": "setSeigManager",
      "outputs": [],
      "payable": false,
      "stateMutability": "nonpayable",
      "type": "function"
    },
    {
      "constant": false,
      "inputs": [],
      "name": "init",
      "outputs": [],
      "payable": false,
      "stateMutability": "nonpayable",
      "type": "function"
    },
    {
      "constant": false,
      "inputs": [],
      "name": "start",
      "outputs": [],
      "payable": false,
      "stateMutability": "nonpayable",
      "type": "function"
    },
    {
      "constant": true,
      "inputs": [
        {
          "internalType": "address",
          "name": "account",
          "type": "address"
        }
      ],
      "name": "powerOf",
      "outputs": [
        {
          "internalType": "uint256",
          "name": "",
          "type": "uint256"
        }
      ],
      "payable": false,
      "stateMutability": "view",
      "type": "function"
    },
    {
      "constant": false,
      "inputs": [],
      "name": "endRound",
      "outputs": [],
      "payable": false,
      "stateMutability": "nonpayable",
      "type": "function"
    },
    {
      "constant": true,
      "inputs": [
        {
          "internalType": "uint256",
          "name": "round",
          "type": "uint256"
        }
      ],
      "name": "roundStarted",
      "outputs": [
        {
          "internalType": "bool",
          "name": "",
          "type": "bool"
        }
      ],
      "payable": false,
      "stateMutability": "view",
      "type": "function"
    },
    {
      "constant": true,
      "inputs": [
        {
          "internalType": "uint256",
          "name": "round",
          "type": "uint256"
        }
      ],
      "name": "roundFinished",
      "outputs": [
        {
          "internalType": "bool",
          "name": "",
          "type": "bool"
        }
      ],
      "payable": false,
      "stateMutability": "view",
      "type": "function"
    },
    {
      "constant": true,
      "inputs": [],
      "name": "currentRoundFinished",
      "outputs": [
        {
          "internalType": "bool",
          "name": "",
          "type": "bool"
        }
      ],
      "payable": false,
      "stateMutability": "view",
      "type": "function"
    },
    {
      "constant": false,
      "inputs": [
        {
          "internalType": "address",
          "name": "rootchain",
          "type": "address"
        },
        {
          "internalType": "address",
          "name": "account",
          "type": "address"
        },
        {
          "internalType": "uint256",
          "name": "amount",
          "type": "uint256"
        }
      ],
      "name": "onDeposit",
      "outputs": [],
      "payable": false,
      "stateMutability": "nonpayable",
      "type": "function"
    },
    {
      "constant": false,
      "inputs": [
        {
          "internalType": "address",
          "name": "rootchain",
          "type": "address"
        },
        {
          "internalType": "address",
          "name": "account",
          "type": "address"
        },
        {
          "internalType": "uint256",
          "name": "amount",
          "type": "uint256"
        }
      ],
      "name": "onWithdraw",
      "outputs": [],
      "payable": false,
      "stateMutability": "nonpayable",
      "type": "function"
    },
    {
      "constant": true,
      "inputs": [],
      "name": "seigManager",
      "outputs": [
        {
          "internalType": "address",
          "name": "",
          "type": "address"
        }
      ],
      "payable": false,
      "stateMutability": "view",
      "type": "function"
    },
    {
      "constant": true,
      "inputs": [],
      "name": "wton",
      "outputs": [
        {
          "internalType": "address",
          "name": "",
          "type": "address"
        }
      ],
      "payable": false,
      "stateMutability": "view",
      "type": "function"
    },
    {
      "constant": true,
      "inputs": [],
      "name": "currentRound",
      "outputs": [
        {
          "internalType": "uint256",
          "name": "",
          "type": "uint256"
        }
      ],
      "payable": false,
      "stateMutability": "view",
      "type": "function"
    },
    {
      "constant": true,
      "inputs": [],
      "name": "roundDuration",
      "outputs": [
        {
          "internalType": "uint256",
          "name": "",
          "type": "uint256"
        }
      ],
      "payable": false,
      "stateMutability": "view",
      "type": "function"
    },
    {
      "constant": true,
      "inputs": [],
      "name": "totalDeposits",
      "outputs": [
        {
          "internalType": "uint256",
          "name": "",
          "type": "uint256"
        }
      ],
      "payable": false,
      "stateMutability": "view",
      "type": "function"
    },
    {
      "constant": true,
      "inputs": [
        {
          "internalType": "uint256",
          "name": "round",
          "type": "uint256"
        }
      ],
      "name": "winnerOf",
      "outputs": [
        {
          "internalType": "address",
          "name": "",
          "type": "address"
        }
      ],
      "payable": false,
      "stateMutability": "view",
      "type": "function"
    }
  ],
  "bytecode": "0x60806040523480156200001157600080fd5b50604051620025d7380380620025d7833981016040819052620000349162000264565b6200005a6200004b6001600160e01b036200010e16565b6001600160e01b036200011216565b60006200006f6001600160e01b036200010e16565b600180546001600160a01b0319166001600160a01b038316908117909155604051919250906000907f8be0079c531659141344cd1fd0a4f28419497f9722a3daafe3b4186f6b6457e0908290a3506001805460ff60a01b1916905580620000d557600080fd5b600280546001600160a01b039485166001600160a01b0319918216179091556003805493909416921691909117909155600555620003bb565b3390565b6200012d8160006200016460201b620017f51790919060201c565b6040516001600160a01b038216907f6719d08c1888103bea251a4ed56406bd0c3e69723c8a1686e017e7bbe159b6f890600090a250565b6200017982826001600160e01b03620001e116565b15620001bc576040517f08c379a0000000000000000000000000000000000000000000000000000000008152600401620001b39062000354565b60405180910390fd5b6001600160a01b0316600090815260209190915260409020805460ff19166001179055565b60006001600160a01b03821662000226576040517f08c379a0000000000000000000000000000000000000000000000000000000008152600401620001b39062000366565b506001600160a01b03811660009081526020839052604090205460ff165b92915050565b8051620002448162000396565b80516200024481620003b0565b6000806000606084860312156200027a57600080fd5b60006200028886866200024a565b93505060206200029b868287016200024a565b9250506040620002ae8682870162000257565b9150509250925092565b6000620002c7601f8362000378565b7f526f6c65733a206163636f756e7420616c72656164792068617320726f6c6500815260200192915050565b60006200030260228362000378565b7f526f6c65733a206163636f756e7420697320746865207a65726f20616464726581527f7373000000000000000000000000000000000000000000000000000000000000602082015260400192915050565b602080825281016200024481620002b8565b602080825281016200024481620002f3565b90815260200190565b60006001600160a01b03821662000244565b90565b620003a18162000381565b8114620003ad57600080fd5b50565b620003a18162000393565b61220c80620003cb6000396000f3fe608060405234801561001057600080fd5b50600436106101fb5760003560e01c80637657f20a1161011a5780638d62d949116100ad578063c2dba50e1161007c578063c2dba50e146103b1578063e1c7392a146103b9578063f2fde38b146103c1578063f7cb789a146103d4578063f850ffaa146103dc576101fb565b80638d62d949146103915780638da5cb5b146103995780638f32d59b146103a1578063be9a6555146103a9576101fb565b80638456cb59116100e95780638456cb591461034b5780638a19c8bc146103535780638c65c81f1461035b5780638cb5d7001461037e576101fb565b80637657f20a146103155780637d88209714610328578063819a93981461033057806382dc1ec414610338576101fb565b80635c975abb116101925780636ef8d66d116101615780636ef8d66d146102e85780636fb7f558146102f0578063715018a614610305578063749aa2d91461030d576101fb565b80635c975abb146102a75780635f112c68146102af57806364402c07146102c25780636d435421146102d5576101fb565b8063412c6d50116101ce578063412c6d501461026657806341eb24bb1461027957806346fbf68e1461028c5780634b816b671461029f576101fb565b80631ac84690146102005780631c602a631461022957806338bf3cfa146102495780633f4ba83a1461025e575b600080fd5b61021361020e3660046119c6565b6103ef565b6040516102209190612086565b60405180910390f35b61023c610237366004611a91565b610426565b6040516102209190611f67565b61025c6102573660046119c6565b610483565b005b61025c610506565b61025c610274366004611a26565b6105a3565b61025c6102873660046119c6565b610637565b61023c61029a3660046119c6565b610696565b6102136106a8565b61023c6106ad565b61025c6102bd3660046119c6565b6106be565b61023c6102d0366004611a91565b61071d565b61025c6102e33660046119ec565b610765565b61025c6107eb565b6102f86107fd565b6040516102209190611f30565b61025c61080c565b61025c61087a565b61025c6103233660046119c6565b6108a6565b6102136108ec565b6102136108f2565b61025c6103463660046119c6565b6108f7565b61025c61092a565b6102136109b7565b61036e610369366004611a91565b6109bd565b60405161022094939291906120e4565b6102f861038c366004611a91565b6109fc565b6102f8610a1a565b6102f8610a29565b61023c610a38565b61025c610a5e565b61023c610b11565b61025c610b23565b61025c6103cf3660046119c6565b610b6f565b610213610b9c565b61025c6103ea366004611a26565b610ba2565b600061042060405161040090611f25565b604051809103902061041184610c3c565b6007919063ffffffff610c4816565b92915050565b60006104318261071d565b801561045c575060008281526006602052604090205442600160401b90910467ffffffffffffffff16105b80156104205750506000908152600660205260409020600201546001600160a01b03161590565b61048b610a38565b6104b05760405162461bcd60e51b81526004016104a790612046565b60405180910390fd5b806001600160a01b031663715018a66040518163ffffffff1660e01b8152600401600060405180830381600087803b1580156104eb57600080fd5b505af11580156104ff573d6000803e3d6000fd5b5050505050565b61051161029a610c98565b61052d5760405162461bcd60e51b81526004016104a790611fb6565b600154600160a01b900460ff166105565760405162461bcd60e51b81526004016104a790611f96565b6001805460ff60a01b191690557f5db9ee0a495bf2e6ff9c91a7834c1ba4fdd244a5e8aa4e537bd38aeae4b073aa61058c610c98565b6040516105999190611f3e565b60405180910390a1565b6105ab610b11565b156105b8576105b8610c9c565b6002546001600160a01b031633146105cf57600080fd5b6105d98282610ece565b6008546105ec908263ffffffff610f4416565b6008556040516001600160a01b038316907f7cb6ed9ab3c494e5dae6f6a137de115769e08b31ce667494edd37f75c84a10169061062a908490612086565b60405180910390a2505050565b61063f610a38565b61065b5760405162461bcd60e51b81526004016104a790612046565b806001600160a01b0316636ef8d66d6040518163ffffffff1660e01b8152600401600060405180830381600087803b1580156104eb57600080fd5b6000610420818363ffffffff610f7016565b600881565b600154600160a01b900460ff165b90565b6106c6610a38565b6106e25760405162461bcd60e51b81526004016104a790612046565b806001600160a01b031663986502756040518163ffffffff1660e01b8152600401600060405180830381600087803b1580156104eb57600080fd5b60008181526006602052604081205467ffffffffffffffff1615801590610420575050600090815260066020526040902054600160401b900467ffffffffffffffff16151590565b61076d610a38565b6107895760405162461bcd60e51b81526004016104a790612046565b60405163f2fde38b60e01b81526001600160a01b0383169063f2fde38b906107b5908490600401611f30565b600060405180830381600087803b1580156107cf57600080fd5b505af11580156107e3573d6000803e3d6000fd5b505050505050565b6107fb6107f6610c98565b610fb8565b565b6002546001600160a01b031690565b610814610a38565b6108305760405162461bcd60e51b81526004016104a790612046565b6001546040516000916001600160a01b0316907f8be0079c531659141344cd1fd0a4f28419497f9722a3daafe3b4186f6b6457e0908390a3600180546001600160a01b0319169055565b610882610b11565b61089e5760405162461bcd60e51b81526004016104a790611ff6565b6107fb610c9c565b6108ae610a38565b6108ca5760405162461bcd60e51b81526004016104a790612046565b600280546001600160a01b0319166001600160a01b0392909216919091179055565b60085490565b600a81565b61090261029a610c98565b61091e5760405162461bcd60e51b81526004016104a790611fb6565b61092781611000565b50565b61093561029a610c98565b6109515760405162461bcd60e51b81526004016104a790611fb6565b600154600160a01b900460ff161561097b5760405162461bcd60e51b81526004016104a790612006565b6001805460ff60a01b1916600160a01b1790557f62e78cea01bee320cd4e420270b5ea74000d11b0c9f74754ebdbfc544b05a25861058c610c98565b60045490565b60066020526000908152604090208054600182015460029092015467ffffffffffffffff80831693600160401b9093041691906001600160a01b031684565b6000908152600660205260409020600201546001600160a01b031690565b6003546001600160a01b031690565b6001546001600160a01b031690565b6001546000906001600160a01b0316610a4f610c98565b6001600160a01b031614905090565b610a66610a38565b610a825760405162461bcd60e51b81526004016104a790612046565b60045415610aa25760405162461bcd60e51b81526004016104a790612076565b60045460009081526006602052604090205467ffffffffffffffff16158015610aeb5750600454600090815260066020526040902054600160401b900467ffffffffffffffff16155b610b075760405162461bcd60e51b81526004016104a790612016565b6107fb6000611048565b6000610b1e600454610426565b905090565b610b2b610a38565b610b475760405162461bcd60e51b81526004016104a790612046565b6107fb604051610b5690611f25565b604051908190039020600790601063ffffffff61118c16565b610b77610a38565b610b935760405162461bcd60e51b81526004016104a790612046565b61092781611217565b60055490565b610baa610b11565b15610bb757610bb7610c9c565b6002546001600160a01b03163314610bce57600080fd5b6000610bda8383611299565b600854909150610bf0908263ffffffff61131216565b6008556040516001600160a01b038416907f2799180fb0f59973ce8643f2079ddedfb4c9c9c60cdd7d02c1c7798a379671d290610c2e908490612086565b60405180910390a250505050565b6001600160a01b031690565b6000828152602084815260408083208484526003810190925282205480610c725760009250610c8f565b816002018181548110610c8157fe5b906000526020600020015492505b50509392505050565b3390565b600854610ca8576107fb565b6004546000818152600660205260408120600854909190610ccc6000194301611354565b81610cd357fe5b0690506000610d07610d02604051610cea90611f25565b6040519081900390206007908563ffffffff61139716565b6106bb565b90506001600160a01b038116610d2f5760405162461bcd60e51b81526004016104a790611fc6565b6002830180546001600160a01b0319166001600160a01b03838116919091179091556003546040516370a0823160e01b8152600092610df092600a92610de49260089216906370a0823190610d88903090600401611f30565b60206040518083038186803b158015610da057600080fd5b505afa158015610db4573d6000803e3d6000fd5b505050506040513d601f19601f82011682018060405250610dd89190810190611aaf565b9063ffffffff61145a16565b9063ffffffff61149416565b90508084600101819055507fa49385eb61e4f439063d5c00de2ab7a1fff06ca35f6f06fb634d21a2e8ad3279858383604051610e2e93929190612094565b60405180910390a16004805460010190819055610e4a90611048565b60035460405163e3b99e8560e01b81526001600160a01b039091169063e3b99e8590610e7c9085908590600401611f4c565b602060405180830381600087803b158015610e9657600080fd5b505af1158015610eaa573d6000803e3d6000fd5b505050506040513d601f19601f820116820180604052506107e39190810190611a73565b6000610ed983610c3c565b90506000610f1483610f08604051610ef090611f25565b6040519081900390206007908663ffffffff610c4816565b9063ffffffff610f4416565b9050610f3e604051610f2590611f25565b604051908190039020600790838563ffffffff6114d616565b50505050565b600082820183811015610f695760405162461bcd60e51b81526004016104a790611fe6565b9392505050565b60006001600160a01b038216610f985760405162461bcd60e51b81526004016104a790612056565b506001600160a01b03166000908152602091909152604090205460ff1690565b610fc960008263ffffffff6117ad16565b6040516001600160a01b038216907fcd265ebaf09df2871cc7bd4133404a235ba12eff2041bb89d9c714a2621c7c7e90600090a250565b61101160008263ffffffff6117f516565b6040516001600160a01b038216907f6719d08c1888103bea251a4ed56406bd0c3e69723c8a1686e017e7bbe159b6f890600090a250565b8015806110a25750600019810160009081526006602052604090205442600160401b90910467ffffffffffffffff161080156110a2575060001981016000908152600660205260409020600201546001600160a01b031615155b6110ab57600080fd5b6000818152600660205260409020805467ffffffffffffffff161580156110e257508054600160401b900467ffffffffffffffff16155b80156110f9575060028101546001600160a01b0316155b61110257600080fd5b60055481544291820167ffffffffffffffff818116600160401b026fffffffffffffffff00000000000000001991851667ffffffffffffffff1990941693909317169190911783556040517fe51113a62fc9e06008ca1c963fa05a240e64d51af7fdb2178c2a302cfcc5052f9061117e908690859085906120bc565b60405180910390a150505050565b60008281526020849052604090208054156111b95760405162461bcd60e51b81526004016104a790612066565b600182116111d95760405162461bcd60e51b81526004016104a790611f86565b81815560006111eb6001830182611953565b5060006111fb6002830182611953565b5060020180546001810182556000918252602082200155505050565b6001600160a01b03811661123d5760405162461bcd60e51b81526004016104a790611fd6565b6001546040516001600160a01b038084169216907f8be0079c531659141344cd1fd0a4f28419497f9722a3daafe3b4186f6b6457e090600090a3600180546001600160a01b0319166001600160a01b0392909216919091179055565b6000806112a584610c3c565b905060006112d06040516112b890611f25565b6040519081900390206007908463ffffffff610c4816565b905060006112de8286611841565b90506113086040516112ef90611f25565b604051908190039020600790838663ffffffff6114d616565b9003949350505050565b6000610f6983836040518060400160405280601e81526020017f536166654d6174683a207375627472616374696f6e206f766572666c6f77000081525061185d565b600081408061137c5760ff831660ff19431601925043831061137857610100830392505b5081405b60085443808301600019909101400182029091020292915050565b60008281526020849052604081206002810180548391829182906113b757fe5b906000526020600020015485816113ca57fe5b0690505b600283015483548302600101101561143f5760015b835481116114395760008184866000015402019050600085600201828154811061140957fe5b9060005260206000200154905080841061142757808403935061142f565b509250611439565b50506001016113e3565b506113ce565b50600090815260049091016020526040902054949350505050565b60008261146957506000610420565b8282028284828161147657fe5b0414610f695760405162461bcd60e51b81526004016104a790612036565b6000610f6983836040518060400160405280601a81526020017f536166654d6174683a206469766973696f6e206279207a65726f000000000000815250611889565b60008381526020858152604080832084845260038101909252909120548061166157831561165c5760018201546115d45750600281018054600180820183556000928352602090922081018590559081148015906115405750815460001982018161153d57fe5b06155b156115cf578154600090828161155257fe5b046000818152600485016020526040902054600285018054929350909160018501919081908590811061158157fe5b60009182526020808320909101548354600181018555938352818320909301929092559384526004860180825260408086208690558486526003880183528086208490559285529052909120555b611629565b60018201805460001981019081106115e857fe5b60009182526020909120015460018301805491925061160b906000198301611953565b508382600201828154811061161c57fe5b6000918252602090912001555b6000838152600383016020908152604080832084905583835260048501909152902083905561165c8686836001886118c0565b6107e3565b836116f257600082600201828154811061167757fe5b90600052602060002001549050600083600201838154811061169557fe5b60009182526020808320909101929092556001808601805491820181558252828220018490558581526003850182526040808220829055848252600486019092529081208190556116ec90889088908590856118c0565b506107e3565b81600201818154811061170157fe5b906000526020600020015484146107e35760008483600201838154811061172457fe5b90600052602060002001541115905060008161175b578584600201848154811061174a57fe5b906000526020600020015403611778565b83600201838154811061176a57fe5b906000526020600020015486035b90508584600201848154811061178a57fe5b6000918252602090912001556117a388888585856118c0565b5050505050505050565b6117b78282610f70565b6117d35760405162461bcd60e51b81526004016104a790612026565b6001600160a01b0316600090815260209190915260409020805460ff19169055565b6117ff8282610f70565b1561181c5760405162461bcd60e51b81526004016104a790611fa6565b6001600160a01b0316600090815260209190915260409020805460ff19166001179055565b6000818311156118545750808203610420565b50600092915050565b600081848411156118815760405162461bcd60e51b81526004016104a79190611f75565b505050900390565b600081836118aa5760405162461bcd60e51b81526004016104a79190611f75565b5060008385816118b657fe5b0495945050505050565b6000848152602086905260409020835b801561194a5781546000198201816118e457fe5b0490508361190d57828260020182815481106118fc57fe5b90600052602060002001540361192a565b8282600201828154811061191d57fe5b9060005260206000200154015b82600201828154811061193957fe5b6000918252602090912001556118d0565b50505050505050565b8154818355818111156119775760008381526020902061197791810190830161197c565b505050565b6106bb91905b808211156119965760008155600101611982565b5090565b8035610420816121a3565b8051610420816121b7565b8035610420816121c0565b8051610420816121c0565b6000602082840312156119d857600080fd5b60006119e4848461199a565b949350505050565b600080604083850312156119ff57600080fd5b6000611a0b858561199a565b9250506020611a1c8582860161199a565b9150509250929050565b600080600060608486031215611a3b57600080fd5b6000611a47868661199a565b9350506020611a588682870161199a565b9250506040611a69868287016119b0565b9150509250925092565b600060208284031215611a8557600080fd5b60006119e484846119a5565b600060208284031215611aa357600080fd5b60006119e484846119b0565b600060208284031215611ac157600080fd5b60006119e484846119bb565b611ad681612151565b82525050565b611ad681612134565b611ad68161213f565b6000611af982612122565b611b038185612126565b9350611b1381856020860161216d565b611b1c81612199565b9093019392505050565b6000611b33601b83612126565b7f4b206d7573742062652067726561746572207468616e206f6e652e0000000000815260200192915050565b6000611b6c601483612126565b7314185d5cd8589b194e881b9bdd081c185d5cd95960621b815260200192915050565b6000611b9c601f83612126565b7f526f6c65733a206163636f756e7420616c72656164792068617320726f6c6500815260200192915050565b6000611bd5603083612126565b7f506175736572526f6c653a2063616c6c657220646f6573206e6f74206861766581526f207468652050617573657220726f6c6560801b602082015260400192915050565b6000611c27601383612126565b722837bbb2b92a27a71d103737903bb4b73732b960691b815260200192915050565b6000611c56602683612126565b7f4f776e61626c653a206e6577206f776e657220697320746865207a65726f206181526564647265737360d01b602082015260400192915050565b6000611c9e601b83612126565b7f536166654d6174683a206164646974696f6e206f766572666c6f770000000000815260200192915050565b6000611cd7600e8361212f565b6d706f7765722d62616c616e63657360901b8152600e0192915050565b6000611d01601c83612126565b7f506f776572544f4e3a20726f756e64206e6f742066696e697368656400000000815260200192915050565b6000611d3a601083612126565b6f14185d5cd8589b194e881c185d5cd95960821b815260200192915050565b6000611d66601f83612126565b7f506f776572544f4e3a20726f756e6420616c7265616479207374617274656400815260200192915050565b6000611d9f602183612126565b7f526f6c65733a206163636f756e7420646f6573206e6f74206861766520726f6c8152606560f81b602082015260400192915050565b6000611de2602183612126565b7f536166654d6174683a206d756c7469706c69636174696f6e206f766572666c6f8152607760f81b602082015260400192915050565b6000611e25602083612126565b7f4f776e61626c653a2063616c6c6572206973206e6f7420746865206f776e6572815260200192915050565b6000611e5e602283612126565b7f526f6c65733a206163636f756e7420697320746865207a65726f206164647265815261737360f01b602082015260400192915050565b6000611ea2601483612126565b732a3932b29030b63932b0b23c9032bc34b9ba399760611b815260200192915050565b6000611ed2602383612126565b7f506f776572544f4e3a2063757272656e7420726f756e64206973206e6f74207a81526265726f60e81b602082015260400192915050565b611ad6816106bb565b611ad681612162565b611ad681612144565b600061042082611cca565b602081016104208284611adc565b602081016104208284611acd565b60408101611f5a8285611adc565b610f696020830184611f0a565b602081016104208284611ae5565b60208082528101610f698184611aee565b6020808252810161042081611b26565b6020808252810161042081611b5f565b6020808252810161042081611b8f565b6020808252810161042081611bc8565b6020808252810161042081611c1a565b6020808252810161042081611c49565b6020808252810161042081611c91565b6020808252810161042081611cf4565b6020808252810161042081611d2d565b6020808252810161042081611d59565b6020808252810161042081611d92565b6020808252810161042081611dd5565b6020808252810161042081611e18565b6020808252810161042081611e51565b6020808252810161042081611e95565b6020808252810161042081611ec5565b602081016104208284611f0a565b606081016120a28286611f0a565b6120af6020830185611adc565b6119e46040830184611f0a565b606081016120ca8286611f0a565b6120d76020830185611f13565b6119e46040830184611f13565b608081016120f28287611f1c565b6120ff6020830186611f1c565b61210c6040830185611f0a565b6121196060830184611adc565b95945050505050565b5190565b90815260200190565b919050565b600061042082610c3c565b151590565b67ffffffffffffffff1690565b600061042082600061042082612134565b600061042082612144565b60005b83811015612188578181015183820152602001612170565b83811115610f3e5750506000910152565b601f01601f191690565b6121ac81612134565b811461092757600080fd5b6121ac8161213f565b6121ac816106bb56fea365627a7a723158206196ce72afbc5cfef73b02e28a1075ee8ba7ef6ca81eb0d75294f2aeadaaa5c46c6578706572696d656e74616cf564736f6c634300050c0040",
  "source": "pragma solidity ^0.5.12;\npragma experimental ABIEncoderV2;\n\n\nimport { Ownable } from \"../../../node_modules/openzeppelin-solidity/contracts/ownership/Ownable.sol\";\nimport { Pausable } from \"../../../node_modules/openzeppelin-solidity/contracts/lifecycle/Pausable.sol\";\nimport { SafeMath } from \"../../../node_modules/openzeppelin-solidity/contracts/math/SafeMath.sol\";\nimport { IERC20 } from \"../../../node_modules/openzeppelin-solidity/contracts/token/ERC20/IERC20.sol\";\nimport { SafeERC20 } from \"../../../node_modules/openzeppelin-solidity/contracts/token/ERC20/SafeERC20.sol\";\n\nimport { WTON } from \"../tokens/WTON.sol\";\nimport { AuthController } from \"../tokens/AuthController.sol\";\n\nimport { SortitionSumTreeFactory } from \"../../lib/SortitionSumTreeFactory.sol\";\n\nimport { DepositManagerI } from \"../interfaces/DepositManagerI.sol\";\nimport { PowerTONI } from \"../interfaces/PowerTONI.sol\";\n\ncontract PowerTON is Ownable, Pausable, AuthController, PowerTONI {\n  using SafeMath for *;\n  using SafeERC20 for IERC20;\n  using SortitionSumTreeFactory for SortitionSumTreeFactory.SortitionSumTrees;\n\n  struct Round {\n    uint64  startTime;\n    uint64  endTime;\n    uint256 reward;\n    address winner;\n  }\n\n  // contracts\n  address internal _seigManager;\n  address internal _wton;\n\n  // rounds\n  uint256 internal _currentRound;\n  // TODO: consider block nubmer\n  uint256 internal _roundDuration; // unix timestamp\n  mapping(uint256 => Round) public rounds;\n\n  uint256 public constant REWARD_NUMERATOR = 8;\n  uint256 public constant REWARD_DENOMINATOR = 10;\n\n  // sortition\n  SortitionSumTreeFactory.SortitionSumTrees internal sortitionSumTrees;\n\n  bytes32 constant internal TREE_KEY = keccak256(\"power-balances\");\n  bytes32 constant internal TREE_KEY_PREFIX = keccak256(\"power-balances\");\n  uint256 constant internal TREE_NUM_CHILDREN = 16;\n\n  // balances\n  uint256 internal _totalDeposits;\n\n  // randomness\n  uint256 internal constant maskLast8Bits = uint256(0xff);\n  uint256 internal constant maskFirst248Bits = uint256(~0xff);\n\n  //////////////////////////////\n  // Modifiers\n  //////////////////////////////\n\n  modifier checkRound() {\n    if (currentRoundFinished()) {\n      _endRound();\n    }\n    _;\n  }\n\n  //////////////////////////////\n  // Events\n  //////////////////////////////\n\n  event RoundStart(uint256 round, uint256 startTime, uint256 endTime);\n  event RoundEnd(uint256 round, address winner, uint256 reward);\n  event PowerIncreased(address indexed account, uint256 amount);\n  event PowerDecreased(address indexed account, uint256 amount);\n\n  //////////////////////////////\n  // Constructor\n  //////////////////////////////\n\n  constructor (\n    address seigManager,\n    address wton,\n    uint256 roundDuration\n  ) public {\n    require(roundDuration > 0);\n\n    _seigManager = seigManager;\n    _wton = wton;\n    _roundDuration = roundDuration;\n  }\n\n  /**\n   * @dev set SeigManager contract, only by owner.\n   */\n  function setSeigManager(address seigManager) external onlyOwner {\n    _seigManager = seigManager;\n  }\n\n  function init() external onlyOwner {\n    sortitionSumTrees.createTree(TREE_KEY, TREE_NUM_CHILDREN);\n  }\n\n  function start() external onlyOwner {\n    require(_currentRound == 0, \"PowerTON: current round is not zero\");\n    require(rounds[_currentRound].startTime == 0 && rounds[_currentRound].endTime == 0, \"PowerTON: round already started\");\n    _startRound(0);\n  }\n\n  function powerOf(address account) external view returns (uint256) {\n    return sortitionSumTrees.stakeOf(TREE_KEY, _getID(account));\n  }\n\n  /**\n   * @dev end current round\n   */\n  function endRound() external {\n    require(currentRoundFinished(), \"PowerTON: round not finished\");\n    _endRound();\n  }\n\n  function roundStarted(uint256 round) public view returns (bool) {\n    return rounds[round].startTime != 0 && rounds[round].endTime != 0;\n  }\n\n  function roundFinished(uint256 round) public view returns (bool) {\n    return roundStarted(round) &&\n      rounds[round].endTime < block.timestamp &&\n      rounds[round].winner == address(0);\n  }\n\n  function currentRoundFinished() public view returns (bool) {\n    return roundFinished(_currentRound);\n  }\n\n  function _endRound() internal {\n    // short circuit in case of no deposit\n    if (_totalDeposits == 0) {\n      return;\n    }\n\n    uint256 round = _currentRound;\n    Round storage r = rounds[round];\n\n    uint256 n = _seed(block.number - 1) % _totalDeposits;\n    address winner = _recoverID(sortitionSumTrees.draw(TREE_KEY, n));\n    require(winner != address(0), \"PowerTON: no winner\");\n    r.winner = winner;\n\n\n    uint256 reward = IERC20(_wton).balanceOf(address(this))\n      .mul(REWARD_NUMERATOR)\n      .div(REWARD_DENOMINATOR);\n\n    r.reward = reward;\n\n    emit RoundEnd(round, winner, reward);\n\n    _currentRound += 1;\n    _startRound(_currentRound);\n\n    WTON(_wton).swapToTONAndTransfer(winner, reward);\n  }\n\n  //////////////////////////////\n  // SeigManager\n  //////////////////////////////\n\n  function onDeposit(\n    address rootchain,\n    address account,\n    uint256 amount\n  ) external checkRound {\n    require(msg.sender == _seigManager);\n    _increaseEffectiveBalance(account, amount);\n    _totalDeposits = _totalDeposits.add(amount);\n\n    emit PowerIncreased(account, amount);\n  }\n\n  function onWithdraw(\n    address rootchain,\n    address account,\n    uint256 amount\n  ) external checkRound {\n    require(msg.sender == _seigManager);\n    uint256 v = _decreaseEffectiveBalance(account, amount);\n    _totalDeposits = _totalDeposits.sub(v);\n    emit PowerDecreased(account, v);\n  }\n\n  //////////////////////////////\n  // External storage getters\n  //////////////////////////////\n\n  function seigManager() external view returns (address) { return _seigManager; }\n  function wton() external view returns (address) { return _wton; }\n  function currentRound() external view returns (uint256) { return _currentRound; }\n  function roundDuration() external view returns (uint256) { return _roundDuration; }\n  function totalDeposits() external view returns (uint256) { return _totalDeposits; }\n  function winnerOf(uint256 round) external view returns (address) {\n    return rounds[round].winner;\n  }\n\n  //////////////////////////////\n  // Internal functions\n  //////////////////////////////\n\n  // TODO: enable upgradability\n  // TODO: use other entrophy source\n  // https://github.com/cryptocopycats/awesome-cryptokitties/blob/master/contracts/GeneScience.sol#L111-L133\n  function _seed(uint256 _targetBlock) internal view returns (uint256 randomN) {\n    uint256 h = uint256(blockhash(_targetBlock));\n\n    if (h == 0) {\n      _targetBlock = (block.number & maskFirst248Bits) + (_targetBlock & maskLast8Bits);\n      if (_targetBlock >= block.number) _targetBlock -= 256;\n\n      h = uint256(blockhash(_targetBlock));\n    }\n\n    randomN = (h + block.number + uint256(blockhash(block.number - 1))) * h * h * _totalDeposits;\n  }\n\n  function _startRound(uint256 round) internal {\n    require(\n      round == 0 ||\n      (rounds[round - 1].endTime < block.timestamp\n        && rounds[round - 1].winner != address(0))\n    );\n\n    Round storage r = rounds[round];\n    require(r.startTime == 0 && r.endTime == 0 && r.winner == address(0));\n\n    uint64 startTime = uint64(block.timestamp);\n    uint64 endTime = uint64(block.timestamp + _roundDuration);\n    r.startTime = startTime;\n    r.endTime = endTime;\n\n    emit RoundStart(round, startTime, endTime);\n  }\n\n  function _increaseEffectiveBalance(address account, uint256 amount) internal {\n    bytes32 id = _getID(account);\n    uint256 value = sortitionSumTrees.stakeOf(TREE_KEY, id).add(amount);\n\n    sortitionSumTrees.set(TREE_KEY, value, id);\n  }\n\n  function _decreaseEffectiveBalance(address account, uint256 amount) internal returns (uint256) {\n    bytes32 id = _getID(account);\n\n    uint256 stake = sortitionSumTrees.stakeOf(TREE_KEY, id);\n    uint256 value = _sub0(stake, amount);\n\n    sortitionSumTrees.set(TREE_KEY, value, id);\n    return stake - value;\n  }\n\n  /**\n   * @dev return a - b if a > b, otherwise 0\n   */\n  function _sub0(uint256 a, uint256 b) internal pure returns (uint256) {\n    if (a > b) return a - b;\n    return 0;\n  }\n\n  function _getID(address account) internal pure returns (bytes32) {\n    return bytes32(uint256(account));\n  }\n\n  function _recoverID(bytes32 id) internal pure returns (address) {\n    return address(uint160(uint256(id)));\n  }\n\n  function _getTreeKey(uint256 round) internal pure returns (bytes32 k) {\n    require(round < 2 ** 224);\n\n    k = bytes32(TREE_KEY_PREFIX);\n    assembly {\n      k := add(k, round)\n    }\n  }\n}",
  "sourcePath": "/Users/pjh/workspace/plasma-evm-contracts/contracts/stake/powerton/PowerTON.sol",
  "compiler": {
    "name": "solc",
    "version": "0.5.12+commit.7709ece9.Emscripten.clang"
  },
  "schemaVersion": "3.0.23",
  "updatedAt": "2020-04-03T08:24:39.707Z",
  "devdoc": {
    "methods": {
      "endRound()": {
        "details": "end current round"
      },
      "isOwner()": {
        "details": "Returns true if the caller is the current owner."
      },
      "owner()": {
        "details": "Returns the address of the current owner."
      },
      "pause()": {
        "details": "Called by a pauser to pause, triggers stopped state."
      },
      "paused()": {
        "details": "Returns true if the contract is paused, and false otherwise."
      },
      "renounceOwnership()": {
        "details": "Leaves the contract without owner. It will not be possible to call `onlyOwner` functions anymore. Can only be called by the current owner.     * NOTE: Renouncing ownership will leave the contract without an owner, thereby removing any functionality that is only available to the owner."
      },
      "setSeigManager(address)": {
        "details": "set SeigManager contract, only by owner."
      },
      "transferOwnership(address)": {
        "details": "Transfers ownership of the contract to a new account (`newOwner`). Can only be called by the current owner."
      },
      "unpause()": {
        "details": "Called by a pauser to unpause, returns to normal state."
      }
    }
  },
  "userdoc": {
    "methods": {
      "constructor": "///////////////////////////",
      "onDeposit(address,address,uint256)": {
        "notice": "///////////////////////////"
      },
      "seigManager()": {
        "notice": "///////////////////////////"
      }
    }
  }
}