{
  "contractName": "RequestableSimpleToken",
  "abi": [
    {
      "anonymous": false,
      "inputs": [
        {
          "indexed": false,
          "internalType": "address",
          "name": "_to",
          "type": "address"
        },
        {
          "indexed": false,
          "internalType": "uint256",
          "name": "_value",
          "type": "uint256"
        }
      ],
      "name": "Mint",
      "type": "event"
    },
    {
      "anonymous": false,
      "inputs": [
        {
          "indexed": true,
          "internalType": "address",
          "name": "previousOwner",
          "type": "address"
        },
        {
          "indexed": true,
          "internalType": "address",
          "name": "newOwner",
          "type": "address"
        }
      ],
      "name": "OwnershipTransferred",
      "type": "event"
    },
    {
      "anonymous": false,
      "inputs": [
        {
          "indexed": false,
          "internalType": "bool",
          "name": "_isExit",
          "type": "bool"
        },
        {
          "indexed": false,
          "internalType": "address",
          "name": "_requestor",
          "type": "address"
        },
        {
          "indexed": false,
          "internalType": "bytes32",
          "name": "_trieKey",
          "type": "bytes32"
        },
        {
          "indexed": false,
          "internalType": "bytes",
          "name": "_trieValue",
          "type": "bytes"
        }
      ],
      "name": "Requested",
      "type": "event"
    },
    {
      "anonymous": false,
      "inputs": [
        {
          "indexed": false,
          "internalType": "address",
          "name": "_from",
          "type": "address"
        },
        {
          "indexed": false,
          "internalType": "address",
          "name": "_to",
          "type": "address"
        },
        {
          "indexed": false,
          "internalType": "uint256",
          "name": "_value",
          "type": "uint256"
        }
      ],
      "name": "Transfer",
      "type": "event"
    },
    {
      "constant": true,
      "inputs": [],
      "name": "KEY_OWNER",
      "outputs": [
        {
          "internalType": "bytes32",
          "name": "",
          "type": "bytes32"
        }
      ],
      "payable": false,
      "stateMutability": "view",
      "type": "function"
    },
    {
      "constant": true,
      "inputs": [],
      "name": "KEY_TOTAL_SUPPLY",
      "outputs": [
        {
          "internalType": "bytes32",
          "name": "",
          "type": "bytes32"
        }
      ],
      "payable": false,
      "stateMutability": "view",
      "type": "function"
    },
    {
      "constant": true,
      "inputs": [],
      "name": "PERFIX_BALANCES",
      "outputs": [
        {
          "internalType": "bytes32",
          "name": "",
          "type": "bytes32"
        }
      ],
      "payable": false,
      "stateMutability": "view",
      "type": "function"
    },
    {
      "constant": true,
      "inputs": [
        {
          "internalType": "address",
          "name": "",
          "type": "address"
        }
      ],
      "name": "balances",
      "outputs": [
        {
          "internalType": "uint256",
          "name": "",
          "type": "uint256"
        }
      ],
      "payable": false,
      "stateMutability": "view",
      "type": "function"
    },
    {
      "constant": true,
      "inputs": [],
      "name": "isOwner",
      "outputs": [
        {
          "internalType": "bool",
          "name": "",
          "type": "bool"
        }
      ],
      "payable": false,
      "stateMutability": "view",
      "type": "function"
    },
    {
      "constant": true,
      "inputs": [],
      "name": "owner",
      "outputs": [
        {
          "internalType": "address",
          "name": "",
          "type": "address"
        }
      ],
      "payable": false,
      "stateMutability": "view",
      "type": "function"
    },
    {
      "constant": false,
      "inputs": [],
      "name": "renounceOwnership",
      "outputs": [],
      "payable": false,
      "stateMutability": "nonpayable",
      "type": "function"
    },
    {
      "constant": true,
      "inputs": [],
      "name": "totalSupply",
      "outputs": [
        {
          "internalType": "uint256",
          "name": "",
          "type": "uint256"
        }
      ],
      "payable": false,
      "stateMutability": "view",
      "type": "function"
    },
    {
      "constant": false,
      "inputs": [
        {
          "internalType": "address",
          "name": "newOwner",
          "type": "address"
        }
      ],
      "name": "transferOwnership",
      "outputs": [],
      "payable": false,
      "stateMutability": "nonpayable",
      "type": "function"
    },
    {
      "constant": false,
      "inputs": [
        {
          "internalType": "address",
          "name": "_to",
          "type": "address"
        },
        {
          "internalType": "uint256",
          "name": "_value",
          "type": "uint256"
        }
      ],
      "name": "transfer",
      "outputs": [],
      "payable": false,
      "stateMutability": "nonpayable",
      "type": "function"
    },
    {
      "constant": false,
      "inputs": [
        {
          "internalType": "address",
          "name": "_to",
          "type": "address"
        },
        {
          "internalType": "uint256",
          "name": "_value",
          "type": "uint256"
        }
      ],
      "name": "mint",
      "outputs": [],
      "payable": false,
      "stateMutability": "nonpayable",
      "type": "function"
    },
    {
      "constant": true,
      "inputs": [
        {
          "internalType": "address",
          "name": "who",
          "type": "address"
        }
      ],
      "name": "getBalanceTrieKey",
      "outputs": [
        {
          "internalType": "bytes32",
          "name": "",
          "type": "bytes32"
        }
      ],
      "payable": false,
      "stateMutability": "pure",
      "type": "function"
    },
    {
      "constant": false,
      "inputs": [
        {
          "internalType": "bool",
          "name": "isExit",
          "type": "bool"
        },
        {
          "internalType": "uint256",
          "name": "requestId",
          "type": "uint256"
        },
        {
          "internalType": "address",
          "name": "requestor",
          "type": "address"
        },
        {
          "internalType": "bytes32",
          "name": "trieKey",
          "type": "bytes32"
        },
        {
          "internalType": "bytes",
          "name": "trieValue",
          "type": "bytes"
        }
      ],
      "name": "applyRequestInRootChain",
      "outputs": [
        {
          "internalType": "bool",
          "name": "success",
          "type": "bool"
        }
      ],
      "payable": false,
      "stateMutability": "nonpayable",
      "type": "function"
    },
    {
      "constant": false,
      "inputs": [
        {
          "internalType": "bool",
          "name": "isExit",
          "type": "bool"
        },
        {
          "internalType": "uint256",
          "name": "requestId",
          "type": "uint256"
        },
        {
          "internalType": "address",
          "name": "requestor",
          "type": "address"
        },
        {
          "internalType": "bytes32",
          "name": "trieKey",
          "type": "bytes32"
        },
        {
          "internalType": "bytes",
          "name": "trieValue",
          "type": "bytes"
        }
      ],
      "name": "applyRequestInChildChain",
      "outputs": [
        {
          "internalType": "bool",
          "name": "success",
          "type": "bool"
        }
      ],
      "payable": false,
      "stateMutability": "nonpayable",
      "type": "function"
    },
    {
      "constant": true,
      "inputs": [
        {
          "internalType": "bytes",
          "name": "trieValue",
          "type": "bytes"
        }
      ],
      "name": "decodeTrieValue",
      "outputs": [
        {
          "internalType": "uint256",
          "name": "v",
          "type": "uint256"
        }
      ],
      "payable": false,
      "stateMutability": "pure",
      "type": "function"
    }
  ],
  "bytecode": "0x60806040819052600080546001600160a01b03191633178082556001600160a01b0316917f8be0079c531659141344cd1fd0a4f28419497f9722a3daafe3b4186f6b6457e0908290a3610c19806100576000396000f3fe608060405234801561001057600080fd5b50600436106100f55760003560e01c8063a849081511610097578063b9e59d0911610066578063b9e59d0914610330578063cb069663146103d6578063f2fde38b146103de578063f904d9eb14610404576100f5565b8063a849081514610243578063a9059cbb1461024b578063a9f7930814610277578063b18fcfdf1461030a576100f5565b806340c10f19116100d357806340c10f19146101e1578063715018a61461020f5780638da5cb5b146102175780638f32d59b1461023b576100f5565b8063141ecf46146100fa57806318160ddd146101a157806327e235e3146101bb575b600080fd5b61018d600480360360a081101561011057600080fd5b81351515916020810135916001600160a01b036040830135169160608101359181019060a08101608082013564010000000081111561014e57600080fd5b82018360208201111561016057600080fd5b8035906020019184600183028401116401000000008311171561018257600080fd5b50909250905061040c565b604080519115158252519081900360200190f35b6101a961067f565b60408051918252519081900360200190f35b6101a9600480360360208110156101d157600080fd5b50356001600160a01b0316610685565b61020d600480360360408110156101f757600080fd5b506001600160a01b038135169060200135610697565b005b61020d6107d4565b61021f610877565b604080516001600160a01b039092168252519081900360200190f35b61018d610886565b6101a9610897565b61020d6004803603604081101561026157600080fd5b506001600160a01b03813516906020013561089c565b61018d600480360360a081101561028d57600080fd5b81351515916020810135916001600160a01b036040830135169160608101359181019060a0810160808201356401000000008111156102cb57600080fd5b8201836020820111156102dd57600080fd5b803590602001918460018302840111640100000000831117156102ff57600080fd5b50909250905061094f565b6101a96004803603602081101561032057600080fd5b50356001600160a01b0316610a2a565b6101a96004803603602081101561034657600080fd5b81019060208101813564010000000081111561036157600080fd5b82018360208201111561037357600080fd5b8035906020019184600183028401116401000000008311171561039557600080fd5b91908080601f016020809104026020016040519081016040528093929190818152602001838380828437600092019190915250929550610a69945050505050565b6101a9610a81565b61020d600480360360208110156103f457600080fd5b50356001600160a01b0316610a86565b6101a9610aeb565b60008581526003602052604081205460ff161561042857600080fd5b8615610543578361045d57846001600160a01b0316610445610877565b6001600160a01b03161461045857600080fd5b61053e565b600184141561046b57600080fd5b8361047586610a2a565b14156100f5576104ba83838080601f016020809104026020016040519081016040528093929190818152602001838380828437600092019190915250610a6992505050565b6001600160a01b03861660009081526002602052604090205410156104de57600080fd5b61051d83838080601f016020809104026020016040519081016040528093929190818152602001838380828437600092019190915250610a6992505050565b6001600160a01b038616600090815260026020526040902080549190910390555b6105ce565b836105515761053e85610af0565b600184141561055f576105ce565b8361056986610a2a565b14156100f5576105ae83838080601f016020809104026020016040519081016040528093929190818152602001838380828437600092019190915250610a6992505050565b6001600160a01b0386166000908152600260205260409020805490910190555b600086815260036020908152604091829020805460ff19166001179055815189151581526001600160a01b038816918101919091529081018590526080606082018181529082018490527fc9cca1cafbefa6d9c2ec79c95fc6e689905c6e96616a1e7406f13cf725f3cd15918991889188918891889160a08201848480828437600083820152604051601f909101601f19169092018290039850909650505050505050a15060019695505050505050565b60015481565b60026020526000908152604090205481565b61069f610886565b6106f0576040805162461bcd60e51b815260206004820181905260248201527f4f776e61626c653a2063616c6c6572206973206e6f7420746865206f776e6572604482015290519081900360640190fd5b600154610703908263ffffffff610b9016565b6001556001600160a01b03821660009081526002602052604090205461072f908263ffffffff610b9016565b6001600160a01b03831660008181526002602090815260409182902093909355805191825291810183905281517f0f6798a560793a54c3bcfe86a93cde1e73087d944c0ea20544137d4121396885929181900390910190a160408051600081526001600160a01b038416602082015280820183905290517fddf252ad1be2c89b69c2b068fc378daa952ba7f163c4a11628f55a4df523b3ef9181900360600190a15050565b6107dc610886565b61082d576040805162461bcd60e51b815260206004820181905260248201527f4f776e61626c653a2063616c6c6572206973206e6f7420746865206f776e6572604482015290519081900360640190fd5b600080546040516001600160a01b03909116907f8be0079c531659141344cd1fd0a4f28419497f9722a3daafe3b4186f6b6457e0908390a3600080546001600160a01b0319169055565b6000546001600160a01b031690565b6000546001600160a01b0316331490565b600281565b336000908152600260205260409020546108bc908263ffffffff610ba916565b33600090815260026020526040808220929092556001600160a01b038416815220546108ee908263ffffffff610b9016565b6001600160a01b03831660008181526002602090815260409182902093909355805133815292830191909152818101839052517fddf252ad1be2c89b69c2b068fc378daa952ba7f163c4a11628f55a4df523b3ef9181900360600190a15050565b60008581526003602052604081205460ff161561096b57600080fd5b8615610a00578361097f5761045885610af0565b600184141561098d5761053e565b8361099786610a2a565b141561053e576109dc83838080601f016020809104026020016040519081016040528093929190818152602001838380828437600092019190915250610a6992505050565b6001600160a01b03861660009081526002602052604090208054909101905561053e565b8361045d57846001600160a01b0316610a17610877565b6001600160a01b03161461053e57600080fd5b60408051606092831b6bffffffffffffffffffffffff191660208083019190915260028284015282518083038401815293909101909152815191012090565b60008151602014610a7957600080fd5b506020015190565b600181565b610a8e610886565b610adf576040805162461bcd60e51b815260206004820181905260248201527f4f776e61626c653a2063616c6c6572206973206e6f7420746865206f776e6572604482015290519081900360640190fd5b610ae881610af0565b50565b600081565b6001600160a01b038116610b355760405162461bcd60e51b8152600401808060200182810382526026815260200180610bbf6026913960400191505060405180910390fd5b600080546040516001600160a01b03808516939216917f8be0079c531659141344cd1fd0a4f28419497f9722a3daafe3b4186f6b6457e091a3600080546001600160a01b0319166001600160a01b0392909216919091179055565b600082820183811015610ba257600080fd5b9392505050565b600082821115610bb857600080fd5b5090039056fe4f776e61626c653a206e6577206f776e657220697320746865207a65726f2061646472657373a265627a7a723158207de2f305c23536823b94c06ebe9d858f7cacb3c2208af1a67857231ad6508e2064736f6c634300050c0032",
  "source": "pragma solidity ^0.5.12;\n\nimport \"./lib/SafeMath.sol\";\nimport \"./lib/Ownable.sol\";\nimport \"./RequestableI.sol\";\n\n\ncontract RequestableSimpleToken is Ownable, RequestableI {\n  using SafeMath for *;\n\n  // `owner` is stored at bytes32(0).\n  // address owner; from Ownable\n\n  // `totalSupply` is stored at bytes32(1).\n  uint public totalSupply;\n\n  // `balances[addr]` is stored at keccak256(bytes32(addr), bytes32(2)).\n  mapping(address => uint) public balances;\n\n  // requests\n  mapping(uint => bool) appliedRequests;\n\n  bytes32 constant public KEY_OWNER         = 0x0000000000000000000000000000000000000000000000000000000000000000;\n  bytes32 constant public KEY_TOTAL_SUPPLY  = 0x0000000000000000000000000000000000000000000000000000000000000001;\n  bytes32 constant public PERFIX_BALANCES   = 0x0000000000000000000000000000000000000000000000000000000000000002;\n\n  /* Events */\n  event Transfer(address _from, address _to, uint _value);\n  event Mint(address _to, uint _value);\n  event Requested(bool _isExit, address _requestor, bytes32 _trieKey, bytes _trieValue);\n\n  function transfer(address _to, uint _value) public {\n    balances[msg.sender] = balances[msg.sender].sub(_value);\n    balances[_to] = balances[_to].add(_value);\n\n    emit Transfer(msg.sender, _to, _value);\n  }\n\n  function mint(address _to, uint _value) public onlyOwner {\n    totalSupply = totalSupply.add(_value);\n    balances[_to] = balances[_to].add(_value);\n\n    emit Mint(_to, _value);\n    emit Transfer(address(0), _to, _value);\n  }\n\n  // User can get the trie key of one's balance and make an enter request directly.\n  function getBalanceTrieKey(address who) public pure returns (bytes32) {\n    return keccak256(abi.encodePacked(bytes32(bytes20(who)), PERFIX_BALANCES));\n  }\n\n  function applyRequestInRootChain(\n    bool isExit,\n    uint256 requestId,\n    address requestor,\n    bytes32 trieKey,\n    bytes calldata trieValue\n  ) external returns (bool success) {\n    // TODO: adpot RootChain\n    // require(msg.sender == address(rootchain));\n\n    require(!appliedRequests[requestId]);\n\n    if (isExit) {\n      if (KEY_OWNER == trieKey) {\n        // only owner (in child chain) can exit `owner` variable.\n        // but it is checked in applyRequestInChildChain and exitChallenge.\n\n        // set requestor as owner in root chain.\n        _transferOwnership(requestor);\n      } else if (KEY_TOTAL_SUPPLY == trieKey) {\n        // no one can exit `totalSupply` variable.\n        // but do nothing to return true.\n      } else if (getBalanceTrieKey(requestor) == trieKey) {\n        // this checks trie key equals to `balances[requestor]`.\n        // only token holder can exit one's token.\n        // exiting means moving tokens from child chain to root chain.\n        balances[requestor] += decodeTrieValue(trieValue);\n      } else {\n        // cannot exit other variables.\n        // but do nothing to return true.\n      }\n    } else {\n      // apply enter\n      if (KEY_OWNER == trieKey) {\n        // only owner (in root chain) can enter `owner` variable.\n        require(owner() == requestor);\n        // do nothing in root chain\n      } else if (KEY_TOTAL_SUPPLY == trieKey) {\n        // no one can enter `totalSupply` variable.\n        revert();\n      } else if (getBalanceTrieKey(requestor) == trieKey) {\n        // this checks trie key equals to `balances[requestor]`.\n        // only token holder can enter one's token.\n        // entering means moving tokens from root chain to child chain.\n        require(balances[requestor] >= decodeTrieValue(trieValue));\n        balances[requestor] -= decodeTrieValue(trieValue);\n      } else {\n        // cannot apply request on other variables.\n        revert();\n      }\n    }\n\n    appliedRequests[requestId] = true;\n\n    emit Requested(isExit, requestor, trieKey, trieValue);\n\n    // TODO: adpot RootChain\n    // setRequestApplied(requestId);\n    return true;\n  }\n\n  // this is only called by NULL_ADDRESS in child chain\n  // when i) exitRequest is initialized by startExit() or\n  //     ii) enterRequest is initialized\n  function applyRequestInChildChain(\n    bool isExit,\n    uint256 requestId,\n    address requestor,\n    bytes32 trieKey,\n    bytes calldata trieValue\n  ) external returns (bool success) {\n    // TODO: adpot child chain\n    // require(msg.sender == NULL_ADDRESS);\n    require(!appliedRequests[requestId]);\n\n    if (isExit) {\n      if (KEY_OWNER == trieKey) {\n        // only owner (in child chain) can exit `owner` variable.\n        require(owner() == requestor);\n\n        // do nothing when exit `owner` in child chain\n      } else if (KEY_TOTAL_SUPPLY == trieKey) {\n        // no one can exit `totalSupply` variable.\n        revert();\n      } else if (getBalanceTrieKey(requestor) == trieKey) {\n        // this checks trie key equals to `balances[tokenHolder]`.\n        // only token holder can exit one's token.\n        // exiting means moving tokens from child chain to root chain.\n\n        // revert provides a proof for `exitChallenge`.\n        require(balances[requestor] >= decodeTrieValue(trieValue));\n\n        balances[requestor] -= decodeTrieValue(trieValue);\n      } else { // cannot exit other variables.\n        revert();\n      }\n    } else { // apply enter\n      if (KEY_OWNER == trieKey) {\n        // only owner (in root chain) can make enterRequest of `owner` variable.\n        // but it is checked in applyRequestInRootChain.\n\n        _transferOwnership(requestor);\n      } else if (KEY_TOTAL_SUPPLY == trieKey) {\n        // no one can enter `totalSupply` variable.\n      } else if (getBalanceTrieKey(requestor) == trieKey) {\n        // this checks trie key equals to `balances[tokenHolder]`.\n        // only token holder can enter one's token.\n        // entering means moving tokens from root chain to child chain.\n        balances[requestor] += decodeTrieValue(trieValue);\n      } else {\n        // cannot apply request on other variables.\n        revert();\n      }\n    }\n\n    appliedRequests[requestId] = true;\n\n    emit Requested(isExit, requestor, trieKey, trieValue);\n    return true;\n  }\n\n  function decodeTrieValue(bytes memory trieValue) public pure returns (uint v) {\n    require(trieValue.length == 0x20);\n\n    assembly {\n       v := mload(add(trieValue, 0x20))\n    }\n  }\n}\n",
  "sourcePath": "/Users/pjh/workspace/plasma-evm-contracts/contracts/RequestableSimpleToken.sol",
  "compiler": {
    "name": "solc",
    "version": "0.5.12+commit.7709ece9.Emscripten.clang"
  },
  "schemaVersion": "3.0.23",
  "updatedAt": "2020-03-24T05:34:09.009Z",
  "devdoc": {
    "methods": {
      "isOwner()": {
        "details": "Returns true if the caller is the current owner."
      },
      "owner()": {
        "details": "Returns the address of the current owner."
      },
      "renounceOwnership()": {
        "details": "Leaves the contract without owner. It will not be possible to call `onlyOwner` functions anymore. Can only be called by the current owner.     * > Note: Renouncing ownership will leave the contract without an owner, thereby removing any functionality that is only available to the owner."
      },
      "transferOwnership(address)": {
        "details": "Transfers ownership of the contract to a new account (`newOwner`). Can only be called by the current owner."
      }
    }
  },
  "userdoc": {
    "methods": {}
  }
}