{
  "contractName": "RootChainRegistry",
  "abi": [
    {
      "anonymous": false,
      "inputs": [
        {
          "indexed": true,
          "internalType": "address",
          "name": "previousOwner",
          "type": "address"
        },
        {
          "indexed": true,
          "internalType": "address",
          "name": "newOwner",
          "type": "address"
        }
      ],
      "name": "OwnershipTransferred",
      "type": "event"
    },
    {
      "constant": true,
      "inputs": [],
      "name": "isOwner",
      "outputs": [
        {
          "internalType": "bool",
          "name": "",
          "type": "bool"
        }
      ],
      "payable": false,
      "stateMutability": "view",
      "type": "function"
    },
    {
      "constant": true,
      "inputs": [],
      "name": "owner",
      "outputs": [
        {
          "internalType": "address",
          "name": "",
          "type": "address"
        }
      ],
      "payable": false,
      "stateMutability": "view",
      "type": "function"
    },
    {
      "constant": false,
      "inputs": [],
      "name": "renounceOwnership",
      "outputs": [],
      "payable": false,
      "stateMutability": "nonpayable",
      "type": "function"
    },
    {
      "constant": false,
      "inputs": [
        {
          "internalType": "address",
          "name": "newOwner",
          "type": "address"
        }
      ],
      "name": "transferOwnership",
      "outputs": [],
      "payable": false,
      "stateMutability": "nonpayable",
      "type": "function"
    },
    {
      "constant": true,
      "inputs": [
        {
          "internalType": "address",
          "name": "rootchain",
          "type": "address"
        }
      ],
      "name": "rootchains",
      "outputs": [
        {
          "internalType": "bool",
          "name": "",
          "type": "bool"
        }
      ],
      "payable": false,
      "stateMutability": "view",
      "type": "function"
    },
    {
      "constant": true,
      "inputs": [],
      "name": "numRootChains",
      "outputs": [
        {
          "internalType": "uint256",
          "name": "",
          "type": "uint256"
        }
      ],
      "payable": false,
      "stateMutability": "view",
      "type": "function"
    },
    {
      "constant": true,
      "inputs": [
        {
          "internalType": "uint256",
          "name": "index",
          "type": "uint256"
        }
      ],
      "name": "rootchainByIndex",
      "outputs": [
        {
          "internalType": "address",
          "name": "",
          "type": "address"
        }
      ],
      "payable": false,
      "stateMutability": "view",
      "type": "function"
    },
    {
      "constant": false,
      "inputs": [
        {
          "internalType": "address",
          "name": "rootchain",
          "type": "address"
        }
      ],
      "name": "register",
      "outputs": [
        {
          "internalType": "bool",
          "name": "",
          "type": "bool"
        }
      ],
      "payable": false,
      "stateMutability": "nonpayable",
      "type": "function"
    },
    {
      "constant": false,
      "inputs": [
        {
          "internalType": "address",
          "name": "rootchain",
          "type": "address"
        },
        {
          "internalType": "address",
          "name": "seigManager",
          "type": "address"
        }
      ],
      "name": "deployCoinage",
      "outputs": [
        {
          "internalType": "bool",
          "name": "",
          "type": "bool"
        }
      ],
      "payable": false,
      "stateMutability": "nonpayable",
      "type": "function"
    },
    {
      "constant": false,
      "inputs": [
        {
          "internalType": "address",
          "name": "rootchain",
          "type": "address"
        },
        {
          "internalType": "address",
          "name": "seigManager",
          "type": "address"
        }
      ],
      "name": "registerAndDeployCoinage",
      "outputs": [
        {
          "internalType": "bool",
          "name": "",
          "type": "bool"
        }
      ],
      "payable": false,
      "stateMutability": "nonpayable",
      "type": "function"
    },
    {
      "constant": false,
      "inputs": [
        {
          "internalType": "address",
          "name": "rootchain",
          "type": "address"
        },
        {
          "internalType": "address",
          "name": "seigManager",
          "type": "address"
        },
        {
          "internalType": "uint256",
          "name": "commissionRate",
          "type": "uint256"
        }
      ],
      "name": "registerAndDeployCoinageAndSetCommissionRate",
      "outputs": [
        {
          "internalType": "bool",
          "name": "",
          "type": "bool"
        }
      ],
      "payable": false,
      "stateMutability": "nonpayable",
      "type": "function"
    },
    {
      "constant": false,
      "inputs": [
        {
          "internalType": "address",
          "name": "rootchain",
          "type": "address"
        }
      ],
      "name": "unregister",
      "outputs": [
        {
          "internalType": "bool",
          "name": "",
          "type": "bool"
        }
      ],
      "payable": false,
      "stateMutability": "nonpayable",
      "type": "function"
    }
  ],
  "bytecode": "0x608060405260006100176001600160e01b0361006616565b600080546001600160a01b0319166001600160a01b0383169081178255604051929350917f8be0079c531659141344cd1fd0a4f28419497f9722a3daafe3b4186f6b6457e0908290a35061006a565b3390565b610b4b806100796000396000f3fe608060405234801561001057600080fd5b50600436106100b45760003560e01c80638da5cb5b116100715780638da5cb5b146101b05780638f32d59b146101b8578063b2b604d0146101c0578063bcb1a71e146101da578063bcc1b6ab14610208578063f2fde38b1461023e576100b4565b806302a15299146100b95780632ec2c246146100f35780634420e48614610119578063715018a61461013f578063821f602c146101495780638510860414610182575b600080fd5b6100df600480360360208110156100cf57600080fd5b50356001600160a01b0316610264565b604080519115158252519081900360200190f35b6100df6004803603602081101561010957600080fd5b50356001600160a01b0316610282565b6100df6004803603602081101561012f57600080fd5b50356001600160a01b0316610326565b6101476103fc565b005b6101666004803603602081101561015f57600080fd5b503561049f565b604080516001600160a01b039092168252519081900360200190f35b6100df6004803603604081101561019857600080fd5b506001600160a01b03813581169160200135166104ba565b610166610592565b6100df6105a1565b6101c86105c5565b60408051918252519081900360200190f35b6100df600480360360408110156101f057600080fd5b506001600160a01b03813581169160200135166105cb565b6100df6004803603606081101561021e57600080fd5b506001600160a01b038135811691602081013590911690604001356106c0565b6101476004803603602081101561025457600080fd5b50356001600160a01b03166107ca565b6001600160a01b031660009081526001602052604090205460ff1690565b600061028c6105a1565b6102dd576040805162461bcd60e51b815260206004820181905260248201527f4f776e61626c653a2063616c6c6572206973206e6f7420746865206f776e6572604482015290519081900360640190fd5b6001600160a01b03821660009081526001602052604090205460ff1661030257600080fd5b6001600160a01b039091166000908152600160205260409020805460ff1916905590565b6000816103316105a1565b806103b15750336001600160a01b0316816001600160a01b031663570ca7356040518163ffffffff1660e01b815260040160206040518083038186803b15801561037a57600080fd5b505afa15801561038e573d6000803e3d6000fd5b505050506040513d60208110156103a457600080fd5b50516001600160a01b0316145b6103ec5760405162461bcd60e51b8152600401808060200182810382526027815260200180610af06027913960400191505060405180910390fd5b6103f58361082f565b9392505050565b6104046105a1565b610455576040805162461bcd60e51b815260206004820181905260248201527f4f776e61626c653a2063616c6c6572206973206e6f7420746865206f776e6572604482015290519081900360640190fd5b600080546040516001600160a01b03909116907f8be0079c531659141344cd1fd0a4f28419497f9722a3daafe3b4186f6b6457e0908390a3600080546001600160a01b0319169055565b6000908152600360205260409020546001600160a01b031690565b6000826104c56105a1565b806105455750336001600160a01b0316816001600160a01b031663570ca7356040518163ffffffff1660e01b815260040160206040518083038186803b15801561050e57600080fd5b505afa158015610522573d6000803e3d6000fd5b505050506040513d602081101561053857600080fd5b50516001600160a01b0316145b6105805760405162461bcd60e51b8152600401808060200182810382526027815260200180610af06027913960400191505060405180910390fd5b61058a8484610911565b949350505050565b6000546001600160a01b031690565b600080546001600160a01b03166105b661099e565b6001600160a01b031614905090565b60025490565b6000826105d66105a1565b806106565750336001600160a01b0316816001600160a01b031663570ca7356040518163ffffffff1660e01b815260040160206040518083038186803b15801561061f57600080fd5b505afa158015610633573d6000803e3d6000fd5b505050506040513d602081101561064957600080fd5b50516001600160a01b0316145b6106915760405162461bcd60e51b8152600401808060200182810382526027815260200180610af06027913960400191505060405180910390fd5b61069a8461082f565b6106a357600080fd5b6106ad8484610911565b6106b657600080fd5b5060019392505050565b6000836106cb6105a1565b8061074b5750336001600160a01b0316816001600160a01b031663570ca7356040518163ffffffff1660e01b815260040160206040518083038186803b15801561071457600080fd5b505afa158015610728573d6000803e3d6000fd5b505050506040513d602081101561073e57600080fd5b50516001600160a01b0316145b6107865760405162461bcd60e51b8152600401808060200182810382526027815260200180610af06027913960400191505060405180910390fd5b61078f8561082f565b61079857600080fd5b6107a28585610911565b6107ab57600080fd5b6107b68585856109a2565b6107bf57600080fd5b506001949350505050565b6107d26105a1565b610823576040805162461bcd60e51b815260206004820181905260248201527f4f776e61626c653a2063616c6c6572206973206e6f7420746865206f776e6572604482015290519081900360640190fd5b61082c81610a29565b50565b6001600160a01b03811660009081526001602052604081205460ff161561085557600080fd5b816001600160a01b031663420bb4b86040518163ffffffff1660e01b815260040160206040518083038186803b15801561088e57600080fd5b505afa1580156108a2573d6000803e3d6000fd5b505050506040513d60208110156108b857600080fd5b50516108c357600080fd5b506001600160a01b03166000818152600160208181526040808420805460ff191684179055600280548552600390925290922080546001600160a01b03191690931790925580548201905590565b6000816001600160a01b031663833a774f846040518263ffffffff1660e01b815260040180826001600160a01b03166001600160a01b03168152602001915050602060405180830381600087803b15801561096b57600080fd5b505af115801561097f573d6000803e3d6000fd5b505050506040513d602081101561099557600080fd5b50519392505050565b3390565b6040805163aabc138b60e01b81526001600160a01b03858116600483015260248201849052915160009285169163aabc138b91604480830192602092919082900301818787803b1580156109f557600080fd5b505af1158015610a09573d6000803e3d6000fd5b505050506040513d6020811015610a1f57600080fd5b5051949350505050565b6001600160a01b038116610a6e5760405162461bcd60e51b8152600401808060200182810382526026815260200180610aca6026913960400191505060405180910390fd5b600080546040516001600160a01b03808516939216917f8be0079c531659141344cd1fd0a4f28419497f9722a3daafe3b4186f6b6457e091a3600080546001600160a01b0319166001600160a01b039290921691909117905556fe4f776e61626c653a206e6577206f776e657220697320746865207a65726f206164647265737373656e646572206973206e656974686572206f70657261746f72206e6f72206f70657261746f72a265627a7a723158209a7e454f6881b4845387d3deae17ad04599c0ffd82e3b72e381fd574091b949b64736f6c634300050c0032",
  "source": "pragma solidity ^0.5.12;\n\nimport { Ownable } from \"../../node_modules/openzeppelin-solidity/contracts/ownership/OWnable.sol\";\n\nimport { RootChainI } from \"../RootChainI.sol\";\n\nimport { SeigManagerI } from \"./interfaces/SeigManagerI.sol\";\nimport { RootChainRegistryI } from \"./interfaces/RootChainRegistryI.sol\";\n\n\n// TODO: transfer coinages ownership to seig manager\ncontract RootChainRegistry is RootChainRegistryI, Ownable {\n  // check whether the address is root chain contract or not\n  mapping (address => bool) internal _rootchains;\n\n  // array-like storages\n  // NOTE: unregistered rootchains could exists in that array. so, should check by rootchains(address)\n  uint256 internal _numRootChains;\n  mapping (uint256 => address) internal _rootchainByIndex;\n\n  modifier onlyOwnerOrOperator(address rootchain) {\n    require(isOwner() || RootChainI(rootchain).operator() == msg.sender, \"sender is neither operator nor operator\");\n    _;\n  }\n\n  function rootchains(address rootchain) external view returns (bool) {\n    return _rootchains[rootchain];\n  }\n\n  function numRootChains() external view returns (uint256) {\n    return _numRootChains;\n  }\n\n  function rootchainByIndex(uint256 index) external view returns (address) {\n    return _rootchainByIndex[index];\n  }\n\n  function register(address rootchain)\n    external\n    onlyOwnerOrOperator(rootchain)\n    returns (bool)\n  {\n    return _register(rootchain);\n  }\n\n  function _register(address rootchain) internal returns (bool) {\n    require(!_rootchains[rootchain]);\n    require(RootChainI(rootchain).isRootChain());\n\n    _rootchains[rootchain] = true;\n    _rootchainByIndex[_numRootChains] = rootchain;\n    _numRootChains += 1;\n\n    return true;\n  }\n\n  function deployCoinage(\n    address rootchain,\n    address seigManager\n  )\n    external\n    onlyOwnerOrOperator(rootchain)\n    returns (bool)\n  {\n    return _deployCoinage(rootchain, seigManager);\n  }\n\n  function _deployCoinage(\n    address rootchain,\n    address seigManager\n  )\n   internal\n   returns (bool)\n  {\n    return SeigManagerI(seigManager).deployCoinage(rootchain);\n  }\n\n  function registerAndDeployCoinage(\n    address rootchain,\n    address seigManager\n  )\n    external\n    onlyOwnerOrOperator(rootchain)\n    returns (bool)\n  {\n    require(_register(rootchain));\n    require(_deployCoinage(rootchain, seigManager));\n    return true;\n  }\n\n  function registerAndDeployCoinageAndSetCommissionRate(\n    address rootchain,\n    address seigManager,\n    uint256 commissionRate\n  )\n    external\n    onlyOwnerOrOperator(rootchain)\n    returns (bool)\n  {\n    require(_register(rootchain));\n    require(_deployCoinage(rootchain, seigManager));\n    require(_setCommissionRate(rootchain, seigManager, commissionRate));\n    return true;\n  }\n\n  function _setCommissionRate(\n    address rootchain,\n    address seigManager,\n    uint256 commissionRate\n  )\n    internal\n    returns (bool)\n  {\n    return SeigManagerI(seigManager).setCommissionRate(rootchain, commissionRate);\n  }\n\n  function unregister(address rootchain) external onlyOwner returns (bool) {\n    require(_rootchains[rootchain]);\n\n    _rootchains[rootchain] = false;\n  }\n}",
  "sourcePath": "/Users/pjh/workspace/plasma-evm-contracts/contracts/stake/RootChainRegistry.sol",
  "compiler": {
    "name": "solc",
    "version": "0.5.12+commit.7709ece9.Emscripten.clang"
  },
  "schemaVersion": "3.0.23",
  "updatedAt": "2020-04-03T08:24:39.593Z",
  "devdoc": {
    "methods": {
      "isOwner()": {
        "details": "Returns true if the caller is the current owner."
      },
      "owner()": {
        "details": "Returns the address of the current owner."
      },
      "renounceOwnership()": {
        "details": "Leaves the contract without owner. It will not be possible to call `onlyOwner` functions anymore. Can only be called by the current owner.     * NOTE: Renouncing ownership will leave the contract without an owner, thereby removing any functionality that is only available to the owner."
      },
      "transferOwnership(address)": {
        "details": "Transfers ownership of the contract to a new account (`newOwner`). Can only be called by the current owner."
      }
    }
  },
  "userdoc": {
    "methods": {}
  }
}