{
  "contractName": "RootChainStorage",
  "abi": [
    {
      "constant": true,
      "inputs": [],
      "name": "COST_ERO",
      "outputs": [
        {
          "internalType": "uint256",
          "name": "",
          "type": "uint256"
        }
      ],
      "payable": false,
      "stateMutability": "view",
      "type": "function"
    },
    {
      "constant": true,
      "inputs": [],
      "name": "COST_ERU",
      "outputs": [
        {
          "internalType": "uint256",
          "name": "",
          "type": "uint256"
        }
      ],
      "payable": false,
      "stateMutability": "view",
      "type": "function"
    },
    {
      "constant": true,
      "inputs": [],
      "name": "COST_NRB",
      "outputs": [
        {
          "internalType": "uint256",
          "name": "",
          "type": "uint256"
        }
      ],
      "payable": false,
      "stateMutability": "view",
      "type": "function"
    },
    {
      "constant": true,
      "inputs": [],
      "name": "COST_ORB",
      "outputs": [
        {
          "internalType": "uint256",
          "name": "",
          "type": "uint256"
        }
      ],
      "payable": false,
      "stateMutability": "view",
      "type": "function"
    },
    {
      "constant": true,
      "inputs": [],
      "name": "COST_URB",
      "outputs": [
        {
          "internalType": "uint256",
          "name": "",
          "type": "uint256"
        }
      ],
      "payable": false,
      "stateMutability": "view",
      "type": "function"
    },
    {
      "constant": true,
      "inputs": [],
      "name": "COST_URB_PREPARE",
      "outputs": [
        {
          "internalType": "uint256",
          "name": "",
          "type": "uint256"
        }
      ],
      "payable": false,
      "stateMutability": "view",
      "type": "function"
    },
    {
      "constant": true,
      "inputs": [],
      "name": "CP_COMPUTATION",
      "outputs": [
        {
          "internalType": "uint256",
          "name": "",
          "type": "uint256"
        }
      ],
      "payable": false,
      "stateMutability": "view",
      "type": "function"
    },
    {
      "constant": true,
      "inputs": [],
      "name": "CP_EXIT",
      "outputs": [
        {
          "internalType": "uint256",
          "name": "",
          "type": "uint256"
        }
      ],
      "payable": false,
      "stateMutability": "view",
      "type": "function"
    },
    {
      "constant": true,
      "inputs": [],
      "name": "CP_WITHHOLDING",
      "outputs": [
        {
          "internalType": "uint256",
          "name": "",
          "type": "uint256"
        }
      ],
      "payable": false,
      "stateMutability": "view",
      "type": "function"
    },
    {
      "constant": true,
      "inputs": [],
      "name": "EROIdToFinalize",
      "outputs": [
        {
          "internalType": "uint256",
          "name": "",
          "type": "uint256"
        }
      ],
      "payable": false,
      "stateMutability": "view",
      "type": "function"
    },
    {
      "constant": true,
      "inputs": [
        {
          "internalType": "uint256",
          "name": "",
          "type": "uint256"
        }
      ],
      "name": "EROs",
      "outputs": [
        {
          "internalType": "uint64",
          "name": "timestamp",
          "type": "uint64"
        },
        {
          "internalType": "bool",
          "name": "isExit",
          "type": "bool"
        },
        {
          "internalType": "bool",
          "name": "isTransfer",
          "type": "bool"
        },
        {
          "internalType": "bool",
          "name": "finalized",
          "type": "bool"
        },
        {
          "internalType": "bool",
          "name": "challenged",
          "type": "bool"
        },
        {
          "internalType": "uint128",
          "name": "value",
          "type": "uint128"
        },
        {
          "internalType": "address payable",
          "name": "requestor",
          "type": "address"
        },
        {
          "internalType": "address",
          "name": "to",
          "type": "address"
        },
        {
          "internalType": "bytes32",
          "name": "trieKey",
          "type": "bytes32"
        },
        {
          "internalType": "bytes32",
          "name": "hash",
          "type": "bytes32"
        },
        {
          "internalType": "bytes",
          "name": "trieValue",
          "type": "bytes"
        }
      ],
      "payable": false,
      "stateMutability": "view",
      "type": "function"
    },
    {
      "constant": true,
      "inputs": [],
      "name": "ERUIdToFinalize",
      "outputs": [
        {
          "internalType": "uint256",
          "name": "",
          "type": "uint256"
        }
      ],
      "payable": false,
      "stateMutability": "view",
      "type": "function"
    },
    {
      "constant": true,
      "inputs": [
        {
          "internalType": "uint256",
          "name": "",
          "type": "uint256"
        }
      ],
      "name": "ERUs",
      "outputs": [
        {
          "internalType": "uint64",
          "name": "timestamp",
          "type": "uint64"
        },
        {
          "internalType": "bool",
          "name": "isExit",
          "type": "bool"
        },
        {
          "internalType": "bool",
          "name": "isTransfer",
          "type": "bool"
        },
        {
          "internalType": "bool",
          "name": "finalized",
          "type": "bool"
        },
        {
          "internalType": "bool",
          "name": "challenged",
          "type": "bool"
        },
        {
          "internalType": "uint128",
          "name": "value",
          "type": "uint128"
        },
        {
          "internalType": "address payable",
          "name": "requestor",
          "type": "address"
        },
        {
          "internalType": "address",
          "name": "to",
          "type": "address"
        },
        {
          "internalType": "bytes32",
          "name": "trieKey",
          "type": "bytes32"
        },
        {
          "internalType": "bytes32",
          "name": "hash",
          "type": "bytes32"
        },
        {
          "internalType": "bytes",
          "name": "trieValue",
          "type": "bytes"
        }
      ],
      "payable": false,
      "stateMutability": "view",
      "type": "function"
    },
    {
      "constant": true,
      "inputs": [],
      "name": "NRELength",
      "outputs": [
        {
          "internalType": "uint256",
          "name": "",
          "type": "uint256"
        }
      ],
      "payable": false,
      "stateMutability": "view",
      "type": "function"
    },
    {
      "constant": true,
      "inputs": [],
      "name": "NULL_ADDRESS",
      "outputs": [
        {
          "internalType": "address",
          "name": "",
          "type": "address"
        }
      ],
      "payable": false,
      "stateMutability": "view",
      "type": "function"
    },
    {
      "constant": true,
      "inputs": [
        {
          "internalType": "uint256",
          "name": "",
          "type": "uint256"
        }
      ],
      "name": "ORBs",
      "outputs": [
        {
          "internalType": "bool",
          "name": "submitted",
          "type": "bool"
        },
        {
          "internalType": "uint64",
          "name": "numEnter",
          "type": "uint64"
        },
        {
          "internalType": "uint64",
          "name": "epochNumber",
          "type": "uint64"
        },
        {
          "internalType": "uint64",
          "name": "requestStart",
          "type": "uint64"
        },
        {
          "internalType": "uint64",
          "name": "requestEnd",
          "type": "uint64"
        },
        {
          "internalType": "address",
          "name": "trie",
          "type": "address"
        }
      ],
      "payable": false,
      "stateMutability": "view",
      "type": "function"
    },
    {
      "constant": true,
      "inputs": [],
      "name": "PREPARE_TIMEOUT",
      "outputs": [
        {
          "internalType": "uint256",
          "name": "",
          "type": "uint256"
        }
      ],
      "payable": false,
      "stateMutability": "view",
      "type": "function"
    },
    {
      "constant": true,
      "inputs": [],
      "name": "REQUEST_GAS",
      "outputs": [
        {
          "internalType": "uint256",
          "name": "",
          "type": "uint256"
        }
      ],
      "payable": false,
      "stateMutability": "view",
      "type": "function"
    },
    {
      "constant": true,
      "inputs": [
        {
          "internalType": "uint256",
          "name": "",
          "type": "uint256"
        }
      ],
      "name": "URBs",
      "outputs": [
        {
          "internalType": "bool",
          "name": "submitted",
          "type": "bool"
        },
        {
          "internalType": "uint64",
          "name": "numEnter",
          "type": "uint64"
        },
        {
          "internalType": "uint64",
          "name": "epochNumber",
          "type": "uint64"
        },
        {
          "internalType": "uint64",
          "name": "requestStart",
          "type": "uint64"
        },
        {
          "internalType": "uint64",
          "name": "requestEnd",
          "type": "uint64"
        },
        {
          "internalType": "address",
          "name": "trie",
          "type": "address"
        }
      ],
      "payable": false,
      "stateMutability": "view",
      "type": "function"
    },
    {
      "constant": true,
      "inputs": [],
      "name": "currentFork",
      "outputs": [
        {
          "internalType": "uint256",
          "name": "",
          "type": "uint256"
        }
      ],
      "payable": false,
      "stateMutability": "view",
      "type": "function"
    },
    {
      "constant": true,
      "inputs": [],
      "name": "development",
      "outputs": [
        {
          "internalType": "bool",
          "name": "",
          "type": "bool"
        }
      ],
      "payable": false,
      "stateMutability": "view",
      "type": "function"
    },
    {
      "constant": true,
      "inputs": [],
      "name": "epochHandler",
      "outputs": [
        {
          "internalType": "address",
          "name": "",
          "type": "address"
        }
      ],
      "payable": false,
      "stateMutability": "view",
      "type": "function"
    },
    {
      "constant": true,
      "inputs": [],
      "name": "etherToken",
      "outputs": [
        {
          "internalType": "address",
          "name": "",
          "type": "address"
        }
      ],
      "payable": false,
      "stateMutability": "view",
      "type": "function"
    },
    {
      "constant": true,
      "inputs": [
        {
          "internalType": "uint256",
          "name": "",
          "type": "uint256"
        }
      ],
      "name": "firstFilledORENumber",
      "outputs": [
        {
          "internalType": "uint256",
          "name": "",
          "type": "uint256"
        }
      ],
      "payable": false,
      "stateMutability": "view",
      "type": "function"
    },
    {
      "constant": true,
      "inputs": [
        {
          "internalType": "uint256",
          "name": "",
          "type": "uint256"
        }
      ],
      "name": "firstNonEmptyRequestEpoch",
      "outputs": [
        {
          "internalType": "uint256",
          "name": "",
          "type": "uint256"
        }
      ],
      "payable": false,
      "stateMutability": "view",
      "type": "function"
    },
    {
      "constant": true,
      "inputs": [
        {
          "internalType": "uint256",
          "name": "",
          "type": "uint256"
        }
      ],
      "name": "forks",
      "outputs": [
        {
          "internalType": "uint64",
          "name": "forkedBlock",
          "type": "uint64"
        },
        {
          "internalType": "uint64",
          "name": "firstEpoch",
          "type": "uint64"
        },
        {
          "internalType": "uint64",
          "name": "lastEpoch",
          "type": "uint64"
        },
        {
          "internalType": "uint64",
          "name": "firstBlock",
          "type": "uint64"
        },
        {
          "internalType": "uint64",
          "name": "lastBlock",
          "type": "uint64"
        },
        {
          "internalType": "uint64",
          "name": "lastFinalizedEpoch",
          "type": "uint64"
        },
        {
          "internalType": "uint64",
          "name": "lastFinalizedBlock",
          "type": "uint64"
        },
        {
          "internalType": "uint64",
          "name": "timestamp",
          "type": "uint64"
        },
        {
          "internalType": "uint64",
          "name": "firstEnterEpoch",
          "type": "uint64"
        },
        {
          "internalType": "uint64",
          "name": "lastEnterEpoch",
          "type": "uint64"
        },
        {
          "internalType": "uint64",
          "name": "nextBlockToRebase",
          "type": "uint64"
        },
        {
          "internalType": "bool",
          "name": "rebased",
          "type": "bool"
        }
      ],
      "payable": false,
      "stateMutability": "view",
      "type": "function"
    },
    {
      "constant": true,
      "inputs": [],
      "name": "isRootChain",
      "outputs": [
        {
          "internalType": "bool",
          "name": "",
          "type": "bool"
        }
      ],
      "payable": false,
      "stateMutability": "view",
      "type": "function"
    },
    {
      "constant": true,
      "inputs": [],
      "name": "lastAppliedBlockNumber",
      "outputs": [
        {
          "internalType": "uint256",
          "name": "",
          "type": "uint256"
        }
      ],
      "payable": false,
      "stateMutability": "view",
      "type": "function"
    },
    {
      "constant": true,
      "inputs": [],
      "name": "lastAppliedEpochNumber",
      "outputs": [
        {
          "internalType": "uint256",
          "name": "",
          "type": "uint256"
        }
      ],
      "payable": false,
      "stateMutability": "view",
      "type": "function"
    },
    {
      "constant": true,
      "inputs": [],
      "name": "lastAppliedForkNumber",
      "outputs": [
        {
          "internalType": "uint256",
          "name": "",
          "type": "uint256"
        }
      ],
      "payable": false,
      "stateMutability": "view",
      "type": "function"
    },
    {
      "constant": true,
      "inputs": [
        {
          "internalType": "uint256",
          "name": "",
          "type": "uint256"
        }
      ],
      "name": "lastNonEmptyRequestEpoch",
      "outputs": [
        {
          "internalType": "uint256",
          "name": "",
          "type": "uint256"
        }
      ],
      "payable": false,
      "stateMutability": "view",
      "type": "function"
    },
    {
      "constant": true,
      "inputs": [],
      "name": "numEnterForORB",
      "outputs": [
        {
          "internalType": "uint256",
          "name": "",
          "type": "uint256"
        }
      ],
      "payable": false,
      "stateMutability": "view",
      "type": "function"
    },
    {
      "constant": true,
      "inputs": [],
      "name": "operator",
      "outputs": [
        {
          "internalType": "address",
          "name": "",
          "type": "address"
        }
      ],
      "payable": false,
      "stateMutability": "view",
      "type": "function"
    },
    {
      "constant": true,
      "inputs": [
        {
          "internalType": "address",
          "name": "",
          "type": "address"
        }
      ],
      "name": "requestableContracts",
      "outputs": [
        {
          "internalType": "address",
          "name": "",
          "type": "address"
        }
      ],
      "payable": false,
      "stateMutability": "view",
      "type": "function"
    },
    {
      "constant": true,
      "inputs": [],
      "name": "seigManager",
      "outputs": [
        {
          "internalType": "address",
          "name": "",
          "type": "address"
        }
      ],
      "payable": false,
      "stateMutability": "view",
      "type": "function"
    },
    {
      "constant": true,
      "inputs": [],
      "name": "submitHandler",
      "outputs": [
        {
          "internalType": "address",
          "name": "",
          "type": "address"
        }
      ],
      "payable": false,
      "stateMutability": "view",
      "type": "function"
    }
  ],
  "bytecode": "0x608060405234801561001057600080fd5b50610955806100206000396000f3fe608060405234801561001057600080fd5b506004361061021c5760003560e01c8063b17fa6e911610125578063ca6f6380116100ad578063e259faf71161007c578063e259faf714610595578063e7b88b801461059d578063ea7f22a8146105a5578063f4f31de4146105c2578063fb788a27146105df5761021c565b8063ca6f63801461054a578063d691acd814610221578063da0185f814610567578063de0ce17d1461058d5761021c565b8063b8066bcb116100f4578063b8066bcb146104c1578063c0e86064146104c9578063c2bc88fa14610532578063c54626cc1461053a578063c8ad329f146105425761021c565b8063b17fa6e91461038c578063b2ae9ba814610221578063b443f3cc14610394578063b6715647146104a45761021c565b8063570ca735116101a85780638155717d116101775780638155717d1461036c5780638b5172d0146103745780638eb288ca1461037c57806394be3aa514610221578063ab96da2d146103845761021c565b8063570ca7351461031b5780636fb7f5581461033f57806372ecb9a8146103475780637b929c27146103645761021c565b8063192adc5b116101ef578063192adc5b14610253578063236915661461025b5780632dc6bb7b14610263578063420bb4b81461026b5780634ba3a126146102875761021c565b8063033cfbed1461022157806308c4fff01461023b578063164bc2ae14610243578063183d2d1c1461024b575b600080fd5b6102296105e7565b60408051918252519081900360200190f35b6102296105f1565b6102296105f6565b6102296105fc565b610229610602565b61022961060c565b610229610612565b610273610618565b604080519115158252519081900360200190f35b6102a46004803603602081101561029d57600080fd5b503561061d565b6040805167ffffffffffffffff9d8e1681529b8d1660208d0152998c168b8b0152978b1660608b0152958a1660808a015293891660a089015291881660c0880152871660e0870152861661010086015285166101208501529093166101408301529115156101608201529051908190036101800190f35b610323610695565b604080516001600160a01b039092168252519081900360200190f35b6103236106a9565b6102296004803603602081101561035d57600080fd5b50356106b8565b6102736106ca565b6102296106d3565b6102296106d8565b6102296106e2565b6102296106e9565b6102296106ef565b6103b1600480360360208110156103aa57600080fd5b50356106f4565b6040805167ffffffffffffffff8d1681528b15156020808301919091528b151592820192909252891515606082015288151560808201526001600160801b03881660a08201526001600160a01b0380881660c0830152861660e082015261010081018590526101208101849052610160610140820181815284519183019190915283519192909161018084019185019080838360005b8381101561045f578181015183820152602001610447565b50505050905090810190601f16801561048c5780820380516001836020036101000a031916815260200191505b509c5050505050505050505050505060405180910390f35b610229600480360360208110156104ba57600080fd5b5035610816565b610323610828565b6104e6600480360360208110156104df57600080fd5b5035610837565b60408051961515875267ffffffffffffffff958616602088015293851686850152918416606086015290921660808401526001600160a01b0390911660a0830152519081900360c00190f35b61022961089f565b6102296108a4565b6102296108aa565b6102296004803603602081101561056057600080fd5b50356108b0565b6103236004803603602081101561057d57600080fd5b50356001600160a01b03166108c2565b6103236108dd565b6103236108e2565b6103236108f1565b6104e6600480360360208110156105bb57600080fd5b5035610900565b6103b1600480360360208110156105d857600080fd5b503561090d565b61022961091a565b6509184e72a00081565b600f81565b60105481565b60065481565b6551dac207a00081565b600d5481565b60135481565b600181565b60086020526000908152604090208054600182015460029092015467ffffffffffffffff80831693600160401b808504831694600160801b808204851695600160c01b92839004861695858116958581048216958482048316959182900483169484841694918204841693908204169160ff9104168c565b60005461010090046001600160a01b031681565b6004546001600160a01b031681565b60076020526000908152604090205481565b60005460ff1681565b600a81565b6512309ce5400081565b620186a081565b60055481565b601481565b6009818154811061070157fe5b6000918252602091829020600691909102018054600180830154600280850154600386015460048701546005880180546040805161010099831615999099026000190190911695909504601f81018b90048b0288018b0190955284875267ffffffffffffffff88169a50600160401b880460ff9081169a600160481b8a0482169a600160501b8b0483169a600160581b810490931699600160601b9093046001600160801b0316986001600160a01b039081169897169690939183018282801561080c5780601f106107e15761010080835404028352916020019161080c565b820191906000526020600020905b8154815290600101906020018083116107ef57829003601f168201915b505050505090508b565b600e6020526000908152604090205481565b6003546001600160a01b031681565b600c818154811061084457fe5b60009182526020909120600290910201805460019091015460ff8216925067ffffffffffffffff6101008304811692600160481b8104821692600160881b9091048216918116906001600160a01b03600160401b9091041686565b603c81565b60145481565b60115481565b600f6020526000908152604090205481565b6015602052600090815260409020546001600160a01b031681565b600081565b6002546001600160a01b031681565b6001546001600160a01b031681565b600b818154811061084457fe5b600a818154811061070157fe5b6012548156fea265627a7a723158203f05a98653280228ffebc1ae548f4977262ea02600c3755b2f73926c9bd7e45c64736f6c634300050c0032",
  "source": "pragma solidity ^0.5.12;\n\nimport \"./lib/Data.sol\";\n\n\ncontract RootChainStorage {\n  /*\n   * Storage\n   */\n  bool public development; // dev mode\n  address public operator;\n  address public epochHandler;\n  address public submitHandler;\n  address public etherToken;\n  address public seigManager;\n\n  // 1 epoch = N NRBs or k URBs or k ORBs.\n  // N consecutive NRBs must be submitted in an epoch. In case of request block,\n  // massive requests can be included in k ORBs, and k is determined when\n  // N NRBs are submitted or when preparing URBs submission.\n  uint public NRELength;\n\n  // Increase for each URB\n  uint public currentFork;\n\n  // First not-empty request epochs of a fork\n  mapping (uint => uint) public firstFilledORENumber;\n\n  mapping (uint => Data.Fork) public forks;\n\n  // Enter & Exit requests for ORB / URB\n  Data.Request[] public EROs;\n  Data.Request[] public ERUs;\n\n  // Consecutive request block. The fork where they are in is defined in Data.PlasmaBlock\n  Data.RequestBlock[] public ORBs;\n  Data.RequestBlock[] public URBs;\n\n  // count enter requests for epoch\n  uint public numEnterForORB;\n\n  // epoch number of last non-empty request epoch.\n  mapping(uint => uint) public lastNonEmptyRequestEpoch;\n\n  // epoch number of first non-empty request epoch.\n  mapping(uint => uint) public firstNonEmptyRequestEpoch;\n\n  // Last applied request\n  uint public lastAppliedForkNumber;\n  uint public lastAppliedEpochNumber;\n  uint public lastAppliedBlockNumber;\n\n  // solium-disable mixedcase\n  uint public EROIdToFinalize;\n  uint public ERUIdToFinalize;\n  // solium-enable mixedcase\n\n  // uint public finalizableEROId = 2^256 - 1;\n  // uint public finalizableERUId = 2^256 - 1;\n\n  // Requestable contract address in child chain\n  mapping (address => address) public requestableContracts;\n\n  /*\n   * Constant\n   */\n  address constant public NULL_ADDRESS = 0x0000000000000000000000000000000000000000;\n\n  // Cost parameters for development and test\n  uint public constant COST_ERO = 0.00001 ether;         // cost for invalid exit\n  uint public constant COST_ERU = 0.00002 ether;         // cost for fork & rebase\n  uint public constant COST_URB_PREPARE = 0.00001 ether; // cost for URB prepare\n  uint public constant COST_URB = 0.00009 ether;         // cost for fork & rebase\n  uint public constant COST_ORB = 0.00001 ether;         // cost for invalid computation\n  uint public constant COST_NRB = 0.00001 ether;         // cost for invalid computation\n  uint public constant PREPARE_TIMEOUT = 60; // 60 sec for dev\n\n  // Challenge periods for computation and withholding\n  uint public constant CP_COMPUTATION = 15; // 15 sec for dev\n  uint public constant CP_WITHHOLDING = 20; // 20 sec for dev\n  uint public constant CP_EXIT = 10; // 10 sec for dev\n\n  // TODO: develop more concrete cost model\n  // Cost parameters for production\n  // uint public constant COST_ERO = 0.1 ether;         // cost for invalid exit\n  // uint public constant COST_ERU = 0.2 ether;         // cost for fork & rebase\n  // uint public constant COST_URB_PREPARE = 0.1 ether; // cost for URB prepare\n  // uint public constant COST_URB = 0.9 ether;         // cost for fork & rebase\n  // uint public constant COST_ORB = 0.1 ether;         // cost for invalid computation\n  // uint public constant COST_NRB = 0.1 ether;         // cost for invalid computation\n  // uint public constant PREPARE_TIMEOUT = 1 hours;\n\n  // // Challenge periods for computation and withholding\n  // uint public constant CP_COMPUTATION = 1 days;\n  // uint public constant CP_WITHHOLDING = 7 days;\n  // uint public constant CP_EXIT = 1 days;\n\n\n  // Gas limit for request trasaction\n  uint public constant REQUEST_GAS = 100000;\n\n  bool public constant isRootChain = true;\n}\n\n",
  "sourcePath": "/Users/pjh/workspace/plasma-evm-contracts/contracts/RootChainStorage.sol",
  "compiler": {
    "name": "solc",
    "version": "0.5.12+commit.7709ece9.Emscripten.clang"
  },
  "schemaVersion": "3.0.23",
  "updatedAt": "2020-03-24T05:34:09.067Z",
  "devdoc": {
    "methods": {}
  },
  "userdoc": {
    "methods": {}
  }
}