{
  "contractName": "SeigManager",
  "abi": [
    {
      "inputs": [
        {
          "internalType": "contract ERC20Mintable",
          "name": "ton",
          "type": "address"
        },
        {
          "internalType": "contract ERC20Mintable",
          "name": "wton",
          "type": "address"
        },
        {
          "internalType": "contract RootChainRegistryI",
          "name": "registry",
          "type": "address"
        },
        {
          "internalType": "contract DepositManagerI",
          "name": "depositManager",
          "type": "address"
        },
        {
          "internalType": "uint256",
          "name": "seigPerBlock",
          "type": "uint256"
        }
      ],
      "payable": false,
      "stateMutability": "nonpayable",
      "type": "constructor"
    },
    {
      "anonymous": false,
      "inputs": [
        {
          "indexed": true,
          "internalType": "address",
          "name": "rootchain",
          "type": "address"
        },
        {
          "indexed": false,
          "internalType": "address",
          "name": "coinage",
          "type": "address"
        }
      ],
      "name": "CoinageCreated",
      "type": "event"
    },
    {
      "anonymous": false,
      "inputs": [
        {
          "indexed": true,
          "internalType": "address",
          "name": "rootchain",
          "type": "address"
        }
      ],
      "name": "Comitted",
      "type": "event"
    },
    {
      "anonymous": false,
      "inputs": [
        {
          "indexed": true,
          "internalType": "address",
          "name": "rootchain",
          "type": "address"
        },
        {
          "indexed": false,
          "internalType": "uint256",
          "name": "previousRate",
          "type": "uint256"
        },
        {
          "indexed": false,
          "internalType": "uint256",
          "name": "newRate",
          "type": "uint256"
        }
      ],
      "name": "CommissionRateSet",
      "type": "event"
    },
    {
      "anonymous": false,
      "inputs": [
        {
          "indexed": false,
          "internalType": "uint256",
          "name": "totalStakedAmount",
          "type": "uint256"
        },
        {
          "indexed": false,
          "internalType": "uint256",
          "name": "totalSupplyOfWTON",
          "type": "uint256"
        },
        {
          "indexed": false,
          "internalType": "uint256",
          "name": "prevTotalSupply",
          "type": "uint256"
        },
        {
          "indexed": false,
          "internalType": "uint256",
          "name": "nextTotalSupply",
          "type": "uint256"
        }
      ],
      "name": "CommitLog1",
      "type": "event"
    },
    {
      "anonymous": false,
      "inputs": [
        {
          "indexed": true,
          "internalType": "address",
          "name": "previousOwner",
          "type": "address"
        },
        {
          "indexed": true,
          "internalType": "address",
          "name": "newOwner",
          "type": "address"
        }
      ],
      "name": "OwnershipTransferred",
      "type": "event"
    },
    {
      "anonymous": false,
      "inputs": [
        {
          "indexed": false,
          "internalType": "address",
          "name": "account",
          "type": "address"
        }
      ],
      "name": "Paused",
      "type": "event"
    },
    {
      "anonymous": false,
      "inputs": [
        {
          "indexed": true,
          "internalType": "address",
          "name": "account",
          "type": "address"
        }
      ],
      "name": "PauserAdded",
      "type": "event"
    },
    {
      "anonymous": false,
      "inputs": [
        {
          "indexed": true,
          "internalType": "address",
          "name": "account",
          "type": "address"
        }
      ],
      "name": "PauserRemoved",
      "type": "event"
    },
    {
      "anonymous": false,
      "inputs": [
        {
          "indexed": true,
          "internalType": "address",
          "name": "rootchain",
          "type": "address"
        },
        {
          "indexed": false,
          "internalType": "uint256",
          "name": "totalSeig",
          "type": "uint256"
        },
        {
          "indexed": false,
          "internalType": "uint256",
          "name": "stakedSeig",
          "type": "uint256"
        },
        {
          "indexed": false,
          "internalType": "uint256",
          "name": "unstakedSeig",
          "type": "uint256"
        },
        {
          "indexed": false,
          "internalType": "uint256",
          "name": "powertonSeig",
          "type": "uint256"
        }
      ],
      "name": "SeigGiven",
      "type": "event"
    },
    {
      "anonymous": false,
      "inputs": [
        {
          "indexed": false,
          "internalType": "address",
          "name": "account",
          "type": "address"
        }
      ],
      "name": "Unpaused",
      "type": "event"
    },
    {
      "anonymous": false,
      "inputs": [
        {
          "indexed": false,
          "internalType": "uint256",
          "name": "coinageBurnAmount",
          "type": "uint256"
        },
        {
          "indexed": false,
          "internalType": "uint256",
          "name": "totBurnAmount",
          "type": "uint256"
        }
      ],
      "name": "UnstakeLog",
      "type": "event"
    },
    {
      "constant": true,
      "inputs": [],
      "name": "MAX_VALID_COMMISSION",
      "outputs": [
        {
          "internalType": "uint256",
          "name": "",
          "type": "uint256"
        }
      ],
      "payable": false,
      "stateMutability": "view",
      "type": "function"
    },
    {
      "constant": true,
      "inputs": [],
      "name": "MIN_VALID_COMMISSION",
      "outputs": [
        {
          "internalType": "uint256",
          "name": "",
          "type": "uint256"
        }
      ],
      "payable": false,
      "stateMutability": "view",
      "type": "function"
    },
    {
      "constant": true,
      "inputs": [],
      "name": "POWER_TON_DENOMINATOR",
      "outputs": [
        {
          "internalType": "uint256",
          "name": "",
          "type": "uint256"
        }
      ],
      "payable": false,
      "stateMutability": "view",
      "type": "function"
    },
    {
      "constant": true,
      "inputs": [],
      "name": "POWER_TON_NUMERATOR",
      "outputs": [
        {
          "internalType": "uint256",
          "name": "",
          "type": "uint256"
        }
      ],
      "payable": false,
      "stateMutability": "view",
      "type": "function"
    },
    {
      "constant": false,
      "inputs": [
        {
          "internalType": "address",
          "name": "account",
          "type": "address"
        }
      ],
      "name": "addPauser",
      "outputs": [],
      "payable": false,
      "stateMutability": "nonpayable",
      "type": "function"
    },
    {
      "constant": true,
      "inputs": [],
      "name": "isOwner",
      "outputs": [
        {
          "internalType": "bool",
          "name": "",
          "type": "bool"
        }
      ],
      "payable": false,
      "stateMutability": "view",
      "type": "function"
    },
    {
      "constant": true,
      "inputs": [
        {
          "internalType": "address",
          "name": "account",
          "type": "address"
        }
      ],
      "name": "isPauser",
      "outputs": [
        {
          "internalType": "bool",
          "name": "",
          "type": "bool"
        }
      ],
      "payable": false,
      "stateMutability": "view",
      "type": "function"
    },
    {
      "constant": true,
      "inputs": [],
      "name": "owner",
      "outputs": [
        {
          "internalType": "address",
          "name": "",
          "type": "address"
        }
      ],
      "payable": false,
      "stateMutability": "view",
      "type": "function"
    },
    {
      "constant": true,
      "inputs": [],
      "name": "paused",
      "outputs": [
        {
          "internalType": "bool",
          "name": "",
          "type": "bool"
        }
      ],
      "payable": false,
      "stateMutability": "view",
      "type": "function"
    },
    {
      "constant": false,
      "inputs": [
        {
          "internalType": "address",
          "name": "target",
          "type": "address"
        }
      ],
      "name": "renounceMinter",
      "outputs": [],
      "payable": false,
      "stateMutability": "nonpayable",
      "type": "function"
    },
    {
      "constant": false,
      "inputs": [
        {
          "internalType": "address",
          "name": "target",
          "type": "address"
        }
      ],
      "name": "renounceOwnership",
      "outputs": [],
      "payable": false,
      "stateMutability": "nonpayable",
      "type": "function"
    },
    {
      "constant": false,
      "inputs": [],
      "name": "renounceOwnership",
      "outputs": [],
      "payable": false,
      "stateMutability": "nonpayable",
      "type": "function"
    },
    {
      "constant": false,
      "inputs": [
        {
          "internalType": "address",
          "name": "target",
          "type": "address"
        }
      ],
      "name": "renouncePauser",
      "outputs": [],
      "payable": false,
      "stateMutability": "nonpayable",
      "type": "function"
    },
    {
      "constant": false,
      "inputs": [],
      "name": "renouncePauser",
      "outputs": [],
      "payable": false,
      "stateMutability": "nonpayable",
      "type": "function"
    },
    {
      "constant": false,
      "inputs": [
        {
          "internalType": "address",
          "name": "target",
          "type": "address"
        },
        {
          "internalType": "address",
          "name": "newOwner",
          "type": "address"
        }
      ],
      "name": "transferOwnership",
      "outputs": [],
      "payable": false,
      "stateMutability": "nonpayable",
      "type": "function"
    },
    {
      "constant": false,
      "inputs": [
        {
          "internalType": "address",
          "name": "newOwner",
          "type": "address"
        }
      ],
      "name": "transferOwnership",
      "outputs": [],
      "payable": false,
      "stateMutability": "nonpayable",
      "type": "function"
    },
    {
      "constant": false,
      "inputs": [],
      "name": "pause",
      "outputs": [],
      "payable": false,
      "stateMutability": "nonpayable",
      "type": "function"
    },
    {
      "constant": false,
      "inputs": [],
      "name": "unpause",
      "outputs": [],
      "payable": false,
      "stateMutability": "nonpayable",
      "type": "function"
    },
    {
      "constant": false,
      "inputs": [
        {
          "internalType": "contract PowerTONI",
          "name": "powerton",
          "type": "address"
        }
      ],
      "name": "setPowerTON",
      "outputs": [],
      "payable": false,
      "stateMutability": "nonpayable",
      "type": "function"
    },
    {
      "constant": false,
      "inputs": [
        {
          "internalType": "address",
          "name": "rootchain",
          "type": "address"
        }
      ],
      "name": "deployCoinage",
      "outputs": [
        {
          "internalType": "bool",
          "name": "",
          "type": "bool"
        }
      ],
      "payable": false,
      "stateMutability": "nonpayable",
      "type": "function"
    },
    {
      "constant": false,
      "inputs": [
        {
          "internalType": "address",
          "name": "rootchain",
          "type": "address"
        },
        {
          "internalType": "uint256",
          "name": "commissionRate",
          "type": "uint256"
        }
      ],
      "name": "setCommissionRate",
      "outputs": [
        {
          "internalType": "bool",
          "name": "",
          "type": "bool"
        }
      ],
      "payable": false,
      "stateMutability": "nonpayable",
      "type": "function"
    },
    {
      "constant": false,
      "inputs": [],
      "name": "onCommit",
      "outputs": [
        {
          "internalType": "bool",
          "name": "",
          "type": "bool"
        }
      ],
      "payable": false,
      "stateMutability": "nonpayable",
      "type": "function"
    },
    {
      "constant": false,
      "inputs": [
        {
          "internalType": "address",
          "name": "sender",
          "type": "address"
        },
        {
          "internalType": "address",
          "name": "recipient",
          "type": "address"
        },
        {
          "internalType": "uint256",
          "name": "amount",
          "type": "uint256"
        }
      ],
      "name": "onTransfer",
      "outputs": [
        {
          "internalType": "bool",
          "name": "",
          "type": "bool"
        }
      ],
      "payable": false,
      "stateMutability": "nonpayable",
      "type": "function"
    },
    {
      "constant": false,
      "inputs": [
        {
          "internalType": "address",
          "name": "rootchain",
          "type": "address"
        },
        {
          "internalType": "address",
          "name": "account",
          "type": "address"
        },
        {
          "internalType": "uint256",
          "name": "amount",
          "type": "uint256"
        }
      ],
      "name": "onDeposit",
      "outputs": [
        {
          "internalType": "bool",
          "name": "",
          "type": "bool"
        }
      ],
      "payable": false,
      "stateMutability": "nonpayable",
      "type": "function"
    },
    {
      "constant": false,
      "inputs": [
        {
          "internalType": "address",
          "name": "rootchain",
          "type": "address"
        },
        {
          "internalType": "address",
          "name": "account",
          "type": "address"
        },
        {
          "internalType": "uint256",
          "name": "amount",
          "type": "uint256"
        }
      ],
      "name": "onWithdraw",
      "outputs": [
        {
          "internalType": "bool",
          "name": "",
          "type": "bool"
        }
      ],
      "payable": false,
      "stateMutability": "nonpayable",
      "type": "function"
    },
    {
      "constant": true,
      "inputs": [
        {
          "internalType": "address",
          "name": "rootchain",
          "type": "address"
        },
        {
          "internalType": "address",
          "name": "account",
          "type": "address"
        },
        {
          "internalType": "uint256",
          "name": "amount",
          "type": "uint256"
        }
      ],
      "name": "additionalTotBurnAmount",
      "outputs": [
        {
          "internalType": "uint256",
          "name": "totAmount",
          "type": "uint256"
        }
      ],
      "payable": false,
      "stateMutability": "view",
      "type": "function"
    },
    {
      "constant": true,
      "inputs": [
        {
          "internalType": "address",
          "name": "rootchain",
          "type": "address"
        },
        {
          "internalType": "address",
          "name": "account",
          "type": "address"
        }
      ],
      "name": "uncomittedStakeOf",
      "outputs": [
        {
          "internalType": "uint256",
          "name": "",
          "type": "uint256"
        }
      ],
      "payable": false,
      "stateMutability": "view",
      "type": "function"
    },
    {
      "constant": true,
      "inputs": [
        {
          "internalType": "address",
          "name": "rootchain",
          "type": "address"
        },
        {
          "internalType": "address",
          "name": "account",
          "type": "address"
        }
      ],
      "name": "stakeOf",
      "outputs": [
        {
          "internalType": "uint256",
          "name": "",
          "type": "uint256"
        }
      ],
      "payable": false,
      "stateMutability": "view",
      "type": "function"
    },
    {
      "constant": true,
      "inputs": [],
      "name": "registry",
      "outputs": [
        {
          "internalType": "contract RootChainRegistryI",
          "name": "",
          "type": "address"
        }
      ],
      "payable": false,
      "stateMutability": "view",
      "type": "function"
    },
    {
      "constant": true,
      "inputs": [],
      "name": "depositManager",
      "outputs": [
        {
          "internalType": "contract DepositManagerI",
          "name": "",
          "type": "address"
        }
      ],
      "payable": false,
      "stateMutability": "view",
      "type": "function"
    },
    {
      "constant": true,
      "inputs": [],
      "name": "ton",
      "outputs": [
        {
          "internalType": "contract IERC20",
          "name": "",
          "type": "address"
        }
      ],
      "payable": false,
      "stateMutability": "view",
      "type": "function"
    },
    {
      "constant": true,
      "inputs": [],
      "name": "wton",
      "outputs": [
        {
          "internalType": "contract ERC20Mintable",
          "name": "",
          "type": "address"
        }
      ],
      "payable": false,
      "stateMutability": "view",
      "type": "function"
    },
    {
      "constant": true,
      "inputs": [],
      "name": "powerton",
      "outputs": [
        {
          "internalType": "contract PowerTONI",
          "name": "",
          "type": "address"
        }
      ],
      "payable": false,
      "stateMutability": "view",
      "type": "function"
    },
    {
      "constant": true,
      "inputs": [],
      "name": "tot",
      "outputs": [
        {
          "internalType": "contract CustomIncrementCoinageMock",
          "name": "",
          "type": "address"
        }
      ],
      "payable": false,
      "stateMutability": "view",
      "type": "function"
    },
    {
      "constant": true,
      "inputs": [
        {
          "internalType": "address",
          "name": "rootchain",
          "type": "address"
        }
      ],
      "name": "coinages",
      "outputs": [
        {
          "internalType": "contract CustomIncrementCoinageMock",
          "name": "",
          "type": "address"
        }
      ],
      "payable": false,
      "stateMutability": "view",
      "type": "function"
    },
    {
      "constant": true,
      "inputs": [
        {
          "internalType": "address",
          "name": "rootchain",
          "type": "address"
        }
      ],
      "name": "commissionRates",
      "outputs": [
        {
          "internalType": "uint256",
          "name": "",
          "type": "uint256"
        }
      ],
      "payable": false,
      "stateMutability": "view",
      "type": "function"
    },
    {
      "constant": true,
      "inputs": [
        {
          "internalType": "address",
          "name": "rootchain",
          "type": "address"
        }
      ],
      "name": "lastCommitBlock",
      "outputs": [
        {
          "internalType": "uint256",
          "name": "",
          "type": "uint256"
        }
      ],
      "payable": false,
      "stateMutability": "view",
      "type": "function"
    },
    {
      "constant": true,
      "inputs": [],
      "name": "seigPerBlock",
      "outputs": [
        {
          "internalType": "uint256",
          "name": "",
          "type": "uint256"
        }
      ],
      "payable": false,
      "stateMutability": "view",
      "type": "function"
    },
    {
      "constant": true,
      "inputs": [],
      "name": "lastSeigBlock",
      "outputs": [
        {
          "internalType": "uint256",
          "name": "",
          "type": "uint256"
        }
      ],
      "payable": false,
      "stateMutability": "view",
      "type": "function"
    },
    {
      "constant": true,
      "inputs": [],
      "name": "pausedBlock",
      "outputs": [
        {
          "internalType": "uint256",
          "name": "",
          "type": "uint256"
        }
      ],
      "payable": false,
      "stateMutability": "view",
      "type": "function"
    },
    {
      "constant": true,
      "inputs": [],
      "name": "unpausedBlock",
      "outputs": [
        {
          "internalType": "uint256",
          "name": "",
          "type": "uint256"
        }
      ],
      "payable": false,
      "stateMutability": "view",
      "type": "function"
    },
    {
      "constant": true,
      "inputs": [],
      "name": "DEFAULT_FACTOR",
      "outputs": [
        {
          "internalType": "uint256",
          "name": "",
          "type": "uint256"
        }
      ],
      "payable": false,
      "stateMutability": "view",
      "type": "function"
    }
  ],
  "bytecode": "0x60806040523480156200001157600080fd5b50604051620070e1380380620070e1833981810160405260a08110156200003757600080fd5b508051602082015160408301516060840151608090940151929391929091906200007c6200006d6001600160e01b03620001d616565b6001600160e01b03620001da16565b6000620000916001600160e01b03620001d616565b600180546001600160a01b0319166001600160a01b038316908117909155604051919250906000907f8be0079c531659141344cd1fd0a4f28419497f9722a3daafe3b4186f6b6457e0908290a3506001805460ff60a01b19169055600580546001600160a01b038088166001600160a01b03199283161790925560068054878416908316179055600280548684169083161790556003805492851692909116919091179055600b8190556040516b033b2e3c9fd0803ce8000000906000906200015a9062000356565b60408082019390935290151560608201526080808252600090820181905260c06020830181905282018190529151908190036101000191f080158015620001a5573d6000803e3d6000fd5b50600780546001600160a01b0319166001600160a01b0392909216919091179055505043600c555062000364915050565b3390565b620001f58160006200022c60201b62002dbd1790919060201c565b6040516001600160a01b038216907f6719d08c1888103bea251a4ed56406bd0c3e69723c8a1686e017e7bbe159b6f890600090a250565b6200024182826001600160e01b03620002d316565b15620002ae57604080517f08c379a000000000000000000000000000000000000000000000000000000000815260206004820152601f60248201527f526f6c65733a206163636f756e7420616c72656164792068617320726f6c6500604482015290519081900360640190fd5b6001600160a01b0316600090815260209190915260409020805460ff19166001179055565b60006001600160a01b03821662000336576040517f08c379a0000000000000000000000000000000000000000000000000000000008152600401808060200182810382526022815260200180620070bf6022913960400191505060405180910390fd5b506001600160a01b03166000908152602091909152604090205460ff1690565b611e8f806200523083390190565b614ebc80620003746000396000f3fe60806040523480156200001157600080fd5b5060043610620002985760003560e01c8063715018a611620001655780638f32d59b11620000d5578063cc48b9471162000093578063cc48b9471462000658578063ce4cb8761462000662578063f2fde38b1462000693578063f35c89e814620006bc578063f850ffaa14620006c6578063fa9789c814620006ff5762000298565b80638f32d59b14620005e2578063a16d6aa714620005ec578063a7dcc85014620005f6578063aabc138b1462000600578063c59f1046146200062f5762000298565b8063833a774f1162000123578063833a774f14620005915780638456cb5914620005ba5780638bf91dc414620005c45780638d62d94914620005ce5780638da5cb5b14620005d85762000298565b8063715018a614620005215780637b056c1b146200052b5780637b10399914620005545780637bf8ae5b146200055e57806382dc1ec414620005685762000298565b806341eb24bb116200020d5780635c975abb11620001cb5780635c975abb146200049f5780635f112c6814620004a95780635f40a34914620004d25780636c7ac9d814620004dc5780636d43542114620004e65780636ef8d66d14620005175762000298565b806341eb24bb14620003b257806346fbf68e14620003db57806348c8577e14620004045780634a393149146200043d5780634c063c1914620004765762000298565b80633e832e1d116200025b5780633e832e1d14620003165780633f4ba83a146200033c5780634123196f1462000346578063412c6d5014620003505780634181302014620003895762000298565b8063180975d3146200029d5780631cc4789014620002b957806332053c9914620002c3578063359c4d5914620002cd57806338bf3cfa14620002eb575b600080fd5b620002a762000730565b60408051918252519081900360200190f35b620002a762000735565b620002a76200073c565b620002d762000742565b604080519115158252519081900360200190f35b62000314600480360360208110156200030357600080fd5b50356001600160a01b031662000bb6565b005b6200032062000c59565b604080516001600160a01b039092168252519081900360200190f35b6200031462000c68565b620002a762000d1f565b620002d7600480360360608110156200036857600080fd5b506001600160a01b0381358116916020810135909116906040013562000d2e565b6200031460048036036020811015620003a157600080fd5b50356001600160a01b031662000f50565b6200031460048036036020811015620003ca57600080fd5b50356001600160a01b031662000fbd565b620002d760048036036020811015620003f357600080fd5b50356001600160a01b031662001044565b620002a7600480360360608110156200041c57600080fd5b506001600160a01b0381358116916020810135909116906040013562001060565b620002d7600480360360608110156200045557600080fd5b506001600160a01b0381358116916020810135909116906040013562001077565b62000320600480360360208110156200048e57600080fd5b50356001600160a01b031662001100565b620002d76200111e565b6200031460048036036020811015620004c157600080fd5b50356001600160a01b03166200112e565b620002a7620011b5565b62000320620011bb565b6200031460048036036040811015620004fe57600080fd5b506001600160a01b0381358116916020013516620011ca565b620003146200128b565b620003146200129f565b620002a7600480360360208110156200054357600080fd5b50356001600160a01b031662001334565b620003206200134f565b620002a76200135e565b62000314600480360360208110156200058057600080fd5b50356001600160a01b031662001363565b620002d760048036036020811015620005a957600080fd5b50356001600160a01b0316620013bc565b6200031462001504565b620002a7620015b0565b62000320620015bf565b62000320620015ce565b620002d7620015dd565b6200032062001605565b620002a762001614565b620002d7600480360360408110156200061857600080fd5b506001600160a01b03813516906020013562001623565b620002a7600480360360208110156200064757600080fd5b50356001600160a01b03166200178d565b62000320620017a8565b620002a7600480360360408110156200067a57600080fd5b506001600160a01b0381358116916020013516620017b7565b6200031460048036036020811015620006ab57600080fd5b50356001600160a01b031662001849565b620002a76200189f565b620002d760048036036060811015620006de57600080fd5b506001600160a01b03813581169160208101359091169060400135620018a5565b620002a7600480360360408110156200071757600080fd5b506001600160a01b038135811691602001351662001bd2565b600581565b600e545b90565b600d5490565b336000818152600860205260408120549091906001600160a01b03166200079b5760405162461bcd60e51b815260040180806020018281038252602e81526020018062004d35602e913960400191505060405180910390fd5b620007a56200111e565b15620007b5576001915062000bb2565b620007bf62001ea7565b50336000908152600a60209081526040808320439055600882528083205481516318160ddd60e01b815291516001600160a01b03909116939284926318160ddd9260048083019392829003018186803b1580156200081c57600080fd5b505afa15801562000831573d6000803e3d6000fd5b505050506040513d60208110156200084857600080fd5b5051600754604080516370a0823160e01b815233600482015290519293506000926001600160a01b03909216916370a0823191602480820192602092909190829003018186803b1580156200089c57600080fd5b505afa158015620008b1573d6000803e3d6000fd5b505050506040513d6020811015620008c857600080fd5b505190508082101562000b7f5733600090815260096020526040812054838303919080156200091457620008fd8382620025ca565b915062000911848363ffffffff6200260e16565b93505b856001600160a01b031663817e9d316200099787878a6001600160a01b03166354f703f86040518163ffffffff1660e01b815260040160206040518083038186803b1580156200096357600080fd5b505afa15801562000978573d6000803e3d6000fd5b505050506040513d60208110156200098f57600080fd5b505162002659565b6040518263ffffffff1660e01b815260040180828152602001915050602060405180830381600087803b158015620009ce57600080fd5b505af1158015620009e3573d6000803e3d6000fd5b505050506040513d6020811015620009fa57600080fd5b5050811562000af857856001600160a01b03166340c10f19336001600160a01b031663570ca7356040518163ffffffff1660e01b815260040160206040518083038186803b15801562000a4c57600080fd5b505afa15801562000a61573d6000803e3d6000fd5b505050506040513d602081101562000a7857600080fd5b5051604080516001600160e01b031960e085901b1681526001600160a01b039092166004830152602482018690525160448083019260209291908290030181600087803b15801562000ac957600080fd5b505af115801562000ade573d6000803e3d6000fd5b505050506040513d602081101562000af557600080fd5b50505b600654604080516340c10f1960e01b81523060048201526024810186905290516001600160a01b03909216916340c10f19916044808201926020929091908290030181600087803b15801562000b4d57600080fd5b505af115801562000b62573d6000803e3d6000fd5b505050506040513d602081101562000b7957600080fd5b50505050505b60405133907f521cc65179761533a7c8d7a973291dd7baebb99a67edf5ef78e9c2b61a533d9590600090a2600194505050505b5090565b62000bc0620015dd565b62000c01576040805162461bcd60e51b8152602060048201819052602482015260008051602062004da5833981519152604482015290519081900360640190fd5b806001600160a01b031663715018a66040518163ffffffff1660e01b8152600401600060405180830381600087803b15801562000c3d57600080fd5b505af115801562000c52573d6000803e3d6000fd5b5050505050565b6004546001600160a01b031690565b62000c7c62000c7662002672565b62001044565b62000cb95760405162461bcd60e51b815260040180806020018281038252603081526020018062004cdf6030913960400191505060405180910390fd5b600154600160a01b900460ff1662000d0f576040805162461bcd60e51b815260206004820152601460248201527314185d5cd8589b194e881b9bdd081c185d5cd95960621b604482015290519081900360640190fd5b43600e5562000d1d62002676565b565b676765c793fa10079d601b1b81565b6003546000906001600160a01b0316331462000d4957600080fd5b6001600160a01b0380851660009081526008602052604090205485911662000da35760405162461bcd60e51b815260040180806020018281038252602e81526020018062004d35602e913960400191505060405180910390fd5b600754604080516340c10f1960e01b81526001600160a01b03888116600483015260248201879052915191909216916340c10f199160448083019260209291908290030181600087803b15801562000dfa57600080fd5b505af115801562000e0f573d6000803e3d6000fd5b505050506040513d602081101562000e2657600080fd5b50506001600160a01b0380861660009081526008602090815260408083205481516340c10f1960e01b815289861660048201526024810189905291519416936340c10f1993604480840194938390030190829087803b15801562000e8957600080fd5b505af115801562000e9e573d6000803e3d6000fd5b505050506040513d602081101562000eb557600080fd5b50506004546001600160a01b03161562000f45576004805460408051630412c6d560e41b81526001600160a01b03898116948201949094528784166024820152604481018790529051929091169163412c6d509160648082019260009290919082900301818387803b15801562000f2b57600080fd5b505af115801562000f40573d6000803e3d6000fd5b505050505b506001949350505050565b62000f5a620015dd565b62000f9b576040805162461bcd60e51b8152602060048201819052602482015260008051602062004da5833981519152604482015290519081900360640190fd5b600480546001600160a01b0319166001600160a01b0392909216919091179055565b62000fc7620015dd565b62001008576040805162461bcd60e51b8152602060048201819052602482015260008051602062004da5833981519152604482015290519081900360640190fd5b806001600160a01b0316636ef8d66d6040518163ffffffff1660e01b8152600401600060405180830381600087803b15801562000c3d57600080fd5b600062001058818363ffffffff6200276c16565b90505b919050565b60006200106f848484620027d5565b949350505050565b6005546000906001600160a01b03163314806200109e57506006546001600160a01b031633145b620010db5760405162461bcd60e51b815260040180806020018281038252603181526020018062004e2b6031913960400191505060405180910390fd5b620010e56200111e565b620010f657620010f462001ea7565b505b5060019392505050565b6001600160a01b039081166000908152600860205260409020541690565b600154600160a01b900460ff1690565b62001138620015dd565b62001179576040805162461bcd60e51b8152602060048201819052602482015260008051602062004da5833981519152604482015290519081900360640190fd5b806001600160a01b031663986502756040518163ffffffff1660e01b8152600401600060405180830381600087803b15801562000c3d57600080fd5b600b5490565b6003546001600160a01b031690565b620011d4620015dd565b62001215576040805162461bcd60e51b8152602060048201819052602482015260008051602062004da5833981519152604482015290519081900360640190fd5b816001600160a01b031663f2fde38b826040518263ffffffff1660e01b815260040180826001600160a01b03166001600160a01b03168152602001915050600060405180830381600087803b1580156200126e57600080fd5b505af115801562001283573d6000803e3d6000fd5b505050505050565b62000d1d6200129962002672565b620028cf565b620012a9620015dd565b620012ea576040805162461bcd60e51b8152602060048201819052602482015260008051602062004da5833981519152604482015290519081900360640190fd5b6001546040516000916001600160a01b0316907f8be0079c531659141344cd1fd0a4f28419497f9722a3daafe3b4186f6b6457e0908390a3600180546001600160a01b0319169055565b6001600160a01b031660009081526009602052604090205490565b6002546001600160a01b031690565b600a81565b6200137162000c7662002672565b620013ae5760405162461bcd60e51b815260040180806020018281038252603081526020018062004cdf6030913960400191505060405180910390fd5b620013b98162002919565b50565b6002546000906001600160a01b03163314620013d757600080fd5b6001600160a01b03828116600090815260086020526040902054161562001401575060006200105b565b6001600160a01b0382811660009081526008602052604090205416620014fc57676765c793fa10079d601b1b60006040516200143d9062002e41565b60408082019390935290151560608201526080808252600090820181905260c06020830181905282018190529151908190036101000191f08015801562001488573d6000803e3d6000fd5b506001600160a01b03838116600081815260086020818152604080842080546001600160a01b031916978716979097178755600a82529283902043905590815293548151931683525190927f124cac1e701d08d642237ad795ddd275670e12f2cd956a26709721c68084c2b2928290030190a25b506001919050565b6200151262000c7662002672565b6200154f5760405162461bcd60e51b815260040180806020018281038252603081526020018062004cdf6030913960400191505060405180910390fd5b600154600160a01b900460ff1615620015a2576040805162461bcd60e51b815260206004820152601060248201526f14185d5cd8589b194e881c185d5cd95960821b604482015290519081900360640190fd5b43600d5562000d1d62002963565b676765c793fa10079d601b1b90565b6006546001600160a01b031690565b6001546001600160a01b031690565b6001546000906001600160a01b0316620015f662002672565b6001600160a01b031614905090565b6007546001600160a01b031690565b6a084595161401484a00000081565b60025460009083906001600160a01b0316331480620016b15750806001600160a01b031663570ca7356040518163ffffffff1660e01b815260040160206040518083038186803b1580156200167757600080fd5b505afa1580156200168c573d6000803e3d6000fd5b505050506040513d6020811015620016a357600080fd5b50516001600160a01b031633145b620016bb57600080fd5b821580620016eb5750826a084595161401484a00000011158015620016eb5750676765c793fa10079d601b1b8311155b620017285760405162461bcd60e51b815260040180806020018281038252604481526020018062004de76044913960600191505060405180910390fd5b6001600160a01b038416600081815260096020908152604091829020805490879055825181815291820187905282519093927f11841078e38c91feada06e1f8ded3697ab2dadc2583c52b14109b82ccd4f77d7928290030190a2506001949350505050565b6001600160a01b03166000908152600a602052604090205490565b6005546001600160a01b031690565b6001600160a01b0380831660009081526008602090815260408083205481516370a0823160e01b815286861660048201529151939416926370a0823192602480840193919291829003018186803b1580156200181257600080fd5b505afa15801562001827573d6000803e3d6000fd5b505050506040513d60208110156200183e57600080fd5b505190505b92915050565b62001853620015dd565b62001894576040805162461bcd60e51b8152602060048201819052602482015260008051602062004da5833981519152604482015290519081900360640190fd5b620013b98162002a3f565b600c5490565b6003546000906001600160a01b03163314620018c057600080fd5b6001600160a01b038085166000908152600860205260409020548591166200191a5760405162461bcd60e51b815260040180806020018281038252602e81526020018062004d35602e913960400191505060405180910390fd5b6001600160a01b038086166000908152600860209081526040918290205482516370a0823160e01b815288851660048201529251879491909116926370a08231926024808301939192829003018186803b1580156200197857600080fd5b505afa1580156200198d573d6000803e3d6000fd5b505050506040513d6020811015620019a457600080fd5b50511015620019e55760405162461bcd60e51b815260040180806020018281038252602c81526020018062004e5c602c913960400191505060405180910390fd5b6000620019f4868686620027d5565b6007549091506001600160a01b03166379cc67908762001a1b878563ffffffff62002ae216565b6040518363ffffffff1660e01b815260040180836001600160a01b03166001600160a01b0316815260200182815260200192505050600060405180830381600087803b15801562001a6b57600080fd5b505af115801562001a80573d6000803e3d6000fd5b5050506001600160a01b0380881660009081526008602052604080822054815163079cc67960e41b81528a85166004820152602481018a90529151931693506379cc6790926044808301939282900301818387803b15801562001ae257600080fd5b505af115801562001af7573d6000803e3d6000fd5b50506004546001600160a01b031615915062001b8b9050576004805460408051637c287fd560e11b81526001600160a01b038a8116948201949094528884166024820152604481018890529051929091169163f850ffaa9160648082019260009290919082900301818387803b15801562001b7157600080fd5b505af115801562001b86573d6000803e3d6000fd5b505050505b604080518581526020810183905281517f650f673bb96a43afff4620ecc3f3e38e0cbfddebde9894e951ba2ceff7472f60929181900390910190a150600195945050505050565b6001600160a01b038083166000908152600860209081526040808320548151630a9ee07f60e31b8152915193941692849284926354f703f89260048083019392829003018186803b15801562001c2757600080fd5b505afa15801562001c3c573d6000803e3d6000fd5b505050506040513d602081101562001c5357600080fd5b5051604080516318160ddd60e01b815290519192506000916001600160a01b038516916318160ddd916004808301926020929190829003018186803b15801562001c9c57600080fd5b505afa15801562001cb1573d6000803e3d6000fd5b505050506040513d602081101562001cc857600080fd5b5051600754604080516370a0823160e01b81526001600160a01b038a81166004830152915193945060009391909216916370a08231916024808301926020929190829003018186803b15801562001d1e57600080fd5b505afa15801562001d33573d6000803e3d6000fd5b505050506040513d602081101562001d4a57600080fd5b50519050600062001d5d83838662002659565b9050600062001dfc62001df5876001600160a01b03166370a082318b6040518263ffffffff1660e01b815260040180826001600160a01b03166001600160a01b0316815260200191505060206040518083038186803b15801562001dc057600080fd5b505afa15801562001dd5573d6000803e3d6000fd5b505050506040513d602081101562001dec57600080fd5b50518762002b3d565b83620025ca565b6001600160a01b03808b166000908152600860209081526040918290205482516370a0823160e01b81528d85166004820152925194955062001e9a949316926370a08231926024808201939291829003018186803b15801562001e5e57600080fd5b505afa15801562001e73573d6000803e3d6000fd5b505050506040513d602081101562001e8a57600080fd5b5051829063ffffffff6200260e16565b9998505050505050505050565b6000600c5443141562001ebd5750600062000739565b600760009054906101000a90046001600160a01b03166001600160a01b03166318160ddd6040518163ffffffff1660e01b815260040160206040518083038186803b15801562001f0c57600080fd5b505afa15801562001f21573d6000803e3d6000fd5b505050506040513d602081101562001f3857600080fd5b505162001f4c575043600c55600062000739565b600080600760009054906101000a90046001600160a01b03166001600160a01b03166318160ddd6040518163ffffffff1660e01b815260040160206040518083038186803b15801562001f9e57600080fd5b505afa15801562001fb3573d6000803e3d6000fd5b505050506040513d602081101562001fca57600080fd5b5051600b5490925060009062001ff19062001fe462002b64565b9063ffffffff62002ba316565b905060006200228b600660009054906101000a90046001600160a01b03166001600160a01b03166318160ddd6040518163ffffffff1660e01b815260040160206040518083038186803b1580156200204857600080fd5b505afa1580156200205d573d6000803e3d6000fd5b505050506040513d60208110156200207457600080fd5b5051600754604080516318160ddd60e01b815290516200227e926001600160a01b0316916318160ddd916004808301926020929190829003018186803b158015620020be57600080fd5b505afa158015620020d3573d6000803e3d6000fd5b505050506040513d6020811015620020ea57600080fd5b5051600654604080516318160ddd60e01b8152905162002271926001600160a01b0316916318160ddd916004808301926020929190829003018186803b1580156200213457600080fd5b505afa15801562002149573d6000803e3d6000fd5b505050506040513d60208110156200216057600080fd5b5051600554600654604080516370a0823160e01b81526001600160a01b03928316600482015290516200227193633b9aca009362001fe4939116916370a0823191602480820192602092909190829003018186803b158015620021c257600080fd5b505afa158015620021d7573d6000803e3d6000fd5b505050506040513d6020811015620021ee57600080fd5b5051600554604080516318160ddd60e01b815290516001600160a01b03909216916318160ddd91600480820192602092909190829003018186803b1580156200223657600080fd5b505afa1580156200224b573d6000803e3d6000fd5b505050506040513d60208110156200226257600080fd5b50519063ffffffff6200260e16565b9063ffffffff62002ae216565b9063ffffffff6200260e16565b90506000620023226200231b84600760009054906101000a90046001600160a01b03166001600160a01b03166318160ddd6040518163ffffffff1660e01b815260040160206040518083038186803b158015620022e757600080fd5b505afa158015620022fc573d6000803e3d6000fd5b505050506040513d60208110156200231357600080fd5b5051620025ca565b8362002b3d565b905062002336858263ffffffff62002ae216565b43600c5560075460408051630a9ee07f60e31b815290519296506001600160a01b039091169163817e9d319162002393918991899186916354f703f8916004808301926020929190829003018186803b1580156200096357600080fd5b6040518263ffffffff1660e01b815260040180828152602001915050602060405180830381600087803b158015620023ca57600080fd5b505af1158015620023df573d6000803e3d6000fd5b505050506040513d6020811015620023f657600080fd5b5050600754604080516318160ddd60e01b815290517f41a79a497d1457df24c25ab99f22349ae9aef4468429f0a781216e8dcf80c628926001600160a01b0316916318160ddd916004808301926020929190829003018186803b1580156200245d57600080fd5b505afa15801562002472573d6000803e3d6000fd5b505050506040513d60208110156200248957600080fd5b5051604080519182526020820185905281810188905260608201879052519081900360800190a16000620024c4848363ffffffff6200260e16565b6004549091506000906001600160a01b03161562002572575060065460048054604080516340c10f1960e01b81526001600160a01b0392831693810193909352600a6005860204602484018190529051909391909116916340c10f199160448083019260209291908290030181600087803b1580156200254357600080fd5b505af115801562002558573d6000803e3d6000fd5b505050506040513d60208110156200256f57600080fd5b50505b604080518681526020810185905280820184905260608101839052905133917f73600b95c31a4ed411c84c32eaa15178c77fdcd9d5c8123118e76c03b3dcd63b919081900360800190a2600197505050505050505090565b6000676765c793fa10079d601b1b620025fe620025e8858562002c01565b6002676765c793fa10079d601b1b5b0462002c67565b816200260657fe5b049392505050565b60006200265283836040518060400160405280601e81526020017f536166654d6174683a207375627472616374696f6e206f766572666c6f77000081525062002cb7565b9392505050565b60006200106f6200266b8484620025ca565b8562002b3d565b3390565b6200268462000c7662002672565b620026c15760405162461bcd60e51b815260040180806020018281038252603081526020018062004cdf6030913960400191505060405180910390fd5b600154600160a01b900460ff1662002717576040805162461bcd60e51b815260206004820152601460248201527314185d5cd8589b194e881b9bdd081c185d5cd95960621b604482015290519081900360640190fd5b6001805460ff60a01b191690557f5db9ee0a495bf2e6ff9c91a7834c1ba4fdd244a5e8aa4e537bd38aeae4b073aa6200274f62002672565b604080516001600160a01b039092168252519081900360200190a1565b60006001600160a01b038216620027b55760405162461bcd60e51b815260040180806020018281038252602281526020018062004dc56022913960400191505060405180910390fd5b506001600160a01b03166000908152602091909152604090205460ff1690565b6001600160a01b0380841660009081526008602090815260408083205481516318160ddd60e01b81529151939485949116926318160ddd9260048082019391829003018186803b1580156200282957600080fd5b505afa1580156200283e573d6000803e3d6000fd5b505050506040513d60208110156200285557600080fd5b5051600754604080516370a0823160e01b81526001600160a01b0389811660048301529151939450620028c693620028bf93620028b89387939116916370a0823191602480820192602092909190829003018186803b1580156200223657600080fd5b85620025ca565b8262002b3d565b95945050505050565b620028e260008263ffffffff62002d5216565b6040516001600160a01b038216907fcd265ebaf09df2871cc7bd4133404a235ba12eff2041bb89d9c714a2621c7c7e90600090a250565b6200292c60008263ffffffff62002dbd16565b6040516001600160a01b038216907f6719d08c1888103bea251a4ed56406bd0c3e69723c8a1686e017e7bbe159b6f890600090a250565b6200297162000c7662002672565b620029ae5760405162461bcd60e51b815260040180806020018281038252603081526020018062004cdf6030913960400191505060405180910390fd5b600154600160a01b900460ff161562002a01576040805162461bcd60e51b815260206004820152601060248201526f14185d5cd8589b194e881c185d5cd95960821b604482015290519081900360640190fd5b6001805460ff60a01b1916600160a01b1790557f62e78cea01bee320cd4e420270b5ea74000d11b0c9f74754ebdbfc544b05a2586200274f62002672565b6001600160a01b03811662002a865760405162461bcd60e51b815260040180806020018281038252602681526020018062004d0f6026913960400191505060405180910390fd5b6001546040516001600160a01b038084169216907f8be0079c531659141344cd1fd0a4f28419497f9722a3daafe3b4186f6b6457e090600090a3600180546001600160a01b0319166001600160a01b0392909216919091179055565b60008282018381101562002652576040805162461bcd60e51b815260206004820152601b60248201527f536166654d6174683a206164646974696f6e206f766572666c6f770000000000604482015290519081900360640190fd5b600081620025fe62002b5b85676765c793fa10079d601b1b62002c01565b600285620025f7565b600062002b706200111e565b1562002b7b57600080fd5b600c54600e544382900391111562002b9557905062000739565b600d54600e54039003905090565b60008262002bb45750600062001843565b8282028284828162002bc257fe5b0414620026525760405162461bcd60e51b815260040180806020018281038252602181526020018062004d846021913960400191505060405180910390fd5b600081158062002c1e5750508082028282828162002c1b57fe5b04145b62001843576040805162461bcd60e51b815260206004820152601460248201527364732d6d6174682d6d756c2d6f766572666c6f7760601b604482015290519081900360640190fd5b8082018281101562001843576040805162461bcd60e51b815260206004820152601460248201527364732d6d6174682d6164642d6f766572666c6f7760601b604482015290519081900360640190fd5b6000818484111562002d4a5760405162461bcd60e51b81526004018080602001828103825283818151815260200191508051906020019080838360005b8381101562002d0e57818101518382015260200162002cf4565b50505050905090810190601f16801562002d3c5780820380516001836020036101000a031916815260200191505b509250505060405180910390fd5b505050900390565b62002d5e82826200276c565b62002d9b5760405162461bcd60e51b815260040180806020018281038252602181526020018062004d636021913960400191505060405180910390fd5b6001600160a01b0316600090815260209190915260409020805460ff19169055565b62002dc982826200276c565b1562002e1c576040805162461bcd60e51b815260206004820152601f60248201527f526f6c65733a206163636f756e7420616c72656164792068617320726f6c6500604482015290519081900360640190fd5b6001600160a01b0316600090815260209190915260409020805460ff19166001179055565b611e8f8062002e508339019056fe60806040523480156200001157600080fd5b5060405162001e8f38038062001e8f833981810160405260808110156200003757600080fd5b81019080805160405193929190846401000000008211156200005857600080fd5b9083019060208201858111156200006e57600080fd5b82516401000000008111828201881017156200008957600080fd5b82525081516020918201929091019080838360005b83811015620000b85781810151838201526020016200009e565b50505050905090810190601f168015620000e65780820380516001836020036101000a031916815260200191505b50604052602001805160405193929190846401000000008211156200010a57600080fd5b9083019060208201858111156200012057600080fd5b82516401000000008111828201881017156200013b57600080fd5b82525081516020918201929091019080838360005b838110156200016a57818101518382015260200162000150565b50505050905090810190601f168015620001985780820380516001836020036101000a031916815260200191505b50604090815260208201519101519092509050838383838383836000848484601b620001df620001d06001600160e01b03620002ad16565b6001600160e01b03620002b216565b620001f26001600160e01b03620002ad16565b600480546001600160a01b0319166001600160a01b0392831617908190556040519116906000907f8be0079c531659141344cd1fd0a4f28419497f9722a3daafe3b4186f6b6457e0908290a38251620002539060059060208601906200042e565b508151620002699060069060208501906200042e565b506007805460ff90921660ff19928316179055600b959095555050600c9190915543600d55600e80549115159190921617905550620004d098505050505050505050565b335b90565b620002cd8160036200030460201b6200148b1790919060201c565b6040516001600160a01b038216907f6ae172837ea30b801fbfcdd4108aa1d5bf8ff775444fd70256b44e6bf3dfc3f690600090a250565b6200031982826001600160e01b03620003ab16565b156200038657604080517f08c379a000000000000000000000000000000000000000000000000000000000815260206004820152601f60248201527f526f6c65733a206163636f756e7420616c72656164792068617320726f6c6500604482015290519081900360640190fd5b6001600160a01b0316600090815260209190915260409020805460ff19166001179055565b60006001600160a01b0382166200040e576040517f08c379a000000000000000000000000000000000000000000000000000000000815260040180806020018281038252602281526020018062001e6d6022913960400191505060405180910390fd5b506001600160a01b03166000908152602091909152604090205460ff1690565b828054600181600116156101000203166002900490600052602060002090601f016020900481019282601f106200047157805160ff1916838001178555620004a1565b82800160010185558215620004a1579182015b82811115620004a157825182559160200191906001019062000484565b50620004af929150620004b3565b5090565b620002af91905b80821115620004af5760008155600101620004ba565b61198d80620004e06000396000f3fe608060405234801561001057600080fd5b50600436106101a95760003560e01c8063817e9d31116100f9578063a9059cbb11610097578063d4132ee211610071578063d4132ee2146104bf578063dd62ed3e146104c7578063f2fde38b146104f5578063f41e60c51461051b576101a9565b8063a9059cbb14610465578063aa271e1a14610491578063bef97c87146104b7576101a9565b806395d89b41116100d357806395d89b4114610403578063983b2d561461040b5780639865027514610431578063a457c2d714610439576101a9565b8063817e9d31146103ba5780638da5cb5b146103d75780638f32d59b146103fb576101a9565b806340c10f191161016657806370a082311161014057806370a0823114610358578063715018a61461037e57806379cc679014610386578063806b984f146103b2576101a9565b806340c10f191461030557806342966c681461033157806354f703f814610350576101a9565b806306fdde03146101ae578063095ea7b31461022b57806318160ddd1461026b57806323b872dd14610285578063313ce567146102bb57806339509351146102d9575b600080fd5b6101b661053a565b6040805160208082528351818301528351919283929083019185019080838360005b838110156101f05781810151838201526020016101d8565b50505050905090810190601f16801561021d5780820380516001836020036101000a031916815260200191505b509250505060405180910390f35b6102576004803603604081101561024157600080fd5b506001600160a01b0381351690602001356105d0565b604080519115158252519081900360200190f35b6102736105ee565b60408051918252519081900360200190f35b6102576004803603606081101561029b57600080fd5b506001600160a01b03813581169160208101359091169060400135610600565b6102c36106f1565b6040805160ff9092168252519081900360200190f35b610257600480360360408110156102ef57600080fd5b506001600160a01b0381351690602001356106fa565b6102576004803603604081101561031b57600080fd5b506001600160a01b03813516906020013561074e565b61034e6004803603602081101561034757600080fd5b50356107a5565b005b6102736107b9565b6102736004803603602081101561036e57600080fd5b50356001600160a01b03166107bf565b61034e6107e9565b61034e6004803603604081101561039c57600080fd5b506001600160a01b03813516906020013561087a565b610273610888565b610257600480360360208110156103d057600080fd5b503561088e565b6103df610920565b604080516001600160a01b039092168252519081900360200190f35b61025761092f565b6101b6610955565b61034e6004803603602081101561042157600080fd5b50356001600160a01b03166109b6565b61034e610a05565b6102576004803603604081101561044f57600080fd5b506001600160a01b038135169060200135610a17565b6102576004803603604081101561047b57600080fd5b506001600160a01b038135169060200135610a85565b610257600480360360208110156104a757600080fd5b50356001600160a01b0316610afd565b610257610b10565b610273610b19565b610273600480360360408110156104dd57600080fd5b506001600160a01b0381358116916020013516610b1f565b61034e6004803603602081101561050b57600080fd5b50356001600160a01b0316610b4a565b61034e6004803603602081101561053157600080fd5b50351515610b9a565b60058054604080516020601f60026000196101006001881615020190951694909404938401819004810282018101909252828152606093909290918301828280156105c65780601f1061059b576101008083540402835291602001916105c6565b820191906000526020600020905b8154815290600101906020018083116105a957829003601f168201915b5050505050905090565b60006105e46105dd610bf4565b8484610bf8565b5060015b92915050565b60006105fb600a54610cec565b905090565b600061060a610920565b6001600160a01b0316336001600160a01b0316148061062b5750600e5460ff165b6106665760405162461bcd60e51b815260040180806020018281038252602a815260200180611864602a913960400191505060405180910390fd5b610671848484610d32565b6106e78461067d610bf4565b6106e2856040518060600160405280603781526020016118be603791396001600160a01b038a166000908152600960205260408120906106bb610bf4565b6001600160a01b03168152602081019190915260400160002054919063ffffffff610ea916565b610bf8565b5060019392505050565b60075460ff1690565b60006105e4610707610bf4565b846106e28560096000610718610bf4565b6001600160a01b03908116825260208083019390935260409182016000908120918c16815292529020549063ffffffff610f4016565b600061076061075b610bf4565b610afd565b61079b5760405162461bcd60e51b815260040180806020018281038252603081526020018061173c6030913960400191505060405180910390fd5b6105e48383610f9a565b6107b66107b0610bf4565b82611091565b50565b600b5490565b6001600160a01b0381166000908152600860205260408120546107e190610cec565b90505b919050565b6107f161092f565b610830576040805162461bcd60e51b815260206004820181905260248201526000805160206117bb833981519152604482015290519081900360640190fd5b6004546040516000916001600160a01b0316907f8be0079c531659141344cd1fd0a4f28419497f9722a3daafe3b4186f6b6457e0908390a3600480546001600160a01b0319169055565b6108848282611193565b5050565b600d5490565b600061089861092f565b6108d7576040805162461bcd60e51b815260206004820181905260248201526000805160206117bb833981519152604482015290519081900360640190fd5b600b805490839055604080518281526020810185905281517fafc9085bb15d79bc1e9d87807e2fc5f4c2b631088cb3e38c86cb627c12a0e430929181900390910190a150919050565b6004546001600160a01b031690565b6004546000906001600160a01b0316610946610bf4565b6001600160a01b031614905090565b60068054604080516020601f60026000196101006001881615020190951694909404938401819004810282018101909252828152606093909290918301828280156105c65780601f1061059b576101008083540402835291602001916105c6565b6109c161075b610bf4565b6109fc5760405162461bcd60e51b815260040180806020018281038252603081526020018061173c6030913960400191505060405180910390fd5b6107b6816111fb565b610a15610a10610bf4565b611243565b565b60006105e4610a24610bf4565b846106e2856040518060600160405280603481526020016116706034913960096000610a4e610bf4565b6001600160a01b03908116825260208083019390935260409182016000908120918d1681529252902054919063ffffffff610ea916565b6000610a8f610920565b6001600160a01b0316336001600160a01b03161480610ab05750600e5460ff165b610aeb5760405162461bcd60e51b815260040180806020018281038252602a815260200180611864602a913960400191505060405180910390fd5b6105e4610af6610bf4565b8484610d32565b60006107e160038363ffffffff61128b16565b600e5460ff1690565b600c5490565b6001600160a01b03918216600090815260096020908152604080832093909416825291909152205490565b610b5261092f565b610b91576040805162461bcd60e51b815260206004820181905260248201526000805160206117bb833981519152604482015290519081900360640190fd5b6107b6816112f2565b610ba261092f565b610be1576040805162461bcd60e51b815260206004820181905260248201526000805160206117bb833981519152604482015290519081900360640190fd5b600e805460ff1916911515919091179055565b3390565b610c00611393565b6001600160a01b038316610c455760405162461bcd60e51b81526004018080602001828103825260338152602001806116d86033913960400191505060405180910390fd5b6001600160a01b038216610c8a5760405162461bcd60e51b815260040180806020018281038252603181526020018061170b6031913960400191505060405180910390fd5b6001600160a01b03808416600081815260096020908152604080832094871680845294825291829020859055815185815291517f8c5be1e5ebec7d5bd14f71427d1e84f3dd0314c0f7b2291e5b200ac8c7c3b9259281900390910190a3505050565b600081610cfb575060006107e4565b600d54430380610d1957610d1183600b546113e5565b9150506107e4565b610d2b83610d2683611426565b6113e5565b9392505050565b610d3a611393565b6001600160a01b038316610d7f5760405162461bcd60e51b81526004018080602001828103825260348152602001806116a46034913960400191505060405180910390fd5b6001600160a01b038216610dc45760405162461bcd60e51b81526004018080602001828103825260328152602001806117fd6032913960400191505060405180910390fd5b6000610dcf8261142d565b9050610e148160405180606001604052806035815260200161182f603591396001600160a01b038716600090815260086020526040902054919063ffffffff610ea916565b6001600160a01b038086166000908152600860205260408082209390935590851681522054610e49908263ffffffff610f4016565b6001600160a01b0380851660008181526008602052604090209290925585167fddf252ad1be2c89b69c2b068fc378daa952ba7f163c4a11628f55a4df523b3ef610e928461143b565b60408051918252519081900360200190a350505050565b60008184841115610f385760405162461bcd60e51b81526004018080602001828103825283818151815260200191508051906020019080838360005b83811015610efd578181015183820152602001610ee5565b50505050905090810190601f168015610f2a5780820380516001836020036101000a031916815260200191505b509250505060405180910390fd5b505050900390565b600082820183811015610d2b576040805162461bcd60e51b815260206004820152601b60248201527f536166654d6174683a206164646974696f6e206f766572666c6f770000000000604482015290519081900360640190fd5b610fa2611393565b6001600160a01b038216610fe75760405162461bcd60e51b815260040180806020018281038252602e81526020018061178d602e913960400191505060405180910390fd5b6000610ff28261142d565b600a54909150611008908263ffffffff610f4016565b600a556001600160a01b038316600090815260086020526040902054611034908263ffffffff610f4016565b6001600160a01b038416600081815260086020526040812092909255907fddf252ad1be2c89b69c2b068fc378daa952ba7f163c4a11628f55a4df523b3ef61107b8461143b565b60408051918252519081900360200190a3505050565b611099611393565b6001600160a01b0382166110de5760405162461bcd60e51b815260040180806020018281038252603081526020018061188e6030913960400191505060405180910390fd5b60006110e98261142d565b905061112e816040518060600160405280603181526020016118f5603191396001600160a01b038616600090815260086020526040902054919063ffffffff610ea916565b6001600160a01b038416600090815260086020526040902055600a5461115a908263ffffffff61144916565b600a5560006001600160a01b0384167fddf252ad1be2c89b69c2b068fc378daa952ba7f163c4a11628f55a4df523b3ef61107b8461143b565b61119b611393565b6111a58282611091565b6111ad61092f565b61088457610884826111bd610bf4565b6106e284604051806060016040528060338152602001611926603391396001600160a01b0388166000908152600960205260408120906106bb610bf4565b61120c60038263ffffffff61148b16565b6040516001600160a01b038216907f6ae172837ea30b801fbfcdd4108aa1d5bf8ff775444fd70256b44e6bf3dfc3f690600090a250565b61125460038263ffffffff61150c16565b6040516001600160a01b038216907fe94479a9f7e1952cc78f2d6baab678adc1b772d936c6583def489e524cb6669290600090a250565b60006001600160a01b0382166112d25760405162461bcd60e51b81526004018080602001828103825260228152602001806117db6022913960400191505060405180910390fd5b506001600160a01b03166000908152602091909152604090205460ff1690565b6001600160a01b0381166113375760405162461bcd60e51b815260040180806020018281038252602681526020018061164a6026913960400191505060405180910390fd5b6004546040516001600160a01b038084169216907f8be0079c531659141344cd1fd0a4f28419497f9722a3daafe3b4186f6b6457e090600090a3600480546001600160a01b0319166001600160a01b0392909216919091179055565b600d54430380156107b6576113a781611426565b600b81905543600d5560408051918252517fe26ee4870433319e6f01f123f37f6f6823ff4084f5651912025d24930b01bcb69181900360200190a150565b60006b033b2e3c9fd0803ce80000006114176114018585611573565b60026b033b2e3c9fd0803ce80000005b046115d6565b8161141e57fe5b049392505050565b50600b5490565b60006107e182600b54611625565b60006107e182600b546113e5565b6000610d2b83836040518060400160405280601e81526020017f536166654d6174683a207375627472616374696f6e206f766572666c6f770000815250610ea9565b611495828261128b565b156114e7576040805162461bcd60e51b815260206004820152601f60248201527f526f6c65733a206163636f756e7420616c72656164792068617320726f6c6500604482015290519081900360640190fd5b6001600160a01b0316600090815260209190915260409020805460ff19166001179055565b611516828261128b565b6115515760405162461bcd60e51b815260040180806020018281038252602181526020018061176c6021913960400191505060405180910390fd5b6001600160a01b0316600090815260209190915260409020805460ff19169055565b600081158061158e5750508082028282828161158b57fe5b04145b6105e8576040805162461bcd60e51b815260206004820152601460248201527364732d6d6174682d6d756c2d6f766572666c6f7760601b604482015290519081900360640190fd5b808201828110156105e8576040805162461bcd60e51b815260206004820152601460248201527364732d6d6174682d6164642d6f766572666c6f7760601b604482015290519081900360640190fd5b600081611417611641856b033b2e3c9fd0803ce8000000611573565b60028561141156fe4f776e61626c653a206e6577206f776e657220697320746865207a65726f20616464726573734175746f496e6372656d656e74436f696e6167653a2064656372656173656420616c6c6f77616e63652062656c6f77207a65726f4175746f496e6372656d656e74436f696e6167653a207472616e736665722066726f6d20746865207a65726f20616464726573734175746f496e6372656d656e74436f696e6167653a20617070726f76652066726f6d20746865207a65726f20616464726573734175746f496e6372656d656e74436f696e6167653a20617070726f766520746f20746865207a65726f20616464726573734d696e746572526f6c653a2063616c6c657220646f6573206e6f74206861766520746865204d696e74657220726f6c65526f6c65733a206163636f756e7420646f6573206e6f74206861766520726f6c654175746f496e6372656d656e74436f696e6167653a206d696e7420746f20746865207a65726f20616464726573734f776e61626c653a2063616c6c6572206973206e6f7420746865206f776e6572526f6c65733a206163636f756e7420697320746865207a65726f20616464726573734175746f496e6372656d656e74436f696e6167653a207472616e7366657220746f20746865207a65726f20616464726573734175746f496e6372656d656e74436f696e6167653a207472616e7366657220616d6f756e7420657863656564732062616c616e63654175746f496e6372656d656e74436f696e6167653a207472616e73666572206e6f7420616c6c6f7765644175746f496e6372656d656e74436f696e6167653a206275726e2066726f6d20746865207a65726f20616464726573734175746f496e6372656d656e74436f696e6167653a207472616e7366657220616d6f756e74206578636565647320616c6c6f77616e63654175746f496e6372656d656e74436f696e6167653a206275726e20616d6f756e7420657863656564732062616c616e63654175746f496e6372656d656e74436f696e6167653a206275726e20616d6f756e74206578636565647320616c6c6f77616e6365a265627a7a7231582050d00b8977e838230804362b03ad66a8ac2d4f747d5fd9e9f0b95e932009fa8464736f6c634300050c0032526f6c65733a206163636f756e7420697320746865207a65726f2061646472657373506175736572526f6c653a2063616c6c657220646f6573206e6f742068617665207468652050617573657220726f6c654f776e61626c653a206e6577206f776e657220697320746865207a65726f2061646472657373536569674d616e616765723a20636f696e61676520686173206e6f74206265656e206465706c6f79656420796574526f6c65733a206163636f756e7420646f6573206e6f74206861766520726f6c65536166654d6174683a206d756c7469706c69636174696f6e206f766572666c6f774f776e61626c653a2063616c6c6572206973206e6f7420746865206f776e6572526f6c65733a206163636f756e7420697320746865207a65726f2061646472657373536569674d616e616765723a20636f6d6d697373696f6e2072617465206d7573742062652030206f72206265747765656e20312052415920616e6420302e303120524159536569674d616e616765723a206f6e6c7920544f4e206f722057544f4e2063616e2063616c6c206f6e5472616e73666572536569674d616e616765723a20696e73756666696369616e742062616c616e636520746f20756e7374616b65a265627a7a72315820317c05de54e8d7c623094645dde2dc487f4d7a5a15bb3ef4864f0094e3a0384764736f6c634300050c003260806040523480156200001157600080fd5b5060405162001e8f38038062001e8f833981810160405260808110156200003757600080fd5b81019080805160405193929190846401000000008211156200005857600080fd5b9083019060208201858111156200006e57600080fd5b82516401000000008111828201881017156200008957600080fd5b82525081516020918201929091019080838360005b83811015620000b85781810151838201526020016200009e565b50505050905090810190601f168015620000e65780820380516001836020036101000a031916815260200191505b50604052602001805160405193929190846401000000008211156200010a57600080fd5b9083019060208201858111156200012057600080fd5b82516401000000008111828201881017156200013b57600080fd5b82525081516020918201929091019080838360005b838110156200016a57818101518382015260200162000150565b50505050905090810190601f168015620001985780820380516001836020036101000a031916815260200191505b50604090815260208201519101519092509050838383838383836000848484601b620001df620001d06001600160e01b03620002ad16565b6001600160e01b03620002b216565b620001f26001600160e01b03620002ad16565b600480546001600160a01b0319166001600160a01b0392831617908190556040519116906000907f8be0079c531659141344cd1fd0a4f28419497f9722a3daafe3b4186f6b6457e0908290a38251620002539060059060208601906200042e565b508151620002699060069060208501906200042e565b506007805460ff90921660ff19928316179055600b959095555050600c9190915543600d55600e80549115159190921617905550620004d098505050505050505050565b335b90565b620002cd8160036200030460201b6200148b1790919060201c565b6040516001600160a01b038216907f6ae172837ea30b801fbfcdd4108aa1d5bf8ff775444fd70256b44e6bf3dfc3f690600090a250565b6200031982826001600160e01b03620003ab16565b156200038657604080517f08c379a000000000000000000000000000000000000000000000000000000000815260206004820152601f60248201527f526f6c65733a206163636f756e7420616c72656164792068617320726f6c6500604482015290519081900360640190fd5b6001600160a01b0316600090815260209190915260409020805460ff19166001179055565b60006001600160a01b0382166200040e576040517f08c379a000000000000000000000000000000000000000000000000000000000815260040180806020018281038252602281526020018062001e6d6022913960400191505060405180910390fd5b506001600160a01b03166000908152602091909152604090205460ff1690565b828054600181600116156101000203166002900490600052602060002090601f016020900481019282601f106200047157805160ff1916838001178555620004a1565b82800160010185558215620004a1579182015b82811115620004a157825182559160200191906001019062000484565b50620004af929150620004b3565b5090565b620002af91905b80821115620004af5760008155600101620004ba565b61198d80620004e06000396000f3fe608060405234801561001057600080fd5b50600436106101a95760003560e01c8063817e9d31116100f9578063a9059cbb11610097578063d4132ee211610071578063d4132ee2146104bf578063dd62ed3e146104c7578063f2fde38b146104f5578063f41e60c51461051b576101a9565b8063a9059cbb14610465578063aa271e1a14610491578063bef97c87146104b7576101a9565b806395d89b41116100d357806395d89b4114610403578063983b2d561461040b5780639865027514610431578063a457c2d714610439576101a9565b8063817e9d31146103ba5780638da5cb5b146103d75780638f32d59b146103fb576101a9565b806340c10f191161016657806370a082311161014057806370a0823114610358578063715018a61461037e57806379cc679014610386578063806b984f146103b2576101a9565b806340c10f191461030557806342966c681461033157806354f703f814610350576101a9565b806306fdde03146101ae578063095ea7b31461022b57806318160ddd1461026b57806323b872dd14610285578063313ce567146102bb57806339509351146102d9575b600080fd5b6101b661053a565b6040805160208082528351818301528351919283929083019185019080838360005b838110156101f05781810151838201526020016101d8565b50505050905090810190601f16801561021d5780820380516001836020036101000a031916815260200191505b509250505060405180910390f35b6102576004803603604081101561024157600080fd5b506001600160a01b0381351690602001356105d0565b604080519115158252519081900360200190f35b6102736105ee565b60408051918252519081900360200190f35b6102576004803603606081101561029b57600080fd5b506001600160a01b03813581169160208101359091169060400135610600565b6102c36106f1565b6040805160ff9092168252519081900360200190f35b610257600480360360408110156102ef57600080fd5b506001600160a01b0381351690602001356106fa565b6102576004803603604081101561031b57600080fd5b506001600160a01b03813516906020013561074e565b61034e6004803603602081101561034757600080fd5b50356107a5565b005b6102736107b9565b6102736004803603602081101561036e57600080fd5b50356001600160a01b03166107bf565b61034e6107e9565b61034e6004803603604081101561039c57600080fd5b506001600160a01b03813516906020013561087a565b610273610888565b610257600480360360208110156103d057600080fd5b503561088e565b6103df610920565b604080516001600160a01b039092168252519081900360200190f35b61025761092f565b6101b6610955565b61034e6004803603602081101561042157600080fd5b50356001600160a01b03166109b6565b61034e610a05565b6102576004803603604081101561044f57600080fd5b506001600160a01b038135169060200135610a17565b6102576004803603604081101561047b57600080fd5b506001600160a01b038135169060200135610a85565b610257600480360360208110156104a757600080fd5b50356001600160a01b0316610afd565b610257610b10565b610273610b19565b610273600480360360408110156104dd57600080fd5b506001600160a01b0381358116916020013516610b1f565b61034e6004803603602081101561050b57600080fd5b50356001600160a01b0316610b4a565b61034e6004803603602081101561053157600080fd5b50351515610b9a565b60058054604080516020601f60026000196101006001881615020190951694909404938401819004810282018101909252828152606093909290918301828280156105c65780601f1061059b576101008083540402835291602001916105c6565b820191906000526020600020905b8154815290600101906020018083116105a957829003601f168201915b5050505050905090565b60006105e46105dd610bf4565b8484610bf8565b5060015b92915050565b60006105fb600a54610cec565b905090565b600061060a610920565b6001600160a01b0316336001600160a01b0316148061062b5750600e5460ff165b6106665760405162461bcd60e51b815260040180806020018281038252602a815260200180611864602a913960400191505060405180910390fd5b610671848484610d32565b6106e78461067d610bf4565b6106e2856040518060600160405280603781526020016118be603791396001600160a01b038a166000908152600960205260408120906106bb610bf4565b6001600160a01b03168152602081019190915260400160002054919063ffffffff610ea916565b610bf8565b5060019392505050565b60075460ff1690565b60006105e4610707610bf4565b846106e28560096000610718610bf4565b6001600160a01b03908116825260208083019390935260409182016000908120918c16815292529020549063ffffffff610f4016565b600061076061075b610bf4565b610afd565b61079b5760405162461bcd60e51b815260040180806020018281038252603081526020018061173c6030913960400191505060405180910390fd5b6105e48383610f9a565b6107b66107b0610bf4565b82611091565b50565b600b5490565b6001600160a01b0381166000908152600860205260408120546107e190610cec565b90505b919050565b6107f161092f565b610830576040805162461bcd60e51b815260206004820181905260248201526000805160206117bb833981519152604482015290519081900360640190fd5b6004546040516000916001600160a01b0316907f8be0079c531659141344cd1fd0a4f28419497f9722a3daafe3b4186f6b6457e0908390a3600480546001600160a01b0319169055565b6108848282611193565b5050565b600d5490565b600061089861092f565b6108d7576040805162461bcd60e51b815260206004820181905260248201526000805160206117bb833981519152604482015290519081900360640190fd5b600b805490839055604080518281526020810185905281517fafc9085bb15d79bc1e9d87807e2fc5f4c2b631088cb3e38c86cb627c12a0e430929181900390910190a150919050565b6004546001600160a01b031690565b6004546000906001600160a01b0316610946610bf4565b6001600160a01b031614905090565b60068054604080516020601f60026000196101006001881615020190951694909404938401819004810282018101909252828152606093909290918301828280156105c65780601f1061059b576101008083540402835291602001916105c6565b6109c161075b610bf4565b6109fc5760405162461bcd60e51b815260040180806020018281038252603081526020018061173c6030913960400191505060405180910390fd5b6107b6816111fb565b610a15610a10610bf4565b611243565b565b60006105e4610a24610bf4565b846106e2856040518060600160405280603481526020016116706034913960096000610a4e610bf4565b6001600160a01b03908116825260208083019390935260409182016000908120918d1681529252902054919063ffffffff610ea916565b6000610a8f610920565b6001600160a01b0316336001600160a01b03161480610ab05750600e5460ff165b610aeb5760405162461bcd60e51b815260040180806020018281038252602a815260200180611864602a913960400191505060405180910390fd5b6105e4610af6610bf4565b8484610d32565b60006107e160038363ffffffff61128b16565b600e5460ff1690565b600c5490565b6001600160a01b03918216600090815260096020908152604080832093909416825291909152205490565b610b5261092f565b610b91576040805162461bcd60e51b815260206004820181905260248201526000805160206117bb833981519152604482015290519081900360640190fd5b6107b6816112f2565b610ba261092f565b610be1576040805162461bcd60e51b815260206004820181905260248201526000805160206117bb833981519152604482015290519081900360640190fd5b600e805460ff1916911515919091179055565b3390565b610c00611393565b6001600160a01b038316610c455760405162461bcd60e51b81526004018080602001828103825260338152602001806116d86033913960400191505060405180910390fd5b6001600160a01b038216610c8a5760405162461bcd60e51b815260040180806020018281038252603181526020018061170b6031913960400191505060405180910390fd5b6001600160a01b03808416600081815260096020908152604080832094871680845294825291829020859055815185815291517f8c5be1e5ebec7d5bd14f71427d1e84f3dd0314c0f7b2291e5b200ac8c7c3b9259281900390910190a3505050565b600081610cfb575060006107e4565b600d54430380610d1957610d1183600b546113e5565b9150506107e4565b610d2b83610d2683611426565b6113e5565b9392505050565b610d3a611393565b6001600160a01b038316610d7f5760405162461bcd60e51b81526004018080602001828103825260348152602001806116a46034913960400191505060405180910390fd5b6001600160a01b038216610dc45760405162461bcd60e51b81526004018080602001828103825260328152602001806117fd6032913960400191505060405180910390fd5b6000610dcf8261142d565b9050610e148160405180606001604052806035815260200161182f603591396001600160a01b038716600090815260086020526040902054919063ffffffff610ea916565b6001600160a01b038086166000908152600860205260408082209390935590851681522054610e49908263ffffffff610f4016565b6001600160a01b0380851660008181526008602052604090209290925585167fddf252ad1be2c89b69c2b068fc378daa952ba7f163c4a11628f55a4df523b3ef610e928461143b565b60408051918252519081900360200190a350505050565b60008184841115610f385760405162461bcd60e51b81526004018080602001828103825283818151815260200191508051906020019080838360005b83811015610efd578181015183820152602001610ee5565b50505050905090810190601f168015610f2a5780820380516001836020036101000a031916815260200191505b509250505060405180910390fd5b505050900390565b600082820183811015610d2b576040805162461bcd60e51b815260206004820152601b60248201527f536166654d6174683a206164646974696f6e206f766572666c6f770000000000604482015290519081900360640190fd5b610fa2611393565b6001600160a01b038216610fe75760405162461bcd60e51b815260040180806020018281038252602e81526020018061178d602e913960400191505060405180910390fd5b6000610ff28261142d565b600a54909150611008908263ffffffff610f4016565b600a556001600160a01b038316600090815260086020526040902054611034908263ffffffff610f4016565b6001600160a01b038416600081815260086020526040812092909255907fddf252ad1be2c89b69c2b068fc378daa952ba7f163c4a11628f55a4df523b3ef61107b8461143b565b60408051918252519081900360200190a3505050565b611099611393565b6001600160a01b0382166110de5760405162461bcd60e51b815260040180806020018281038252603081526020018061188e6030913960400191505060405180910390fd5b60006110e98261142d565b905061112e816040518060600160405280603181526020016118f5603191396001600160a01b038616600090815260086020526040902054919063ffffffff610ea916565b6001600160a01b038416600090815260086020526040902055600a5461115a908263ffffffff61144916565b600a5560006001600160a01b0384167fddf252ad1be2c89b69c2b068fc378daa952ba7f163c4a11628f55a4df523b3ef61107b8461143b565b61119b611393565b6111a58282611091565b6111ad61092f565b61088457610884826111bd610bf4565b6106e284604051806060016040528060338152602001611926603391396001600160a01b0388166000908152600960205260408120906106bb610bf4565b61120c60038263ffffffff61148b16565b6040516001600160a01b038216907f6ae172837ea30b801fbfcdd4108aa1d5bf8ff775444fd70256b44e6bf3dfc3f690600090a250565b61125460038263ffffffff61150c16565b6040516001600160a01b038216907fe94479a9f7e1952cc78f2d6baab678adc1b772d936c6583def489e524cb6669290600090a250565b60006001600160a01b0382166112d25760405162461bcd60e51b81526004018080602001828103825260228152602001806117db6022913960400191505060405180910390fd5b506001600160a01b03166000908152602091909152604090205460ff1690565b6001600160a01b0381166113375760405162461bcd60e51b815260040180806020018281038252602681526020018061164a6026913960400191505060405180910390fd5b6004546040516001600160a01b038084169216907f8be0079c531659141344cd1fd0a4f28419497f9722a3daafe3b4186f6b6457e090600090a3600480546001600160a01b0319166001600160a01b0392909216919091179055565b600d54430380156107b6576113a781611426565b600b81905543600d5560408051918252517fe26ee4870433319e6f01f123f37f6f6823ff4084f5651912025d24930b01bcb69181900360200190a150565b60006b033b2e3c9fd0803ce80000006114176114018585611573565b60026b033b2e3c9fd0803ce80000005b046115d6565b8161141e57fe5b049392505050565b50600b5490565b60006107e182600b54611625565b60006107e182600b546113e5565b6000610d2b83836040518060400160405280601e81526020017f536166654d6174683a207375627472616374696f6e206f766572666c6f770000815250610ea9565b611495828261128b565b156114e7576040805162461bcd60e51b815260206004820152601f60248201527f526f6c65733a206163636f756e7420616c72656164792068617320726f6c6500604482015290519081900360640190fd5b6001600160a01b0316600090815260209190915260409020805460ff19166001179055565b611516828261128b565b6115515760405162461bcd60e51b815260040180806020018281038252602181526020018061176c6021913960400191505060405180910390fd5b6001600160a01b0316600090815260209190915260409020805460ff19169055565b600081158061158e5750508082028282828161158b57fe5b04145b6105e8576040805162461bcd60e51b815260206004820152601460248201527364732d6d6174682d6d756c2d6f766572666c6f7760601b604482015290519081900360640190fd5b808201828110156105e8576040805162461bcd60e51b815260206004820152601460248201527364732d6d6174682d6164642d6f766572666c6f7760601b604482015290519081900360640190fd5b600081611417611641856b033b2e3c9fd0803ce8000000611573565b60028561141156fe4f776e61626c653a206e6577206f776e657220697320746865207a65726f20616464726573734175746f496e6372656d656e74436f696e6167653a2064656372656173656420616c6c6f77616e63652062656c6f77207a65726f4175746f496e6372656d656e74436f696e6167653a207472616e736665722066726f6d20746865207a65726f20616464726573734175746f496e6372656d656e74436f696e6167653a20617070726f76652066726f6d20746865207a65726f20616464726573734175746f496e6372656d656e74436f696e6167653a20617070726f766520746f20746865207a65726f20616464726573734d696e746572526f6c653a2063616c6c657220646f6573206e6f74206861766520746865204d696e74657220726f6c65526f6c65733a206163636f756e7420646f6573206e6f74206861766520726f6c654175746f496e6372656d656e74436f696e6167653a206d696e7420746f20746865207a65726f20616464726573734f776e61626c653a2063616c6c6572206973206e6f7420746865206f776e6572526f6c65733a206163636f756e7420697320746865207a65726f20616464726573734175746f496e6372656d656e74436f696e6167653a207472616e7366657220746f20746865207a65726f20616464726573734175746f496e6372656d656e74436f696e6167653a207472616e7366657220616d6f756e7420657863656564732062616c616e63654175746f496e6372656d656e74436f696e6167653a207472616e73666572206e6f7420616c6c6f7765644175746f496e6372656d656e74436f696e6167653a206275726e2066726f6d20746865207a65726f20616464726573734175746f496e6372656d656e74436f696e6167653a207472616e7366657220616d6f756e74206578636565647320616c6c6f77616e63654175746f496e6372656d656e74436f696e6167653a206275726e20616d6f756e7420657863656564732062616c616e63654175746f496e6372656d656e74436f696e6167653a206275726e20616d6f756e74206578636565647320616c6c6f77616e6365a265627a7a7231582050d00b8977e838230804362b03ad66a8ac2d4f747d5fd9e9f0b95e932009fa8464736f6c634300050c0032526f6c65733a206163636f756e7420697320746865207a65726f2061646472657373526f6c65733a206163636f756e7420697320746865207a65726f2061646472657373",
  "source": "pragma solidity ^0.5.12;\n\nimport { Ownable } from \"../../../node_modules/openzeppelin-solidity/contracts/ownership/Ownable.sol\";\nimport { Pausable } from \"../../../node_modules/openzeppelin-solidity/contracts/lifecycle/Pausable.sol\";\nimport { SafeMath } from \"../../../node_modules/openzeppelin-solidity/contracts/math/SafeMath.sol\";\nimport { ERC20Mintable } from \"../../../node_modules/openzeppelin-solidity/contracts/token/ERC20/ERC20Mintable.sol\";\nimport { IERC20 } from \"../../../node_modules/openzeppelin-solidity/contracts/token/ERC20/IERC20.sol\";\nimport { SafeERC20 } from \"../../../node_modules/openzeppelin-solidity/contracts/token/ERC20/SafeERC20.sol\";\n\nimport { DSMath } from \"../../../node_modules/coinage-token/contracts/lib/DSMath.sol\";\nimport { CustomIncrementCoinageMock as CustomIncrementCoinage } from \"../../../node_modules/coinage-token/flatten.sol\";\n\nimport { AuthController } from \"../tokens/AuthController.sol\";\n\nimport { RootChainI } from \"../../RootChainI.sol\";\n\nimport { SeigManagerI } from \"../interfaces/SeigManagerI.sol\";\nimport { RootChainRegistryI } from \"../interfaces/RootChainRegistryI.sol\";\nimport { DepositManagerI } from \"../interfaces/DepositManagerI.sol\";\nimport { PowerTONI } from \"../interfaces/PowerTONI.sol\";\n\n\n\n/**\n * @dev SeigManager gives seigniorage to operator and WTON holders.\n * For each commit by operator, operator (or user) will get seigniorage\n * in propotion to the staked (or delegated) amount of WTON.\n *\n * [Tokens]\n * - {tot} tracks total staked or delegated WTON of each RootChain contract (and depositor?).\n * - {coinages[rootchain]} tracks staked or delegated WTON of user or operator to a RootChain contract.\n *\n * For each commit by operator,\n *  1. increases all root chains' balance of {tot} by (the staked amount of WTON) /\n *     (total supply of TON and WTON) * (num blocks * seigniorage per block).\n *  2. increases all depositors' blanace of {coinages[rootchain]} in proportion to the staked amount of WTON,\n *     up to the increased amount in step (1).\n *  3. set the root chain's balance of {committed} as the root chain's {tot} balance.\n *\n * For each stake or delegate with amount of {v} to a RootChain,\n *  1. mint {v} {coinages[rootchain]} tokens to the account\n *  2. mint {v} {tot} tokens to the root chain contract\n *\n * For each unstake or undelegate (or get rewards) with amount of {v} to a RootChain,\n *  1. burn {v} {coinages[rootchain]} tokens from the account\n *  2. burn {v + } {tot} tokens from the root chain contract,\n *   where  = SEIGS * staked ratio of the root chian * withdrawal ratio of the account\n *     - SEIGS                              = tot total supply - tot total supply at last commit from the root chain\n *     - staked ratio of the root chian     = tot balance of the root chain / tot total supply\n *     - withdrawal ratio of the account  = amount to withdraw / total supply of coinage\n *\n */\ncontract SeigManager is SeigManagerI, DSMath, Ownable, Pausable, AuthController {\n  using SafeMath for uint256;\n  using SafeERC20 for ERC20Mintable;\n\n  //////////////////////////////\n  // Common contracts\n  //////////////////////////////\n\n  RootChainRegistryI internal _registry;\n  DepositManagerI internal _depositManager;\n  PowerTONI internal _powerton;\n\n  //////////////////////////////\n  // Token-related\n  //////////////////////////////\n\n  // TON token contract\n  IERC20 internal _ton;\n\n  // WTON token contract\n  ERC20Mintable internal _wton; // TODO: use mintable erc20!\n\n  // track total deposits of each root chain.\n  CustomIncrementCoinage internal _tot;\n\n  // coinage token for each root chain.\n  mapping (address => CustomIncrementCoinage) internal _coinages;\n\n  // commission rates in RAY\n  mapping (address => uint256) internal _commissionRates;\n\n  // last commit block number for each root chain.\n  mapping (address => uint256) internal _lastCommitBlock;\n\n  // total seigniorage per block\n  uint256 internal _seigPerBlock;\n\n  // the block number when seigniorages are given\n  uint256 internal _lastSeigBlock;\n\n  // block number when paused or unpaused\n  uint256 internal _pausedBlock;\n  uint256 internal _unpausedBlock;\n\n  //////////////////////////////\n  // Constants\n  //////////////////////////////\n\n  uint256 constant internal _DEFAULT_FACTOR = 10 ** 27;\n  uint256 constant public POWER_TON_NUMERATOR = 5;\n  uint256 constant public POWER_TON_DENOMINATOR = 10;\n\n  uint256 constant public MAX_VALID_COMMISSION = 10 ** 27; // 1 RAY\n  uint256 constant public MIN_VALID_COMMISSION = 10 ** 25; // 0.01 RAY\n\n  //////////////////////////////\n  // Modifiers\n  //////////////////////////////\n\n  modifier onlyRegistry() {\n    require(msg.sender == address(_registry));\n    _;\n  }\n\n  modifier onlyRegistryOrOperator(address rootchain) {\n    require(msg.sender == address(_registry) || msg.sender == RootChainI(rootchain).operator());\n    _;\n  }\n\n  modifier onlyDepositManager() {\n    require(msg.sender == address(_depositManager));\n    _;\n  }\n\n  modifier onlyRootChain(address rootchain) {\n    require(_registry.rootchains(rootchain));\n    _;\n  }\n\n  modifier checkCoinage(address rootchain) {\n    require(address(_coinages[rootchain]) != address(0), \"SeigManager: coinage has not been deployed yet\");\n    _;\n  }\n\n  //////////////////////////////\n  // Events\n  //////////////////////////////\n\n  event CoinageCreated(address indexed rootchain, address coinage);\n  event SeigGiven(address indexed rootchain, uint256 totalSeig, uint256 stakedSeig, uint256 unstakedSeig, uint256 powertonSeig);\n  event Comitted(address indexed rootchain);\n  event CommissionRateSet(address indexed rootchain, uint256 previousRate, uint256 newRate);\n\n  //////////////////////////////\n  // Constuctor\n  //////////////////////////////\n\n  constructor (\n    ERC20Mintable ton,\n    ERC20Mintable wton,\n    RootChainRegistryI registry,\n    DepositManagerI depositManager,\n    uint256 seigPerBlock\n  ) public {\n    _ton = ton;\n    _wton = wton;\n    _registry = registry;\n    _depositManager = depositManager;\n    _seigPerBlock = seigPerBlock;\n\n    _tot = new CustomIncrementCoinage(\n      \"\",\n      \"\",\n      _DEFAULT_FACTOR,\n      false\n    );\n\n    _lastSeigBlock = block.number;\n  }\n\n  //////////////////////////////\n  // Override Pausable\n  //////////////////////////////\n\n  function pause() public onlyPauser whenNotPaused {\n    _pausedBlock = block.number;\n    super.pause();\n  }\n\n  /**\n   * @dev Called by a pauser to unpause, returns to normal state.\n   */\n  function unpause() public onlyPauser whenPaused {\n    _unpausedBlock = block.number;\n    super.unpause();\n  }\n\n  //////////////////////////////\n  // External functions\n  //////////////////////////////\n\n  /**\n   * @dev set PowerTON contract, only by owner.\n   */\n  function setPowerTON(PowerTONI powerton) external onlyOwner {\n    _powerton = powerton;\n  }\n\n\n  /**\n   * @dev deploy coinage token for the root chain.\n   */\n  function deployCoinage(address rootchain) external onlyRegistry returns (bool) {\n    // short circuit if already coinage is deployed\n    if (address(_coinages[rootchain]) != address(0)) {\n      return false;\n    }\n\n    // create new coinage token for the root chain contract\n    if (address(_coinages[rootchain]) == address(0)) {\n      _coinages[rootchain] = new CustomIncrementCoinage(\n        \"\",\n        \"\",\n        _DEFAULT_FACTOR,\n        false\n      );\n      _lastCommitBlock[rootchain] = block.number;\n      emit CoinageCreated(rootchain, address(_coinages[rootchain]));\n    }\n\n    return true;\n  }\n\n  function setCommissionRate(\n    address rootchain,\n    uint256 commissionRate\n  )\n    external\n    onlyRegistryOrOperator(rootchain)\n    returns (bool)\n  {\n    // check commission range\n    require(\n      (commissionRate == 0) ||\n      (MIN_VALID_COMMISSION <= commissionRate && commissionRate <= MAX_VALID_COMMISSION),\n      \"SeigManager: commission rate must be 0 or between 1 RAY and 0.01 RAY\"\n    );\n\n    uint256 previous = _commissionRates[rootchain];\n    _commissionRates[rootchain] = commissionRate;\n    emit CommissionRateSet(rootchain, previous, commissionRate);\n\n    return true;\n  }\n\n  /**\n   * @dev Callback for a new commit\n   */\n  function onCommit()\n    external\n    checkCoinage(msg.sender)\n    returns (bool)\n  {\n    // short circuit if paused\n    if (paused()) {\n      return true;\n    }\n\n    _increaseTot();\n\n    _lastCommitBlock[msg.sender] = block.number;\n\n    // 2. increase total supply of {coinages[rootchain]}\n    CustomIncrementCoinage coinage = _coinages[msg.sender];\n\n    uint256 prevTotalSupply = coinage.totalSupply();\n    uint256 nextTotalSupply = _tot.balanceOf(msg.sender);\n\n    if (prevTotalSupply < nextTotalSupply) {\n      uint256 seigs = nextTotalSupply - prevTotalSupply;\n      uint256 operatorSeigs;\n\n      // calculate commission amount\n      uint256 commissionRate = _commissionRates[msg.sender];\n      if (commissionRate != 0) {\n        operatorSeigs = rmul(seigs, commissionRate);\n        nextTotalSupply = nextTotalSupply.sub(operatorSeigs);\n      }\n\n      // gives seigniorages to the root chain as coinage\n      coinage.setFactor(\n          _calcNewFactor(\n            prevTotalSupply,\n            nextTotalSupply,\n            coinage.factor()\n          )\n        );\n\n      if (operatorSeigs != 0) {\n        coinage.mint(RootChainI(msg.sender).operator(), operatorSeigs);\n      }\n\n      _wton.mint(address(this), seigs);\n    }\n\n    // emit events\n    emit Comitted(msg.sender);\n\n    return true;\n  }\n\n  /**\n   * @dev Callback for a token transfer\n   */\n  function onTransfer(address sender, address recipient, uint256 amount) external returns (bool) {\n    require(msg.sender == address(_ton) || msg.sender == address(_wton),\n      \"SeigManager: only TON or WTON can call onTransfer\");\n\n    if (!paused()) {\n      _increaseTot();\n    }\n\n    return true;\n  }\n\n  /**\n   * @dev Callback for a new deposit\n   */\n  function onDeposit(address rootchain, address account, uint256 amount)\n    external\n    onlyDepositManager\n    checkCoinage(rootchain)\n    returns (bool)\n  {\n    _tot.mint(rootchain, amount);\n    _coinages[rootchain].mint(account, amount);\n    if (address(_powerton) != address(0)) {\n      _powerton.onDeposit(rootchain, account, amount);\n    }\n    return true;\n  }\n\n  // DEV ONLY\n  event UnstakeLog(uint coinageBurnAmount, uint totBurnAmount);\n\n  function onWithdraw(address rootchain, address account, uint256 amount)\n    external\n    onlyDepositManager\n    checkCoinage(rootchain)\n    returns (bool)\n  {\n    require(_coinages[rootchain].balanceOf(account) >= amount, \"SeigManager: insufficiant balance to unstake\");\n\n    // burn {v + } {tot} tokens to the root chain contract,\n    uint256 totAmount = _additionalTotBurnAmount(rootchain, account, amount);\n    _tot.burnFrom(rootchain, amount.add(totAmount));\n\n    // burn {v} {coinages[rootchain]} tokens to the account\n    _coinages[rootchain].burnFrom(account, amount);\n\n    if (address(_powerton) != address(0)) {\n      _powerton.onWithdraw(rootchain, account, amount);\n    }\n\n    emit UnstakeLog(amount, totAmount);\n\n    return true;\n  }\n\n  function additionalTotBurnAmount(address rootchain, address account, uint256 amount)\n    external\n    view\n    returns (uint256 totAmount)\n  {\n    return _additionalTotBurnAmount(rootchain, account, amount);\n  }\n\n  // return , where  = (tot.balanceOf(rootchain) - coinages[rootchain].totalSupply()) * (amount / coinages[rootchain].totalSupply())\n  function _additionalTotBurnAmount(address rootchain, address account, uint256 amount)\n    internal\n    view\n    returns (uint256 totAmount)\n  {\n    uint256 coinageTotalSupply = _coinages[rootchain].totalSupply();\n\n    return rdiv(\n      rmul(\n        _tot.balanceOf(rootchain).sub(coinageTotalSupply),\n        amount\n      ),\n      coinageTotalSupply\n    );\n  }\n\n  //////////////////////////////\n  // Public and internal functions\n  //////////////////////////////\n\n  function uncomittedStakeOf(address rootchain, address account) external view returns (uint256) {\n    CustomIncrementCoinage coinage = _coinages[rootchain];\n\n    uint256 prevFactor = coinage.factor();\n    uint256 prevTotalSupply = coinage.totalSupply();\n    uint256 nextTotalSupply = _tot.balanceOf(rootchain);\n    uint256 newFactor = _calcNewFactor(prevTotalSupply, nextTotalSupply, prevFactor);\n\n    uint256 uncomittedBalance = rmul(\n      rdiv(coinage.balanceOf(account), prevFactor),\n      newFactor\n    );\n\n    return uncomittedBalance\n      .sub(_coinages[rootchain].balanceOf(account));\n  }\n\n  function stakeOf(address rootchain, address account) external view returns (uint256) {\n    return _coinages[rootchain].balanceOf(account);\n  }\n\n  function _calcNewFactor(uint256 source, uint256 target, uint256 oldFactor) internal pure returns (uint256) {\n    return rdiv(rmul(target, oldFactor), source);\n  }\n\n  // DEV ONLY\n  event CommitLog1(uint256 totalStakedAmount, uint256 totalSupplyOfWTON, uint256 prevTotalSupply, uint256 nextTotalSupply);\n\n  function _increaseTot() internal returns (bool) {\n    // short circuit if already seigniorage is given.\n    if (block.number == _lastSeigBlock) {\n      return false;\n    }\n\n    if (_tot.totalSupply() == 0) {\n      _lastSeigBlock = block.number;\n      return false;\n    }\n\n    uint256 prevTotalSupply;\n    uint256 nextTotalSupply;\n\n    // 1. increase total supply of {tot} by maximum seigniorages * staked rate\n    //    staked rate = total staked amount / total supply of (W)TON\n\n    prevTotalSupply = _tot.totalSupply();\n\n    // maximum seigniorages\n    uint256 maxSeig = _calcNumSeigBlocks().mul(_seigPerBlock);\n\n    // total supply of (W)TON\n    uint256 tos = _ton.totalSupply()\n      .sub(_ton.balanceOf(address(_wton)))\n      .mul(10 ** 9)                                       // convert TON total supply into ray\n      .add(_wton.totalSupply())                           // add WTON total supply\n      .add(_tot.totalSupply()).sub(_wton.totalSupply());  // consider additional TOT balance as total supply\n\n    // maximum seigniorages * staked rate\n    uint256 stakedSeig = rdiv(\n      rmul(\n        maxSeig,\n        // total staked amount\n        _tot.totalSupply()\n      ),\n      tos\n    );\n\n    nextTotalSupply = prevTotalSupply.add(stakedSeig);\n    _lastSeigBlock = block.number;\n\n    _tot.setFactor(_calcNewFactor(prevTotalSupply, nextTotalSupply, _tot.factor()));\n\n    // TODO: reduce computation\n    // DEV ONLY\n    emit CommitLog1(\n      _tot.totalSupply(),\n      tos,\n      prevTotalSupply,\n      nextTotalSupply\n    );\n\n    uint256 unstakedSeig = maxSeig.sub(stakedSeig);\n    uint256 powertonSeig;\n\n    if (address(_powerton) != address(0)) {\n      // out of gas..?\n      // powertonSeig = unstakedSeig.mul(POWER_TON_NUMERATOR).div(POWER_TON_DENOMINATOR);\n      powertonSeig = unstakedSeig * POWER_TON_NUMERATOR / POWER_TON_DENOMINATOR;\n\n      _wton.mint(address(_powerton), powertonSeig);\n    }\n\n    emit SeigGiven(msg.sender, maxSeig, stakedSeig, unstakedSeig, powertonSeig);\n\n    return true;\n  }\n\n  function _calcNumSeigBlocks() internal returns (uint256) {\n    require(!paused());\n\n    uint256 span = block.number - _lastSeigBlock;\n    if (_unpausedBlock < _lastSeigBlock) {\n      return span;\n    }\n\n    return span - (_unpausedBlock - _pausedBlock);\n  }\n\n  //////////////////////////////\n  // Storage getters\n  //////////////////////////////\n\n  // solium-disable\n  function registry() external view returns (RootChainRegistryI) { return _registry; }\n  function depositManager() external view returns (DepositManagerI) { return _depositManager; }\n  function ton() external view returns (IERC20) { return _ton; }\n  function wton() external view returns (ERC20Mintable) { return _wton; }\n  function powerton() external view returns (PowerTONI) { return _powerton; }\n  function tot() external view returns (CustomIncrementCoinage) { return _tot; }\n  function coinages(address rootchain) external view returns (CustomIncrementCoinage) { return _coinages[rootchain]; }\n  function commissionRates(address rootchain) external view returns (uint256) { return _commissionRates[rootchain]; }\n\n  function lastCommitBlock(address rootchain) external view returns (uint256) { return _lastCommitBlock[rootchain]; }\n  function seigPerBlock() external view returns (uint256) { return _seigPerBlock; }\n  function lastSeigBlock() external view returns (uint256) { return _lastSeigBlock; }\n  function pausedBlock() external view returns (uint256) { return _pausedBlock; }\n  function unpausedBlock() external view returns (uint256) { return _unpausedBlock; }\n\n  function DEFAULT_FACTOR() external view returns (uint256) { return _DEFAULT_FACTOR; }\n  // solium-enable\n}",
  "sourcePath": "/Users/pjh/workspace/plasma-evm-contracts/contracts/stake/managers/SeigManager.sol",
  "compiler": {
    "name": "solc",
    "version": "0.5.12+commit.7709ece9.Emscripten.clang"
  },
  "schemaVersion": "3.0.23",
  "updatedAt": "2020-04-03T08:24:39.685Z",
  "devdoc": {
    "details": "SeigManager gives seigniorage to operator and WTON holders. For each commit by operator, operator (or user) will get seigniorage in propotion to the staked (or delegated) amount of WTON. * [Tokens] - {tot} tracks total staked or delegated WTON of each RootChain contract (and depositor?). - {coinages[rootchain]} tracks staked or delegated WTON of user or operator to a RootChain contract. * For each commit by operator, 1. increases all root chains' balance of {tot} by (the staked amount of WTON) /    (total supply of TON and WTON) * (num blocks * seigniorage per block). 2. increases all depositors' blanace of {coinages[rootchain]} in proportion to the staked amount of WTON,    up to the increased amount in step (1). 3. set the root chain's balance of {committed} as the root chain's {tot} balance. * For each stake or delegate with amount of {v} to a RootChain, 1. mint {v} {coinages[rootchain]} tokens to the account 2. mint {v} {tot} tokens to the root chain contract * For each unstake or undelegate (or get rewards) with amount of {v} to a RootChain, 1. burn {v} {coinages[rootchain]} tokens from the account 2. burn {v + } {tot} tokens from the root chain contract,  where  = SEIGS * staked ratio of the root chian * withdrawal ratio of the account    - SEIGS                              = tot total supply - tot total supply at last commit from the root chain    - staked ratio of the root chian     = tot balance of the root chain / tot total supply    - withdrawal ratio of the account  = amount to withdraw / total supply of coinage ",
    "methods": {
      "deployCoinage(address)": {
        "details": "deploy coinage token for the root chain."
      },
      "isOwner()": {
        "details": "Returns true if the caller is the current owner."
      },
      "onCommit()": {
        "details": "Callback for a new commit"
      },
      "onDeposit(address,address,uint256)": {
        "details": "Callback for a new deposit"
      },
      "onTransfer(address,address,uint256)": {
        "details": "Callback for a token transfer"
      },
      "owner()": {
        "details": "Returns the address of the current owner."
      },
      "paused()": {
        "details": "Returns true if the contract is paused, and false otherwise."
      },
      "renounceOwnership()": {
        "details": "Leaves the contract without owner. It will not be possible to call `onlyOwner` functions anymore. Can only be called by the current owner.     * NOTE: Renouncing ownership will leave the contract without an owner, thereby removing any functionality that is only available to the owner."
      },
      "setPowerTON(address)": {
        "details": "set PowerTON contract, only by owner."
      },
      "transferOwnership(address)": {
        "details": "Transfers ownership of the contract to a new account (`newOwner`). Can only be called by the current owner."
      },
      "unpause()": {
        "details": "Called by a pauser to unpause, returns to normal state."
      }
    }
  },
  "userdoc": {
    "methods": {
      "constructor": "///////////////////////////",
      "pause()": {
        "notice": "///////////////////////////"
      },
      "registry()": {
        "notice": "///////////////////////////"
      },
      "uncomittedStakeOf(address,address)": {
        "notice": "///////////////////////////"
      }
    }
  }
}