{
  "contractName": "SubmitHandler",
  "abi": [
    {
      "inputs": [
        {
          "internalType": "address",
          "name": "_epochHandler",
          "type": "address"
        }
      ],
      "payable": false,
      "stateMutability": "nonpayable",
      "type": "constructor"
    },
    {
      "anonymous": false,
      "inputs": [
        {
          "indexed": false,
          "internalType": "uint256",
          "name": "forkNumber",
          "type": "uint256"
        },
        {
          "indexed": false,
          "internalType": "uint256",
          "name": "blockNumber",
          "type": "uint256"
        }
      ],
      "name": "BlockFinalized",
      "type": "event"
    },
    {
      "anonymous": false,
      "inputs": [
        {
          "indexed": false,
          "internalType": "uint256",
          "name": "fork",
          "type": "uint256"
        },
        {
          "indexed": false,
          "internalType": "uint256",
          "name": "epochNumber",
          "type": "uint256"
        },
        {
          "indexed": false,
          "internalType": "uint256",
          "name": "blockNumber",
          "type": "uint256"
        },
        {
          "indexed": false,
          "internalType": "bool",
          "name": "isRequest",
          "type": "bool"
        },
        {
          "indexed": false,
          "internalType": "bool",
          "name": "userActivated",
          "type": "bool"
        }
      ],
      "name": "BlockSubmitted",
      "type": "event"
    },
    {
      "anonymous": false,
      "inputs": [
        {
          "indexed": false,
          "internalType": "uint256",
          "name": "requestId",
          "type": "uint256"
        },
        {
          "indexed": false,
          "internalType": "address",
          "name": "requestor",
          "type": "address"
        },
        {
          "indexed": false,
          "internalType": "address",
          "name": "to",
          "type": "address"
        },
        {
          "indexed": false,
          "internalType": "bytes",
          "name": "trieKey",
          "type": "bytes"
        },
        {
          "indexed": false,
          "internalType": "bytes32",
          "name": "trieValue",
          "type": "bytes32"
        }
      ],
      "name": "ERUCreated",
      "type": "event"
    },
    {
      "anonymous": false,
      "inputs": [
        {
          "indexed": false,
          "internalType": "uint256",
          "name": "forkNumber",
          "type": "uint256"
        },
        {
          "indexed": false,
          "internalType": "uint256",
          "name": "epochNumber",
          "type": "uint256"
        }
      ],
      "name": "EpochFilled",
      "type": "event"
    },
    {
      "anonymous": false,
      "inputs": [
        {
          "indexed": false,
          "internalType": "uint256",
          "name": "forkNumber",
          "type": "uint256"
        },
        {
          "indexed": false,
          "internalType": "uint256",
          "name": "epochNumber",
          "type": "uint256"
        }
      ],
      "name": "EpochFilling",
      "type": "event"
    },
    {
      "anonymous": false,
      "inputs": [
        {
          "indexed": false,
          "internalType": "uint256",
          "name": "forkNumber",
          "type": "uint256"
        },
        {
          "indexed": false,
          "internalType": "uint256",
          "name": "epochNumber",
          "type": "uint256"
        },
        {
          "indexed": false,
          "internalType": "uint256",
          "name": "startBlockNumber",
          "type": "uint256"
        },
        {
          "indexed": false,
          "internalType": "uint256",
          "name": "endBlockNumber",
          "type": "uint256"
        }
      ],
      "name": "EpochFinalized",
      "type": "event"
    },
    {
      "anonymous": false,
      "inputs": [
        {
          "indexed": false,
          "internalType": "uint256",
          "name": "forkNumber",
          "type": "uint256"
        },
        {
          "indexed": false,
          "internalType": "uint256",
          "name": "epochNumber",
          "type": "uint256"
        },
        {
          "indexed": false,
          "internalType": "uint256",
          "name": "startBlockNumber",
          "type": "uint256"
        },
        {
          "indexed": false,
          "internalType": "uint256",
          "name": "endBlockNumber",
          "type": "uint256"
        },
        {
          "indexed": false,
          "internalType": "uint256",
          "name": "requestStart",
          "type": "uint256"
        },
        {
          "indexed": false,
          "internalType": "uint256",
          "name": "requestEnd",
          "type": "uint256"
        },
        {
          "indexed": false,
          "internalType": "bool",
          "name": "epochIsEmpty",
          "type": "bool"
        },
        {
          "indexed": false,
          "internalType": "bool",
          "name": "isRequest",
          "type": "bool"
        },
        {
          "indexed": false,
          "internalType": "bool",
          "name": "userActivated",
          "type": "bool"
        },
        {
          "indexed": false,
          "internalType": "bool",
          "name": "rebase",
          "type": "bool"
        }
      ],
      "name": "EpochPrepared",
      "type": "event"
    },
    {
      "anonymous": false,
      "inputs": [
        {
          "indexed": false,
          "internalType": "uint256",
          "name": "forkNumber",
          "type": "uint256"
        },
        {
          "indexed": false,
          "internalType": "uint256",
          "name": "epochNumber",
          "type": "uint256"
        },
        {
          "indexed": false,
          "internalType": "uint256",
          "name": "startBlockNumber",
          "type": "uint256"
        },
        {
          "indexed": false,
          "internalType": "uint256",
          "name": "endBlockNumber",
          "type": "uint256"
        },
        {
          "indexed": false,
          "internalType": "uint256",
          "name": "requestStart",
          "type": "uint256"
        },
        {
          "indexed": false,
          "internalType": "uint256",
          "name": "requestEnd",
          "type": "uint256"
        },
        {
          "indexed": false,
          "internalType": "bool",
          "name": "epochIsEmpty",
          "type": "bool"
        },
        {
          "indexed": false,
          "internalType": "bool",
          "name": "isRequest",
          "type": "bool"
        },
        {
          "indexed": false,
          "internalType": "bool",
          "name": "userActivated",
          "type": "bool"
        }
      ],
      "name": "EpochRebased",
      "type": "event"
    },
    {
      "anonymous": false,
      "inputs": [
        {
          "indexed": false,
          "internalType": "uint256",
          "name": "newFork",
          "type": "uint256"
        },
        {
          "indexed": false,
          "internalType": "uint256",
          "name": "epochNumber",
          "type": "uint256"
        },
        {
          "indexed": false,
          "internalType": "uint256",
          "name": "forkedBlockNumber",
          "type": "uint256"
        }
      ],
      "name": "Forked",
      "type": "event"
    },
    {
      "anonymous": false,
      "inputs": [
        {
          "indexed": false,
          "internalType": "address",
          "name": "_newOperator",
          "type": "address"
        }
      ],
      "name": "OperatorChanged",
      "type": "event"
    },
    {
      "anonymous": false,
      "inputs": [
        {
          "indexed": false,
          "internalType": "uint256",
          "name": "requestId",
          "type": "uint256"
        },
        {
          "indexed": false,
          "internalType": "bool",
          "name": "userActivated",
          "type": "bool"
        }
      ],
      "name": "RequestApplied",
      "type": "event"
    },
    {
      "anonymous": false,
      "inputs": [
        {
          "indexed": false,
          "internalType": "uint256",
          "name": "requestId",
          "type": "uint256"
        },
        {
          "indexed": false,
          "internalType": "bool",
          "name": "userActivated",
          "type": "bool"
        }
      ],
      "name": "RequestChallenged",
      "type": "event"
    },
    {
      "anonymous": false,
      "inputs": [
        {
          "indexed": false,
          "internalType": "uint256",
          "name": "requestId",
          "type": "uint256"
        },
        {
          "indexed": false,
          "internalType": "address",
          "name": "requestor",
          "type": "address"
        },
        {
          "indexed": false,
          "internalType": "address",
          "name": "to",
          "type": "address"
        },
        {
          "indexed": false,
          "internalType": "uint256",
          "name": "weiAmount",
          "type": "uint256"
        },
        {
          "indexed": false,
          "internalType": "bytes32",
          "name": "trieKey",
          "type": "bytes32"
        },
        {
          "indexed": false,
          "internalType": "bytes",
          "name": "trieValue",
          "type": "bytes"
        },
        {
          "indexed": false,
          "internalType": "bool",
          "name": "isExit",
          "type": "bool"
        },
        {
          "indexed": false,
          "internalType": "bool",
          "name": "userActivated",
          "type": "bool"
        }
      ],
      "name": "RequestCreated",
      "type": "event"
    },
    {
      "anonymous": false,
      "inputs": [
        {
          "indexed": false,
          "internalType": "uint256",
          "name": "requestId",
          "type": "uint256"
        },
        {
          "indexed": false,
          "internalType": "bool",
          "name": "userActivated",
          "type": "bool"
        }
      ],
      "name": "RequestFinalized",
      "type": "event"
    },
    {
      "anonymous": false,
      "inputs": [
        {
          "indexed": false,
          "internalType": "address",
          "name": "contractInRootchain",
          "type": "address"
        },
        {
          "indexed": false,
          "internalType": "address",
          "name": "contractInChildchain",
          "type": "address"
        }
      ],
      "name": "RequestableContractMapped",
      "type": "event"
    },
    {
      "anonymous": false,
      "inputs": [
        {
          "indexed": false,
          "internalType": "bool",
          "name": "userActivated",
          "type": "bool"
        }
      ],
      "name": "SessionTimeout",
      "type": "event"
    },
    {
      "constant": true,
      "inputs": [],
      "name": "COST_ERO",
      "outputs": [
        {
          "internalType": "uint256",
          "name": "",
          "type": "uint256"
        }
      ],
      "payable": false,
      "stateMutability": "view",
      "type": "function"
    },
    {
      "constant": true,
      "inputs": [],
      "name": "COST_ERU",
      "outputs": [
        {
          "internalType": "uint256",
          "name": "",
          "type": "uint256"
        }
      ],
      "payable": false,
      "stateMutability": "view",
      "type": "function"
    },
    {
      "constant": true,
      "inputs": [],
      "name": "COST_NRB",
      "outputs": [
        {
          "internalType": "uint256",
          "name": "",
          "type": "uint256"
        }
      ],
      "payable": false,
      "stateMutability": "view",
      "type": "function"
    },
    {
      "constant": true,
      "inputs": [],
      "name": "COST_ORB",
      "outputs": [
        {
          "internalType": "uint256",
          "name": "",
          "type": "uint256"
        }
      ],
      "payable": false,
      "stateMutability": "view",
      "type": "function"
    },
    {
      "constant": true,
      "inputs": [],
      "name": "COST_URB",
      "outputs": [
        {
          "internalType": "uint256",
          "name": "",
          "type": "uint256"
        }
      ],
      "payable": false,
      "stateMutability": "view",
      "type": "function"
    },
    {
      "constant": true,
      "inputs": [],
      "name": "COST_URB_PREPARE",
      "outputs": [
        {
          "internalType": "uint256",
          "name": "",
          "type": "uint256"
        }
      ],
      "payable": false,
      "stateMutability": "view",
      "type": "function"
    },
    {
      "constant": true,
      "inputs": [],
      "name": "CP_COMPUTATION",
      "outputs": [
        {
          "internalType": "uint256",
          "name": "",
          "type": "uint256"
        }
      ],
      "payable": false,
      "stateMutability": "view",
      "type": "function"
    },
    {
      "constant": true,
      "inputs": [],
      "name": "CP_EXIT",
      "outputs": [
        {
          "internalType": "uint256",
          "name": "",
          "type": "uint256"
        }
      ],
      "payable": false,
      "stateMutability": "view",
      "type": "function"
    },
    {
      "constant": true,
      "inputs": [],
      "name": "CP_WITHHOLDING",
      "outputs": [
        {
          "internalType": "uint256",
          "name": "",
          "type": "uint256"
        }
      ],
      "payable": false,
      "stateMutability": "view",
      "type": "function"
    },
    {
      "constant": true,
      "inputs": [],
      "name": "EROIdToFinalize",
      "outputs": [
        {
          "internalType": "uint256",
          "name": "",
          "type": "uint256"
        }
      ],
      "payable": false,
      "stateMutability": "view",
      "type": "function"
    },
    {
      "constant": true,
      "inputs": [
        {
          "internalType": "uint256",
          "name": "",
          "type": "uint256"
        }
      ],
      "name": "EROs",
      "outputs": [
        {
          "internalType": "uint64",
          "name": "timestamp",
          "type": "uint64"
        },
        {
          "internalType": "bool",
          "name": "isExit",
          "type": "bool"
        },
        {
          "internalType": "bool",
          "name": "isTransfer",
          "type": "bool"
        },
        {
          "internalType": "bool",
          "name": "finalized",
          "type": "bool"
        },
        {
          "internalType": "bool",
          "name": "challenged",
          "type": "bool"
        },
        {
          "internalType": "uint128",
          "name": "value",
          "type": "uint128"
        },
        {
          "internalType": "address payable",
          "name": "requestor",
          "type": "address"
        },
        {
          "internalType": "address",
          "name": "to",
          "type": "address"
        },
        {
          "internalType": "bytes32",
          "name": "trieKey",
          "type": "bytes32"
        },
        {
          "internalType": "bytes32",
          "name": "hash",
          "type": "bytes32"
        },
        {
          "internalType": "bytes",
          "name": "trieValue",
          "type": "bytes"
        }
      ],
      "payable": false,
      "stateMutability": "view",
      "type": "function"
    },
    {
      "constant": true,
      "inputs": [],
      "name": "ERUIdToFinalize",
      "outputs": [
        {
          "internalType": "uint256",
          "name": "",
          "type": "uint256"
        }
      ],
      "payable": false,
      "stateMutability": "view",
      "type": "function"
    },
    {
      "constant": true,
      "inputs": [
        {
          "internalType": "uint256",
          "name": "",
          "type": "uint256"
        }
      ],
      "name": "ERUs",
      "outputs": [
        {
          "internalType": "uint64",
          "name": "timestamp",
          "type": "uint64"
        },
        {
          "internalType": "bool",
          "name": "isExit",
          "type": "bool"
        },
        {
          "internalType": "bool",
          "name": "isTransfer",
          "type": "bool"
        },
        {
          "internalType": "bool",
          "name": "finalized",
          "type": "bool"
        },
        {
          "internalType": "bool",
          "name": "challenged",
          "type": "bool"
        },
        {
          "internalType": "uint128",
          "name": "value",
          "type": "uint128"
        },
        {
          "internalType": "address payable",
          "name": "requestor",
          "type": "address"
        },
        {
          "internalType": "address",
          "name": "to",
          "type": "address"
        },
        {
          "internalType": "bytes32",
          "name": "trieKey",
          "type": "bytes32"
        },
        {
          "internalType": "bytes32",
          "name": "hash",
          "type": "bytes32"
        },
        {
          "internalType": "bytes",
          "name": "trieValue",
          "type": "bytes"
        }
      ],
      "payable": false,
      "stateMutability": "view",
      "type": "function"
    },
    {
      "constant": true,
      "inputs": [],
      "name": "NRELength",
      "outputs": [
        {
          "internalType": "uint256",
          "name": "",
          "type": "uint256"
        }
      ],
      "payable": false,
      "stateMutability": "view",
      "type": "function"
    },
    {
      "constant": true,
      "inputs": [],
      "name": "NULL_ADDRESS",
      "outputs": [
        {
          "internalType": "address",
          "name": "",
          "type": "address"
        }
      ],
      "payable": false,
      "stateMutability": "view",
      "type": "function"
    },
    {
      "constant": true,
      "inputs": [
        {
          "internalType": "uint256",
          "name": "",
          "type": "uint256"
        }
      ],
      "name": "ORBs",
      "outputs": [
        {
          "internalType": "bool",
          "name": "submitted",
          "type": "bool"
        },
        {
          "internalType": "uint64",
          "name": "numEnter",
          "type": "uint64"
        },
        {
          "internalType": "uint64",
          "name": "epochNumber",
          "type": "uint64"
        },
        {
          "internalType": "uint64",
          "name": "requestStart",
          "type": "uint64"
        },
        {
          "internalType": "uint64",
          "name": "requestEnd",
          "type": "uint64"
        },
        {
          "internalType": "address",
          "name": "trie",
          "type": "address"
        }
      ],
      "payable": false,
      "stateMutability": "view",
      "type": "function"
    },
    {
      "constant": true,
      "inputs": [],
      "name": "PREPARE_TIMEOUT",
      "outputs": [
        {
          "internalType": "uint256",
          "name": "",
          "type": "uint256"
        }
      ],
      "payable": false,
      "stateMutability": "view",
      "type": "function"
    },
    {
      "constant": true,
      "inputs": [],
      "name": "REQUEST_GAS",
      "outputs": [
        {
          "internalType": "uint256",
          "name": "",
          "type": "uint256"
        }
      ],
      "payable": false,
      "stateMutability": "view",
      "type": "function"
    },
    {
      "constant": true,
      "inputs": [
        {
          "internalType": "uint256",
          "name": "",
          "type": "uint256"
        }
      ],
      "name": "URBs",
      "outputs": [
        {
          "internalType": "bool",
          "name": "submitted",
          "type": "bool"
        },
        {
          "internalType": "uint64",
          "name": "numEnter",
          "type": "uint64"
        },
        {
          "internalType": "uint64",
          "name": "epochNumber",
          "type": "uint64"
        },
        {
          "internalType": "uint64",
          "name": "requestStart",
          "type": "uint64"
        },
        {
          "internalType": "uint64",
          "name": "requestEnd",
          "type": "uint64"
        },
        {
          "internalType": "address",
          "name": "trie",
          "type": "address"
        }
      ],
      "payable": false,
      "stateMutability": "view",
      "type": "function"
    },
    {
      "constant": true,
      "inputs": [],
      "name": "currentFork",
      "outputs": [
        {
          "internalType": "uint256",
          "name": "",
          "type": "uint256"
        }
      ],
      "payable": false,
      "stateMutability": "view",
      "type": "function"
    },
    {
      "constant": true,
      "inputs": [],
      "name": "development",
      "outputs": [
        {
          "internalType": "bool",
          "name": "",
          "type": "bool"
        }
      ],
      "payable": false,
      "stateMutability": "view",
      "type": "function"
    },
    {
      "constant": true,
      "inputs": [],
      "name": "epochHandler",
      "outputs": [
        {
          "internalType": "address",
          "name": "",
          "type": "address"
        }
      ],
      "payable": false,
      "stateMutability": "view",
      "type": "function"
    },
    {
      "constant": true,
      "inputs": [],
      "name": "etherToken",
      "outputs": [
        {
          "internalType": "address",
          "name": "",
          "type": "address"
        }
      ],
      "payable": false,
      "stateMutability": "view",
      "type": "function"
    },
    {
      "constant": true,
      "inputs": [
        {
          "internalType": "uint256",
          "name": "",
          "type": "uint256"
        }
      ],
      "name": "firstFilledORENumber",
      "outputs": [
        {
          "internalType": "uint256",
          "name": "",
          "type": "uint256"
        }
      ],
      "payable": false,
      "stateMutability": "view",
      "type": "function"
    },
    {
      "constant": true,
      "inputs": [
        {
          "internalType": "uint256",
          "name": "",
          "type": "uint256"
        }
      ],
      "name": "firstNonEmptyRequestEpoch",
      "outputs": [
        {
          "internalType": "uint256",
          "name": "",
          "type": "uint256"
        }
      ],
      "payable": false,
      "stateMutability": "view",
      "type": "function"
    },
    {
      "constant": true,
      "inputs": [
        {
          "internalType": "uint256",
          "name": "",
          "type": "uint256"
        }
      ],
      "name": "forks",
      "outputs": [
        {
          "internalType": "uint64",
          "name": "forkedBlock",
          "type": "uint64"
        },
        {
          "internalType": "uint64",
          "name": "firstEpoch",
          "type": "uint64"
        },
        {
          "internalType": "uint64",
          "name": "lastEpoch",
          "type": "uint64"
        },
        {
          "internalType": "uint64",
          "name": "firstBlock",
          "type": "uint64"
        },
        {
          "internalType": "uint64",
          "name": "lastBlock",
          "type": "uint64"
        },
        {
          "internalType": "uint64",
          "name": "lastFinalizedEpoch",
          "type": "uint64"
        },
        {
          "internalType": "uint64",
          "name": "lastFinalizedBlock",
          "type": "uint64"
        },
        {
          "internalType": "uint64",
          "name": "timestamp",
          "type": "uint64"
        },
        {
          "internalType": "uint64",
          "name": "firstEnterEpoch",
          "type": "uint64"
        },
        {
          "internalType": "uint64",
          "name": "lastEnterEpoch",
          "type": "uint64"
        },
        {
          "internalType": "uint64",
          "name": "nextBlockToRebase",
          "type": "uint64"
        },
        {
          "internalType": "bool",
          "name": "rebased",
          "type": "bool"
        }
      ],
      "payable": false,
      "stateMutability": "view",
      "type": "function"
    },
    {
      "constant": true,
      "inputs": [],
      "name": "isRootChain",
      "outputs": [
        {
          "internalType": "bool",
          "name": "",
          "type": "bool"
        }
      ],
      "payable": false,
      "stateMutability": "view",
      "type": "function"
    },
    {
      "constant": true,
      "inputs": [],
      "name": "lastAppliedBlockNumber",
      "outputs": [
        {
          "internalType": "uint256",
          "name": "",
          "type": "uint256"
        }
      ],
      "payable": false,
      "stateMutability": "view",
      "type": "function"
    },
    {
      "constant": true,
      "inputs": [],
      "name": "lastAppliedEpochNumber",
      "outputs": [
        {
          "internalType": "uint256",
          "name": "",
          "type": "uint256"
        }
      ],
      "payable": false,
      "stateMutability": "view",
      "type": "function"
    },
    {
      "constant": true,
      "inputs": [],
      "name": "lastAppliedForkNumber",
      "outputs": [
        {
          "internalType": "uint256",
          "name": "",
          "type": "uint256"
        }
      ],
      "payable": false,
      "stateMutability": "view",
      "type": "function"
    },
    {
      "constant": true,
      "inputs": [
        {
          "internalType": "uint256",
          "name": "",
          "type": "uint256"
        }
      ],
      "name": "lastNonEmptyRequestEpoch",
      "outputs": [
        {
          "internalType": "uint256",
          "name": "",
          "type": "uint256"
        }
      ],
      "payable": false,
      "stateMutability": "view",
      "type": "function"
    },
    {
      "constant": true,
      "inputs": [],
      "name": "numEnterForORB",
      "outputs": [
        {
          "internalType": "uint256",
          "name": "",
          "type": "uint256"
        }
      ],
      "payable": false,
      "stateMutability": "view",
      "type": "function"
    },
    {
      "constant": true,
      "inputs": [],
      "name": "operator",
      "outputs": [
        {
          "internalType": "address",
          "name": "",
          "type": "address"
        }
      ],
      "payable": false,
      "stateMutability": "view",
      "type": "function"
    },
    {
      "constant": true,
      "inputs": [
        {
          "internalType": "address",
          "name": "",
          "type": "address"
        }
      ],
      "name": "requestableContracts",
      "outputs": [
        {
          "internalType": "address",
          "name": "",
          "type": "address"
        }
      ],
      "payable": false,
      "stateMutability": "view",
      "type": "function"
    },
    {
      "constant": true,
      "inputs": [],
      "name": "seigManager",
      "outputs": [
        {
          "internalType": "address",
          "name": "",
          "type": "address"
        }
      ],
      "payable": false,
      "stateMutability": "view",
      "type": "function"
    },
    {
      "constant": true,
      "inputs": [],
      "name": "submitHandler",
      "outputs": [
        {
          "internalType": "address",
          "name": "",
          "type": "address"
        }
      ],
      "payable": false,
      "stateMutability": "view",
      "type": "function"
    },
    {
      "constant": false,
      "inputs": [
        {
          "internalType": "uint256",
          "name": "_pos1",
          "type": "uint256"
        },
        {
          "internalType": "uint256",
          "name": "_pos2",
          "type": "uint256"
        },
        {
          "internalType": "bytes32",
          "name": "_epochStateRoot",
          "type": "bytes32"
        },
        {
          "internalType": "bytes32",
          "name": "_epochTransactionsRoot",
          "type": "bytes32"
        },
        {
          "internalType": "bytes32",
          "name": "_epochReceiptsRoot",
          "type": "bytes32"
        }
      ],
      "name": "submitNRE",
      "outputs": [
        {
          "internalType": "bool",
          "name": "success",
          "type": "bool"
        }
      ],
      "payable": true,
      "stateMutability": "payable",
      "type": "function"
    },
    {
      "constant": false,
      "inputs": [
        {
          "internalType": "uint256",
          "name": "_pos",
          "type": "uint256"
        },
        {
          "internalType": "bytes32",
          "name": "_statesRoot",
          "type": "bytes32"
        },
        {
          "internalType": "bytes32",
          "name": "_transactionsRoot",
          "type": "bytes32"
        },
        {
          "internalType": "bytes32",
          "name": "_receiptsRoot",
          "type": "bytes32"
        }
      ],
      "name": "submitORB",
      "outputs": [
        {
          "internalType": "bool",
          "name": "success",
          "type": "bool"
        }
      ],
      "payable": true,
      "stateMutability": "payable",
      "type": "function"
    },
    {
      "constant": false,
      "inputs": [
        {
          "internalType": "uint256",
          "name": "_pos",
          "type": "uint256"
        },
        {
          "internalType": "bytes32",
          "name": "_statesRoot",
          "type": "bytes32"
        },
        {
          "internalType": "bytes32",
          "name": "_transactionsRoot",
          "type": "bytes32"
        },
        {
          "internalType": "bytes32",
          "name": "_receiptsRoot",
          "type": "bytes32"
        }
      ],
      "name": "submitURB",
      "outputs": [
        {
          "internalType": "bool",
          "name": "success",
          "type": "bool"
        }
      ],
      "payable": true,
      "stateMutability": "payable",
      "type": "function"
    }
  ],
  "bytecode": "0x608060405234801561001057600080fd5b5060405161219a38038061219a8339818101604052602081101561003357600080fd5b5051600180546001600160a01b039092166001600160a01b0319928316179055600280549091163017905561212d8061006d6000396000f3fe6080604052600436106102305760003560e01c8063a820c0671161012e578063c8ad329f116100ab578063e259faf71161006f578063e259faf7146107a5578063e7b88b80146107ba578063ea7f22a8146107cf578063f4f31de4146107f9578063fb788a271461082357610230565b8063c8ad329f1461071e578063ca6f638014610733578063d691acd814610235578063da0185f81461075d578063de0ce17d1461079057610230565b8063b6715647116100f2578063b671564714610640578063b8066bcb1461066a578063c0e860641461067f578063c2bc88fa146106f4578063c54626cc1461070957610230565b8063a820c067146104cb578063ab96da2d146104fa578063b17fa6e91461050f578063b2ae9ba814610235578063b443f3cc1461052457610230565b80634ba3a126116101bc5780637b929c27116101805780637b929c27146104775780638155717d1461048c5780638b5172d0146104a15780638eb288ca146104b657806394be3aa51461023557610230565b80634ba3a12614610338578063570ca735146103d85780636f3e4b90146104095780636fb7f5581461043857806372ecb9a81461044d57610230565b8063183d2d1c11610203578063183d2d1c146102cf578063192adc5b146102e457806323691566146102f95780632dc6bb7b1461030e578063420bb4b81461032357610230565b8063033cfbed1461023557806308c4fff01461025c5780630eaf45a814610271578063164bc2ae146102ba575b600080fd5b34801561024157600080fd5b5061024a610838565b60408051918252519081900360200190f35b34801561026857600080fd5b5061024a610842565b6102a6600480360360a081101561028757600080fd5b5080359060208101359060408101359060608101359060800135610847565b604080519115158252519081900360200190f35b3480156102c657600080fd5b5061024a610985565b3480156102db57600080fd5b5061024a61098b565b3480156102f057600080fd5b5061024a610991565b34801561030557600080fd5b5061024a61099b565b34801561031a57600080fd5b5061024a6109a1565b34801561032f57600080fd5b506102a66109a7565b34801561034457600080fd5b506103626004803603602081101561035b57600080fd5b50356109ac565b604080516001600160401b039d8e1681529b8d1660208d0152998c168b8b0152978b1660608b0152958a1660808a015293891660a089015291881660c0880152871660e0870152861661010086015285166101208501529093166101408301529115156101608201529051908190036101800190f35b3480156103e457600080fd5b506103ed610a23565b604080516001600160a01b039092168252519081900360200190f35b6102a66004803603608081101561041f57600080fd5b5080359060208101359060408101359060600135610a37565b34801561044457600080fd5b506103ed610dcd565b34801561045957600080fd5b5061024a6004803603602081101561047057600080fd5b5035610ddc565b34801561048357600080fd5b506102a6610dee565b34801561049857600080fd5b5061024a610df7565b3480156104ad57600080fd5b5061024a610dfc565b3480156104c257600080fd5b5061024a610e06565b6102a6600480360360808110156104e157600080fd5b5080359060208101359060408101359060600135610e0d565b34801561050657600080fd5b5061024a61137d565b34801561051b57600080fd5b5061024a611383565b34801561053057600080fd5b5061054e6004803603602081101561054757600080fd5b5035611388565b604080516001600160401b038d1681528b15156020808301919091528b151592820192909252891515606082015288151560808201526001600160801b03881660a08201526001600160a01b0380881660c0830152861660e082015261010081018590526101208101849052610160610140820181815284519183019190915283519192909161018084019185019080838360005b838110156105fb5781810151838201526020016105e3565b50505050905090810190601f1680156106285780820380516001836020036101000a031916815260200191505b509c5050505050505050505050505060405180910390f35b34801561064c57600080fd5b5061024a6004803603602081101561066357600080fd5b50356114a9565b34801561067657600080fd5b506103ed6114bb565b34801561068b57600080fd5b506106a9600480360360208110156106a257600080fd5b50356114ca565b6040805196151587526001600160401b03958616602088015293851686850152918416606086015290921660808401526001600160a01b0390911660a0830152519081900360c00190f35b34801561070057600080fd5b5061024a611531565b34801561071557600080fd5b5061024a611536565b34801561072a57600080fd5b5061024a61153c565b34801561073f57600080fd5b5061024a6004803603602081101561075657600080fd5b5035611542565b34801561076957600080fd5b506103ed6004803603602081101561078057600080fd5b50356001600160a01b0316611554565b34801561079c57600080fd5b506103ed61156f565b3480156107b157600080fd5b506103ed611574565b3480156107c657600080fd5b506103ed611583565b3480156107db57600080fd5b506106a9600480360360208110156107f257600080fd5b5035611592565b34801561080557600080fd5b5061054e6004803603602081101561081c57600080fd5b503561159f565b34801561082f57600080fd5b5061024a6115ac565b6509184e72a00081565b600f81565b6000806000610855886115b2565b9150915081600654146108af576040805162461bcd60e51b815260206004820152601960248201527f63757272656e74466f726b203d3d20666f726b4e756d62657200000000000000604482015290519081900360640190fd5b6000806108bb896115b2565b600086815260086020526040902091935091506108e390848a8a8a878763ffffffff6115c816565b6108eb61170e565b6004546001600160a01b03161561097557600480546040805163359c4d5960e01b815290516001600160a01b039092169263359c4d599282820192602092908290030181600087803b15801561094057600080fd5b505af1158015610954573d6000803e3d6000fd5b505050506040513d602081101561096a57600080fd5b505161097557600080fd5b5060019998505050505050505050565b60105481565b60065481565b6551dac207a00081565b600d5481565b60135481565b600181565b6008602052600090815260409020805460018201546002909201546001600160401b0380831693600160401b808504831694600160801b808204851695600160c01b92839004861695858116958581048216958482048316959182900483169484841694918204841693908204169160ff9104168c565b60005461010090046001600160a01b031681565b6000806000610a45876115b2565b600654919350915060010182148080610a5f575082600654145b610a6857600080fd5b60008381526008602052604090208115610b3457506006839055600083815260086020526040902042610a99611813565b6001830154600160c01b90046001600160401b03160111610ab957600080fd5b8054600160c01b90046001600160401b03168314610ad657600080fd5b8054604080518681526001600160401b03600160801b840481166020830152600160c01b90930490921682820152517f0647d42ab02f6e0ae76959757dcb6aa6feac1d4ba6f077f1223fb4b1b429f06c9181900360600190a1610b69565b600181810154610b55916001600160401b039091169063ffffffff61181916565b6001600160401b03168314610b6957600080fd5b8054600160801b90046001600160401b0316600090815260038201602052604090208054600160d01b900460ff16610ba057600080fd5b8054600160d81b900460ff16610bb557600080fd5b600084815260048381016020526040822084548154600283018e9055600383018d90559282018b9055600160801b908190046001600160401b0390811667ffffffffffffffff199485161767ffffffffffffffff60801b19164282169290920291909117825560058201805461010060ff19909116600190811761ff001916919091179091558601805490931690881617909155905460ff16610cb05760018301546001600160401b039081166000908152600485016020526040902054600c8054610cb0939192600160401b9004909116908110610c9057fe5b6000918252602082208c9260029092020190600a9063ffffffff61183e16565b825460408051888152600160801b9092046001600160401b031660208301528181018790526001606083018190526080830152517f3d4a04291c66b06f39a4ecb817875b12b5485a05ec563133a56a905305c48e559160a0908290030190a18154600160401b90046001600160401b0316851415610d3057610d30611960565b6004546001600160a01b031615610dba57600480546040805163359c4d5960e01b815290516001600160a01b039092169263359c4d599282820192602092908290030181600087803b158015610d8557600080fd5b505af1158015610d99573d6000803e3d6000fd5b505050506040513d6020811015610daf57600080fd5b5051610dba57600080fd5b600196505050505050505b949350505050565b6004546001600160a01b031681565b60076020526000908152604090205481565b60005460ff1681565b600a81565b6512309ce5400081565b620186a081565b6000806000610e1b876115b2565b60065491935091508214610e2e57600080fd5b60008281526008602052604090206001908101546001600160401b03908116909101168114610e5c57600080fd5b60008281526008602052604081209080841580610eaa575060001985016000908152600860205260409020546001600160401b031615801590610eaa57506002830154600160c01b900460ff165b156110d557610ec6838a8a8a600160008063ffffffff6119f416565b60005490955090925060ff16610f345760018301546001600160401b039081166000908152600485016020526040902054600b8054610f34939192600160401b9004909116908110610f1457fe5b6000918252602082208b926002909202019060099063ffffffff61183e16565b506000838152600483016020526040902054600b8054600160401b9092046001600160401b03169182908110610f6657fe5b60009182526020808320600292909202909101548483526003860182526040808420600190810180546001600160c01b0381166101009095046001600160401b03908116600160c01b9283900482160116029390931790925580518981529283018690528281018890526060830191909152608082019290925290517f3d4a04291c66b06f39a4ecb817875b12b5485a05ec563133a56a905305c48e559160a0908290030190a16000828152600384016020526040902054600160401b90046001600160401b031684141561103d5761103d611bff565b6004546001600160a01b0316156110c757600480546040805163359c4d5960e01b815290516001600160a01b039092169263359c4d599282820192602092908290030181600087803b15801561109257600080fd5b505af11580156110a6573d6000803e3d6000fd5b505050506040513d60208110156110bc57600080fd5b50516110c757600080fd5b600195505050505050610dc5565b6110ec838a8a8a600160008163ffffffff6119f416565b600019870160009081526008602090815260408083208484526004808a01845282852060028b01805460018301805467ffffffffffffffff19166001600160401b03600160801b9384900481169190911790915591540481168752918301909452918420548354600160401b918290049093160267ffffffffffffffff60401b199092169190911782559154929750929450919060ff166111c9578054600b80546111c992600160401b90046001600160401b03169081106111aa57fe5b600091825260209091208c91600202016009600163ffffffff61183e16565b6040805188815260208101869052808201889052600160608201526000608082015290517f3d4a04291c66b06f39a4ecb817875b12b5485a05ec563133a56a905305c48e559181900360a00190a16112298583600b63ffffffff611c8b16565b156112e1576000848152600386016020908152604080832080546001600160401b03808c16600160401b0267ffffffffffffffff60401b199092169190911780835560019283015484518e81529586018b905290821685850152606085018c905216608084015260a0830184905260c0830184905260e083015261010082019290925290517f030c1c69405c93021f28f57557240dee939a320b826a1fd0d39bf6e629ecab47918190036101200190a16112e1611eb6565b6004546001600160a01b03161561136b57600480546040805163359c4d5960e01b815290516001600160a01b039092169263359c4d599282820192602092908290030181600087803b15801561133657600080fd5b505af115801561134a573d6000803e3d6000fd5b505050506040513d602081101561136057600080fd5b505161136b57600080fd5b5060019b9a5050505050505050505050565b60055481565b601481565b6009818154811061139557fe5b6000918252602091829020600691909102018054600180830154600280850154600386015460048701546005880180546040805161010099831615999099026000190190911695909504601f81018b90048b0288018b019095528487526001600160401b0388169a50600160401b880460ff9081169a600160481b8a0482169a600160501b8b0483169a600160581b810490931699600160601b9093046001600160801b0316986001600160a01b039081169897169690939183018282801561149f5780601f106114745761010080835404028352916020019161149f565b820191906000526020600020905b81548152906001019060200180831161148257829003601f168201915b505050505090508b565b600e6020526000908152604090205481565b6003546001600160a01b031681565b600c81815481106114d757fe5b60009182526020909120600290910201805460019091015460ff821692506001600160401b036101008304811692600160481b8104821692600160881b9091048216918116906001600160a01b03600160401b9091041686565b603c81565b60145481565b60115481565b600f6020526000908152604090205481565b6015602052600090815260409020546001600160a01b031681565b600081565b6002546001600160a01b031681565b6001546001600160a01b031681565b600b81815481106114d757fe5b600a818154811061139557fe5b60125481565b600160801b8104916001600160801b0390911690565b865486906115e790600160801b90046001600160401b03166001611f4a565b146115f157600080fd5b6001878101548391611612916001600160401b03169063ffffffff611f4a16565b1461161c57600080fd5b600086815260038801602052604090208054600160d01b900460ff161561164257600080fd5b8054600160d81b900460ff161561165857600080fd5b8054600160e01b900460ff161561166e57600080fd5b80546001600160401b0316831461168457600080fd5b8054600160401b90046001600160401b031682146116a157600080fd5b60038101959095556004850193909355506005830155600690910180546001600160401b0342811667ffffffffffffffff19928316179092558454938216600160801b0267ffffffffffffffff60801b199094169390931784556001939093018054919093169116179055565b600154604080516b707265706172654f5245282960a01b8152815190819003600c018120600482526024820183526020820180516001600160e01b03166001600160e01b0319909216919091178152915181516000946060946001600160a01b039091169392918291908083835b6020831061179b5780518252601f19909201916020918201910161177c565b6001836020036101000a038019825116818451168082178552505050505050905001915050600060405180830381855af49150503d80600081146117fb576040519150601f19603f3d011682016040523d82523d6000602084013e611800565b606091505b50915091508161180f57600080fd5b5050565b610e1090565b60008282016001600160401b03808516908216101561183757600080fd5b9392505050565b825460018401546001600160401b03600160881b9092048216911660008361186b5782820360010161187c565b855461010090046001600160401b03165b90506000811161188b57600080fd5b6060816040519080825280602002602001820160405280156118b7578160200160208202803883390190505b50905083805b848111611940578615806118f557508781815481106118d857fe5b6000918252602090912060069091020154600160401b900460ff16155b156119385787818154811061190657fe5b906000526020600020906006020160040154838784038151811061192657fe5b60209081029190910101526001909101905b6001016118bd565b508861194b83611f5c565b1461195557600080fd5b505050505050505050565b6001546040805173707265706172654f52454166746572555245282960601b81528151908190036014018120600482526024820183526020820180516001600160e01b03166001600160e01b0319909216919091178152915181516000946060946001600160a01b039091169392918291908083836020831061179b5780518252601f19909201916020918201910161177c565b86546001808901546001600160401b03600160801b909304831692600092611a25929091169063ffffffff611f4a16565b600083815260038b016020526040902080549192509060016001600160401b03600160401b90920482160116821415611a96575088546001600160401b03600193909301928316600160801b0267ffffffffffffffff60801b19909116178955600082815260038a01602052604090205b80546001600160401b0316821015611aad57600080fd5b8380611aca57508054600160401b90046001600160401b03168211155b611ad357600080fd5b805460ff600160d01b90910416151586151514611aef57600080fd5b805460ff600160d81b90910416151585151514611b0b57600080fd5b600082815260048b810160205260409091208054600282018c9055600382018b905591810189905567ffffffffffffffff199091166001600160401b038581169190911767ffffffffffffffff60801b1916600160801b42929092169190910217815560058101805460ff1916881580159190911761ff0019166101008915150217909155611bd35781546001830154825467ffffffffffffffff60401b1916600160401b6001600160401b03938416600160801b9093048416870192909203909216021781555b5050600198909801805467ffffffffffffffff19166001600160401b038a161790559795505050505050565b600154604080516b707265706172654e5245282960a01b8152815190819003600c018120600482526024820183526020820180516001600160e01b03166001600160e01b0319909216919091178152915181516000946060946001600160a01b039091169392918291908083836020831061179b5780518252601f19909201916020918201910161177c565b60028301546001600160401b03600160801b909104811660008181526004850160205260408120549092165b6000818152600386016020526040902054600160c81b900460ff1615611eaa576000818152600386016020526040902054600160401b90046001600160401b03168210611d1e5760020160008181526003860160205260409020546001600160401b031691505b5b6000818152600386016020526040902060010154600160c01b90046001600160401b0316158015611d6757506000818152600386016020526040902054600160c81b900460ff165b15611d905760020160008181526003860160205260409020546001600160401b03169150611d1f565b6000818152600386016020526040902054600160c81b900460ff16611dba57600192505050611837565b6000818152600386016020526040902054600160401b90046001600160401b03165b808311611e4657600083815260048701602052604081205486548791600160401b90046001600160401b0316908110611e1157fe5b600091825260209091206002909102015461010090046001600160401b03161115611e3b57611e46565b600183019250611ddc565b80831115611e73575060020160008181526003860160205260409020546001600160401b03169150611cb7565b50506002850180546001600160401b03909216600160801b0267ffffffffffffffff60801b19909216919091179055506000611837565b50600195945050505050565b6001546040805173707265706172654e52454166746572555245282960601b81528151908190036014018120600482526024820183526020820180516001600160e01b03166001600160e01b0319909216919091178152915181516000946060946001600160a01b039091169392918291908083836020831061179b5780518252601f19909201916020918201910161177c565b60008282018381101561183757600080fd5b6000815160011415611f845781600081518110611f7557fe5b602002602001015190506120f3565b60606002835160010181611f9457fe5b04604051908082528060200260200182016040528015611fbe578160200160208202803883390190505b50905060005b835181600101101561205157838181518110611fdc57fe5b6020026020010151848260010181518110611ff357fe5b6020026020010151604051602001808381526020018281526020019250505060405160208183030381529060405280519060200120826002838161203357fe5b048151811061203e57fe5b6020908102919091010152600201611fc4565b600284518161205c57fe5b06600114156120e5578360018551038151811061207557fe5b60200260200101518460018651038151811061208d57fe5b602002602001015160405160200180838152602001828152602001925050506040516020818303038152906040528051906020012082600283816120cd57fe5b04815181106120d857fe5b6020026020010181815250505b6120ee82611f5c565b925050505b91905056fea265627a7a7231582069f8fb04eb38b4de74db9234e8ccce90214eb08779e8128f9bdac2d72a8eae6364736f6c634300050c0032",
  "source": "pragma solidity ^0.5.12;\n\nimport \"../lib/SafeMath.sol\";\nimport \"../lib/Math.sol\";\nimport \"../lib/Data.sol\";\nimport \"../lib/Address.sol\";\nimport \"../lib/BMT.sol\";\n\nimport \"../RootChainStorage.sol\";\nimport \"../RootChainEvent.sol\";\nimport \"../RootChainBase.sol\";\n\nimport { SeigManagerI } from \"../stake/interfaces/SeigManagerI.sol\";\n\n\ncontract SubmitHandler is RootChainStorage, RootChainEvent, RootChainBase {\n  using SafeMath for uint;\n  using SafeMath for uint64;\n  using Math for *;\n  using Data for *;\n  using Address for address;\n  using BMT for *;\n\n  constructor(address _epochHandler) public {\n    epochHandler = _epochHandler;\n    submitHandler = address(this);\n  }\n\n  function submitNRE(\n    uint _pos1, // forknumber + epochNumber\n    uint _pos2, // startBlockNumber + endBlockNumber\n    bytes32 _epochStateRoot,\n    bytes32 _epochTransactionsRoot,\n    bytes32 _epochReceiptsRoot\n  )\n    public\n    payable\n    returns (bool success)\n  {\n    (uint forkNumber, uint epochNumber) = _pos1.decodePos();\n    require(currentFork == forkNumber, \"currentFork == forkNumber\");\n\n    (uint startBlockNumber, uint endBlockNumber) = _pos2.decodePos();\n\n    forks[forkNumber].insertNRE(\n      epochNumber,\n      _epochStateRoot,\n      _epochTransactionsRoot,\n      _epochReceiptsRoot,\n      startBlockNumber,\n      endBlockNumber\n    );\n\n    _delegatePrepareORE();\n\n    if (address(seigManager) != address(0)) {\n      require(SeigManagerI(seigManager).onCommit());\n    }\n\n    return true;\n  }\n\n  function submitORB(\n    uint _pos,\n    bytes32 _statesRoot,\n    bytes32 _transactionsRoot,\n    bytes32 _receiptsRoot\n  )\n    public\n    payable\n    returns (bool success)\n  {\n    uint forkNumber;\n    uint blockNumber;\n\n    (forkNumber, blockNumber) = _pos.decodePos();\n\n    require(currentFork == forkNumber);\n    require(forks[forkNumber].lastBlock + 1 == blockNumber);\n\n    Data.Fork storage curFork = forks[forkNumber];\n\n    uint epochNumber;\n    uint requestBlockId;\n\n    // If not forked or already rebased\n    if (forkNumber == 0 || forks[forkNumber - 1].forkedBlock != 0 && curFork.rebased) {\n      (epochNumber, blockNumber) = curFork.insertBlock(\n        _statesRoot,\n        _transactionsRoot,\n        _receiptsRoot,\n        true,\n        false,\n        false\n      );\n\n      if (!development) {\n        _transactionsRoot._checkTxRoot(\n          ORBs[curFork.blocks[curFork.lastBlock].requestBlockId],\n          EROs,\n          false\n        );\n      }\n\n      requestBlockId = curFork.blocks[blockNumber].requestBlockId;\n\n      // accunulate # of enters into epoch\n      curFork.epochs[epochNumber].RE.numEnter += ORBs[requestBlockId].numEnter;\n\n      emit BlockSubmitted(\n        forkNumber,\n        epochNumber,\n        blockNumber,\n        true,\n        false\n      );\n\n      if (blockNumber == curFork.epochs[epochNumber].endBlockNumber) {\n        _delegatePrepareNRE();\n      }\n\n      if (address(seigManager) != address(0)) {\n        require(SeigManagerI(seigManager).onCommit());\n      }\n\n      return true;\n    }\n\n    // Otherwise, compare to block in previous fork\n    (epochNumber, blockNumber) = curFork.insertBlock(\n      _statesRoot,\n      _transactionsRoot,\n      _receiptsRoot,\n      true,\n      false,\n      true\n    );\n\n    Data.Fork storage preFork = forks[forkNumber - 1];\n    Data.PlasmaBlock storage curBlock = curFork.blocks[blockNumber];\n\n    curBlock.referenceBlock = curFork.nextBlockToRebase;\n    curBlock.requestBlockId = preFork.blocks[curFork.nextBlockToRebase].requestBlockId;\n\n    if (!development) {\n      _transactionsRoot._checkTxRoot(\n        ORBs[curBlock.requestBlockId],\n        EROs,\n        true\n      );\n    }\n\n    emit BlockSubmitted(\n      forkNumber,\n      epochNumber,\n      blockNumber,\n      true,\n      false\n    );\n\n    // if ORB' is filled.\n    if (curFork.checkNextORBToRebase(preFork, ORBs)) {\n      curFork.epochs[epochNumber].endBlockNumber = uint64(blockNumber);\n\n      emit EpochRebased(\n        forkNumber,\n        epochNumber,\n        curFork.epochs[epochNumber].startBlockNumber,\n        blockNumber,\n        curFork.epochs[epochNumber].RE.requestStart,\n        0,\n        false,\n        true,\n        false\n      );\n\n      _delegatePrepareNREAfterURE();\n    }\n\n    if (address(seigManager) != address(0)) {\n      require(SeigManagerI(seigManager).onCommit());\n    }\n\n    return true;\n  }\n\n  function submitURB(\n    uint _pos,\n    bytes32 _statesRoot,\n    bytes32 _transactionsRoot,\n    bytes32 _receiptsRoot\n  )\n    public\n    payable\n    returns (bool success)\n  {\n    uint forkNumber;\n    uint blockNumber;\n\n    (forkNumber, blockNumber) = _pos.decodePos();\n\n\n    bool firstURB = currentFork + 1 == forkNumber;\n    require(firstURB || currentFork == forkNumber);\n\n    Data.Fork storage fork = forks[forkNumber];\n\n    if (firstURB) {\n      currentFork = forkNumber;\n      fork = forks[forkNumber];\n\n      require(fork.timestamp + Data.URE_TIMEOUT() > block.timestamp);\n\n      // check block number\n      require(blockNumber == fork.firstBlock);\n\n      emit Forked(forkNumber, fork.lastEpoch, fork.firstBlock);\n    } else {\n      // check block number\n      require(blockNumber == fork.lastBlock.add64(1));\n    }\n\n    Data.Epoch storage epoch = fork.epochs[fork.lastEpoch];\n\n    require(epoch.isRequest);\n    require(epoch.userActivated);\n\n    Data.PlasmaBlock storage b = fork.blocks[blockNumber];\n\n    b.epochNumber = fork.lastEpoch;\n    b.statesRoot = _statesRoot;\n    b.transactionsRoot = _transactionsRoot;\n    b.receiptsRoot = _receiptsRoot;\n    b.timestamp = uint64(block.timestamp);\n    b.isRequest = true;\n    b.userActivated = true;\n\n    fork.lastBlock = uint64(blockNumber);\n\n    if (!development) {\n      _transactionsRoot._checkTxRoot(\n        URBs[fork.blocks[fork.lastBlock].requestBlockId],\n        ERUs,\n        false\n      );\n    }\n\n    emit BlockSubmitted(\n      forkNumber,\n      fork.lastEpoch,\n      blockNumber,\n      true,\n      true\n    );\n\n    // TODO: use internal function to avoide stack too deep error\n    if (blockNumber == epoch.endBlockNumber) {\n      _delegatePrepareOREAfterURE();\n    }\n\n    if (address(seigManager) != address(0)) {\n      require(SeigManagerI(seigManager).onCommit());\n    }\n\n    return true;\n  }\n}",
  "sourcePath": "/Users/pjh/workspace/plasma-evm-contracts/contracts/handlers/SubmitHandler.sol",
  "compiler": {
    "name": "solc",
    "version": "0.5.12+commit.7709ece9.Emscripten.clang"
  },
  "schemaVersion": "3.0.23",
  "updatedAt": "2020-04-03T08:24:39.558Z",
  "devdoc": {
    "methods": {}
  },
  "userdoc": {
    "methods": {}
  }
}