{
  "contractName": "Vault",
  "abi": [
    {
      "anonymous": false,
      "inputs": [
        {
          "indexed": true,
          "internalType": "address",
          "name": "previousOwner",
          "type": "address"
        },
        {
          "indexed": true,
          "internalType": "address",
          "name": "newOwner",
          "type": "address"
        }
      ],
      "name": "OwnershipTransferred",
      "type": "event"
    },
    {
      "constant": true,
      "inputs": [],
      "name": "implementation",
      "outputs": [
        {
          "internalType": "address payable",
          "name": "",
          "type": "address"
        }
      ],
      "payable": false,
      "stateMutability": "view",
      "type": "function"
    },
    {
      "constant": true,
      "inputs": [],
      "name": "isOwner",
      "outputs": [
        {
          "internalType": "bool",
          "name": "",
          "type": "bool"
        }
      ],
      "payable": false,
      "stateMutability": "view",
      "type": "function"
    },
    {
      "constant": true,
      "inputs": [],
      "name": "owner",
      "outputs": [
        {
          "internalType": "address",
          "name": "",
          "type": "address"
        }
      ],
      "payable": false,
      "stateMutability": "view",
      "type": "function"
    },
    {
      "constant": false,
      "inputs": [],
      "name": "renounceOwnership",
      "outputs": [],
      "payable": false,
      "stateMutability": "nonpayable",
      "type": "function"
    },
    {
      "constant": false,
      "inputs": [
        {
          "internalType": "address",
          "name": "newOwner",
          "type": "address"
        }
      ],
      "name": "transferOwnership",
      "outputs": [],
      "payable": false,
      "stateMutability": "nonpayable",
      "type": "function"
    }
  ],
  "bytecode": "0x608060405260006100176001600160e01b0361006616565b600080546001600160a01b0319166001600160a01b0383169081178255604051929350917f8be0079c531659141344cd1fd0a4f28419497f9722a3daafe3b4186f6b6457e0908290a35061006a565b3390565b6103aa806100796000396000f3fe608060405234801561001057600080fd5b50600436106100575760003560e01c80635c60da1b1461005c578063715018a61461007a5780638da5cb5b146100845780638f32d59b1461008c578063f2fde38b146100a1575b600080fd5b6100646100b4565b60405161007191906102f2565b60405180910390f35b6100826100c3565b005b61006461013a565b610094610149565b6040516100719190610300565b6100826100af366004610233565b61016d565b6001546001600160a01b031681565b6100cb610149565b6100f05760405162461bcd60e51b81526004016100e79061031e565b60405180910390fd5b600080546040516001600160a01b03909116907f8be0079c531659141344cd1fd0a4f28419497f9722a3daafe3b4186f6b6457e0908390a3600080546001600160a01b0319169055565b6000546001600160a01b031690565b600080546001600160a01b031661015e61019d565b6001600160a01b031614905090565b610175610149565b6101915760405162461bcd60e51b81526004016100e79061031e565b61019a816101a1565b50565b3390565b6001600160a01b0381166101c75760405162461bcd60e51b81526004016100e79061030e565b600080546040516001600160a01b03808516939216917f8be0079c531659141344cd1fd0a4f28419497f9722a3daafe3b4186f6b6457e091a3600080546001600160a01b0319166001600160a01b0392909216919091179055565b803561022d81610353565b92915050565b60006020828403121561024557600080fd5b60006102518484610222565b949350505050565b61026281610337565b82525050565b61026281610342565b600061027e60268361032e565b7f4f776e61626c653a206e6577206f776e657220697320746865207a65726f206181526564647265737360d01b602082015260400192915050565b60006102c660208361032e565b7f4f776e61626c653a2063616c6c6572206973206e6f7420746865206f776e6572815260200192915050565b6020810161022d8284610259565b6020810161022d8284610268565b6020808252810161022d81610271565b6020808252810161022d816102b9565b90815260200190565b600061022d82610347565b151590565b6001600160a01b031690565b61035c81610337565b811461019a57600080fdfea365627a7a7231582058267886fbe150acc74eb4f94f4fe235030517e5e49f744f912c688ec0b1abb16c6578706572696d656e74616cf564736f6c634300050c0040",
  "source": "pragma solidity ^0.5.12;\npragma experimental ABIEncoderV2;\n\nimport { VaultStorage } from  \"./VaultStorage.sol\";\n\n\n/**\n * @notice Vault is a implementation of TON and WTON vault to swap, stake, and unstake.\n * All message-calls invoked by Vault are authorized and implemented in Exec.sol.\n * Below empty implementation is just reserved for future functions that are readily\n * accessible to the contract, but are not mandatory.\n */\ncontract Vault is VaultStorage {\n\n}",
  "sourcePath": "/Users/pjh/workspace/plasma-evm-contracts/contracts/stake/vault/Vault.sol",
  "compiler": {
    "name": "solc",
    "version": "0.5.12+commit.7709ece9.Emscripten.clang"
  },
  "schemaVersion": "3.0.23",
  "updatedAt": "2020-03-05T06:33:29.849Z",
  "devdoc": {
    "methods": {
      "isOwner()": {
        "details": "Returns true if the caller is the current owner."
      },
      "owner()": {
        "details": "Returns the address of the current owner."
      },
      "renounceOwnership()": {
        "details": "Leaves the contract without owner. It will not be possible to call `onlyOwner` functions anymore. Can only be called by the current owner.     * NOTE: Renouncing ownership will leave the contract without an owner, thereby removing any functionality that is only available to the owner."
      },
      "transferOwnership(address)": {
        "details": "Transfers ownership of the contract to a new account (`newOwner`). Can only be called by the current owner."
      }
    }
  },
  "userdoc": {
    "methods": {},
    "notice": "Vault is a implementation of TON and WTON vault to swap, stake, and unstake. All message-calls invoked by Vault are authorized and implemented in Exec.sol. Below empty implementation is just reserved for future functions that are readily accessible to the contract, but are not mandatory."
  }
}